:1000000050C200006FC200006DC200006BC2000051
:1000100069C2000067C2000065C2000063C2000040
:1000200061C200005FC200005DC200005BC2000050
:1000300059C2000057C200000C94880D53C2000042
:1000400051C200004FC200004DC200004BC2000070
:1000500049C2000047C2000045C2000043C2000080
:1000600041C200003FC200003DC200003BC2000090
:1000700039C2000037C2000035C2000033C20000A0
:1000800031C200002FC200002DC200002BC20000B0
:1000900029C2000027C2000025C20000EFC70000EF
:1000A0000C9470080C94A2080C94D4081BC2000095
:1000B00019C2000017C2000015C2000013C20000E0
:1000C00011C200000FC200000DC200000BC20000F0
:1000D00009C2000007C2000005C2000003C2000000
:1000E00001C20000FFC10000FDC10000FBC1000013
:1000F000F9C10000F7C10000F5C10000F3C1000024
:10010000F1C10000EFC10000EDC10000EBC1000033
:10011000E9C10000E7C10000E5C10000E7C600003A
:1001200017C7000047C7000077C70000DBC1000009
:10013000D9C10000D7C10000D5C10000D3C1000063
:10014000D1C10000CFC10000CDC10000CBC1000073
:10015000C9C10000C7C10000C5C10000C3C1000083
:10016000C1C10000BFC10000BDC10000BBC1000093
:10017000B9C10000B7C10000B5C10000B3C10000A3
:10018000B1C10000AFC10000ADC10000ABC10000B3
:10019000A9C10000A7C10000A5C10000A3C10000C3
:1001A000A1C100009FC100009DC100009BC10000D3
:1001B00099C1000097C1000095C1000093C10000E3
:1001C00091C100008FC100008DC100008BC10000F3
:1001D00089C1000087C1000085C1000083C1000003
:1001E00081C100007FC100007DC100007BC1000013
:1001F00079C1000077C1000075C10000861686161F
:100200008616BE16AD16BB1686168616BE16AD161B
:10021000000000000000002020202020002050507E
:1002200050000000005050F850F850502078A07056
:1002300028F020C0C810204098186090A040A890D6
:100240006860204000000000102040404020104026
:10025000201010102040005020F8205000002020D6
:10026000F820200000000000602040000000F8009E
:1002700000000000000000606000081020408000C6
:10028000708898A8C888702060202020207070880E
:1002900008102040F8F81020100888701030509096
:1002A000F81010F880F008088870304080F08888D6
:1002B00070F80810204040407088887088887070FE
:1002C00088887808106000606000606000006060EE
:1002D00000602040081020402010080000F800F8BE
:1002E00000008040201020408070880810200020EE
:1002F00070880868A8A87070888888F88888F0884E
:1003000088F08888F070888080808870E090888885
:100310008890E0F88080F08080F8F88080E080802D
:100320008070888080988870888888F8888888702D
:10033000202020202070381010101090608890A08D
:10034000C0A09088808080808080F888D8A8888825
:1003500088888888C8A898888870888888888870DD
:10036000F08888F080808070888888A89068F088FD
:1003700088F0A09088788080700808F0F82020200D
:100380002020208888888888887088888888885075
:1003900020888888A8A8D88888885020508888888D
:1003A000885020202020F80810204080F838202095
:1003B0002020203800804020100800E0202020204D
:1003C00020E020508800000000000000000000F83D
:1003D00040201000000000000070087888788080BD
:1003E000B0C88888F000007080808870080868981D
:1003F00088887800007088F88070304840E040407D
:1004000040000078887808308080B0C888888820CC
:100410000060202020701000301010906040404894
:1004200050605048602020202020700000D0A8A8F4
:1004300088880000B0C88888880000708888887024
:100440000000F088F08080000068987808080000BC
:10045000B0C8808080000070807008F04040E040AC
:100460004048300000888888986800008888885054
:100470002000008888A8A8500000885020508800DC
:100480000088887808700000F8102040F8102020BC
:10049000402020102020202020202040202010203C
:1004A000204011241FBECFEFCDBFDFE5DEBF00E04F
:1004B0000CBF10E2A0E0B0E2ECEBFBE300E00BBF0E
:1004C00002C007900D92A035B107D9F723E2A0E54D
:1004D000B0E201C01D92A93AB207E1F70E94BF182D
:1004E0000C94DC1D8DCDBF92CF92DF92EF92FF92E4
:1004F0000F931F93CF93DF931F92CDB7DEB788E0A2
:10050000E0E0F6E0868385830F2EFBE2BF2EF02D20
:10051000B98280EA99E022D4C12CD12C760100E482
:1005200012E42FE030E043E0BE016F5F7F4F80EACE
:1005300099E043D400E616E0FF24F394F801F68234
:10054000B982BE016F5F7F4F80EA99E050D4F80115
:10055000F682E0EAF9E0818185FFFDCF80EA8093B1
:10056000A009E0EAF9E0818186FFFDCFE0EAF9E049
:1005700080E481838081BE016F5F7F4F80EA99E0D4
:100580004CD48BE28983BE016F5F7F4F80EA99E094
:100590002ED481E0E0E6F6E08683E0EAF9E08181AE
:1005A00085FFFDCF86EA8093A009E0EAF9E081812A
:1005B00086FFFDCFE0EAF9E080E481838081BE011F
:1005C0006F5F7F4F80EA99E028D48BE28983BE0178
:1005D0006F5F7F4F80EA99E00AD481E0E0E6F6E0C1
:1005E0008683E0EAF9E0818185FFFDCF88EC809386
:1005F000A009E0EAF9E0818186FFFDCFE0EAF9E0B9
:1006000080E481838081BE016F5F7F4F80EA99E043
:1006100004D48BE28983BE016F5F7F4F80EA99E04B
:10062000E6D381E0E0E6F6E08683E0EAF9E0818166
:1006300085FFFDCF82EA8093A009E0EAF9E081819D
:1006400086FFFDCFE0EAF9E080E481838081BE018E
:100650006F5F7F4F80EA99E0E0D38BE28983BE0130
:100660006F5F7F4F80EA99E0C2D381E0E0E6F6E079
:100670008683E0EAF9E0818185FFFDCF8FE28093F8
:10068000A009E0EAF9E0818186FFFDCFE0EAF9E028
:1006900080E481838081BE016F5F7F4F80EA99E0B3
:1006A000BCD38BE28983BE016F5F7F4F80EA99E004
:1006B0009ED381E0E0E6F6E08683E0EAF9E081811E
:1006C00085FFFDCF88EF8093A009E0EAF9E0818102
:1006D00086FFFDCFE0EAF9E080E481838081BE01FE
:1006E0006F5F7F4F80EA99E098D38BE28983BE01E8
:1006F0006F5F7F4F80EA99E07AD381E0E0E6F6E031
:100700008683E0EAF9E0818185FFFDCF1092A009A0
:10071000E0EAF9E0818186FFFDCFE0EAF9E080E4DC
:1007200081838081BE016F5F7F4F80EA99E075D33E
:100730008BE28983BE016F5F7F4F80EA99E057D3D8
:1007400081E0E0E6F6E08683E0EAF9E0818185FF7A
:10075000FDCF81E28093A009E0EAF9E0818186FF84
:10076000FDCFE0EAF9E080E481838081BE016F5F24
:100770007F4F80EA99E051D38BE28983BE016F5F9E
:100780007F4F80EA99E033D381E0E0E6F6E08683AC
:10079000E0EAF9E0818185FFFDCF81E88093A0093F
:1007A000E0EAF9E0818186FFFDCFE0EAF9E080E44C
:1007B00081838081BE016F5F7F4F80EA99E02DD3F6
:1007C0008BE28983BE016F5F7F4F80EA99E00FD390
:1007D00081E0E0E6F6E08683E0EAF9E0818185FFEA
:1007E000FDCF81E28093A009E0EAF9E0818186FFF4
:1007F000FDCFE0EAF9E080E481838081BE016F5F94
:100800007F4F80EA99E009D38BE28983BE016F5F55
:100810007F4F80EA99E0EBD281E0E0E6F6E0868364
:10082000E0EAF9E0818185FFFDCF8FEA8093A0099E
:10083000E0EAF9E0818186FFFDCFE0EAF9E080E4BB
:1008400081838081BE016F5F7F4F80EA99E0E5D2AE
:100850000F90DF91CF911F910F91FF90EF90DF905C
:10086000CF90BF9008959FB7F894E82FF0E0E0593B
:10087000FF4F60958081682360839FBF08959FB775
:10088000F894E82FF0E0E059FF4F8081682B6083F7
:100890009FBF0895FF920F931F93CF93DF931F92F3
:1008A000CDB7DEB7F82E062F142F29D18F2D8F70DC
:1008B000806BF82E8BE28983BE016F5F7F4F80EAE9
:1008C00099E095D281E0E0E6F6E08683E0EAF9E09F
:1008D000918195FFFDCFF092A009E0EAF9E08181D6
:1008E00086FFFDCFE0EAF9E080E481838081BE01EC
:1008F0006F5F7F4F80EA99E090D2802F8F7782954B
:100900008F708061F82E8BE28983BE016F5F7F4F0D
:1009100080EA99E06CD281E0E0E6F6E08683E0EAE6
:10092000F9E0818185FFFDCFF092A009E0EAF9E0CE
:10093000818186FFFDCFE0EAF9E080E48183808158
:10094000BE016F5F7F4F80EA99E067D20F708BE244
:100950008983BE016F5F7F4F80EA99E048D281E0D2
:10096000E0E6F6E08683E0EAF9E0818185FFFDCFED
:100970000093A009E0EAF9E0818186FFFDCFE0EA7B
:10098000F9E080E481838081BE016F5F7F4F80EA60
:1009900099E043D28BE28983BE016F5F7F4F80EA8B
:1009A00099E025D281E0E0E6F6E08583E0EAF9E02F
:1009B000818185FFFDCF1093A009E0EAF9E08181F4
:1009C00086FFFDCFE0EAF9E080E48183808181E069
:1009D000E0E6F6E08683BE016F5F7F4F80EA99E034
:1009E0001CD20F90DF91CF911F910F91FF9008952E
:1009F0000F931F93CF93DF931F92CDB7DEB780E5A0
:100A000090E278D070DD8BE28983BE016F5F7F4F0B
:100A100080EA99E0ECD181E0E0E6F6E08683E0EA66
:100A2000F9E0818185FFFDCF80E48093A009E0EAB1
:100A3000F9E0818186FFFDCFE0EAF9E080E481837F
:100A40008081BE016F5F7F4F80EA99E0E6D100E0D0
:100A50000AC040E0612F802F1DDF1F5F1038C9F7EB
:100A60000F5F043011F010E0F4CF0F90DF91CF91C1
:100A70001F910F910895FF920F931F93CF93DF93D0
:100A8000182F042F882374F1603260F5F62EF69447
:100A9000F694F6942F2D30E0319521953109220FEF
:100AA000331F220F331F220F331F260F311DE1E0AA
:100AB000F0E0EF0102C0CC0FDD1F2A95E2F7682FAE
:100AC0008F2D2CD0013021F028F0023031F006C0FB
:100AD0008C2B04C0C0958C2301C08C27482F612F1C
:100AE0008F2DD8DEDF91CF911F910F91FF90089548
:100AF00015C008958093502290935122089520E8C4
:100B0000829FC0011124FC01E60FF11D809150224B
:100B100090915122E80FF91F4083089520E8829FA9
:100B2000C0011124FC01E60FF11D8091502290912B
:100B30005122E80FF91F80810895FF920F931F93B0
:100B4000CF93DF93E42FF0E0E80FF11DE138F105DA
:100B500014F040E8481B442309F459C0C62FC69539
:100B6000C695C695EC2FF0E0F195E195F109EE0FF1
:100B7000FF1FEE0FFF1FEE0FFF1FDF01A60FB11DBE
:100B8000BD01E1E0F0E0DF0102C0AA0FBB1F6A95E2
:100B9000E2F70A2F213049F068F0223009F037C01F
:100BA000D42FFF24FA94F80E26C0D42FFF24FA94F1
:100BB000F80E07C0D42FFF24FA94F80E0A2F0095E0
:100BC0000DC01F2D1D0F612F8C2F92DF482F402B42
:100BD000612F8C2F5FDED150A1F719C01F2D1D0F83
:100BE000612F8C2F85DF482F4023612F8C2F52DE01
:100BF000D150A1F70CC01F2D1D0F612F8C2F78DF56
:100C0000482F4027612F8C2F45DED150A1F7DF916F
:100C1000CF911F910F91FF900895FF920F931F9313
:100C2000CF93DF93D82F142F222361F0C22FFF24FC
:100C3000FA94F60E6F2D6C0F202F412F8D2F7DDF34
:100C4000C150C1F7DF91CF911F910F91FF9008958F
:100C5000AF92BF92CF92DF92EF92FF920F931F93CA
:100C6000CF93DF93C82FD62EA42E790100E0F9018F
:100C7000248143816A2D8D2DD0DFF7019081911160
:100C800039C08381A82FA695A695A695877009F0EF
:100C9000AF5FF701C480AC9DD0011124EC2FF0E0D0
:100CA000E7018D81E81BF109AE9F9001AF9F300DE8
:100CB000BE9F300D11240980DA81C02DC20FD31FD1
:100CC000F701B380BB2099F000E010E0812F8D0D7B
:100CD000912F977019F4FE010491219600231CF4C2
:100CE00041E06A2DC8DE000F1F5F1B11EFCFA394F8
:100CF000CA9431F7DF91CF911F910F91FF90EF9040
:100D0000DF90CF90BF90AF900895DF92EF92FF9267
:100D10000F931F93CF93DF93E42E8901EC01F62EFE
:100D2000D62E89918A3031F4F80184818F5FE80EE4
:100D3000FD2C09C08D3039F098014E2D6F2D88DFC4
:100D4000F8018381F80E88818111EBCFDF91CF917B
:100D50001F910F91FF90EF90DF900895803A28E067
:100D6000920721F460E183E07ECD0895803B28E086
:100D7000920721F460E283E076CD0895803A29E07D
:100D8000920721F460E184E06ECD0895803B29E074
:100D9000920721F460E284E066CD0895803A2AE06B
:100DA000920721F460E185E05ECD0895803A9B4092
:100DB00019F460E186E057CD08950F931F93CF9308
:100DC000DF9300D000D0CDB7DEB709831A832B8321
:100DD0003C834D831E82BE016F5F7F4F3AD32696C0
:100DE000CDBFDEBFDF91CF911F910F910895FB0121
:100DF0008081E82FE695E695E69540E2E49FF001D4
:100E00001124FA5F877021E030E0A90102C0440F8D
:100E1000551F8A95E2F746830895FB018081E82FEC
:100E2000E695E695E69540E2E49FF0011124FA5F2D
:100E3000877021E030E0A90102C0440F551F8A9558
:100E4000E2F745830895811522E0920761F48091CD
:100E5000532291E0980F90935322811112C062E0C7
:100E600081E001CD08958034924059F4809152225E
:100E700091E0980F90935222811103C062E082E0CA
:100E8000F2CC0895811522E0920759F48091532203
:100E9000815080935322811111C062E081E0EFCC38
:100EA00008958034924051F4809152228150809371
:100EB0005222811103C062E082E0E1CC08951F93C9
:100EC000CF93DF93EC011FB7F894BDDF8881816079
:100ED00088831FBF8FB7F894ECE9F3E290819F5F9E
:100EE00090838FBFDF91CF911F9108951F920F9232
:100EF0000FB60F9211240BB60F922F933F934F937F
:100F00005F936F937F938F939F93AF93BF93EF9371
:100F1000FF93E0E0F2E044A155A1E091A323F0911A
:100F2000A42361E080E092E01995FF91EF91BF91D9
:100F3000AF919F918F917F916F915F914F913F9171
:100F40002F910F900BBE0F900FBE0F901F90189512
:100F50001F920F920FB60F9211240BB60F922F9380
:100F60003F934F935F936F937F938F939F93AF9331
:100F7000BF93EF93FF93E8E2F2E044815581E09163
:100F8000A323F091A42362E080E092E01995FF9101
:100F9000EF91BF91AF919F918F917F916F915F91F1
:100FA0004F913F912F910F900BBE0F900FBE0F905E
:100FB0001F9018951F920F920FB60F9211240BB627
:100FC0000F922F933F934F935F936F937F938F93E2
:100FD0009F93AF93BF93EF93FF93E0E3F2E04481DD
:100FE0005581E091A323F091A42364E080E092E096
:100FF0001995FF91EF91BF91AF919F918F917F9143
:101000006F915F914F913F912F910F900BBE0F9079
:101010000FBE0F901F9018951F920F920FB60F9250
:1010200011240BB60F922F933F934F935F936F93BF
:101030007F938F939F93AF93BF93EF93FF93E8E3D7
:10104000F2E044815581E091A323F091A42368E06C
:1010500080E092E01995FF91EF91BF91AF919F9140
:101060008F917F916F915F914F913F912F910F9051
:101070000BBE0F900FBE0F901F9018951F920F92EE
:101080000FB60F9211240BB60F922F933F934F93ED
:101090005F936F937F938F939F93AF93BF93EF93E0
:1010A000FF93E0E4F2E044A155A1E091A123F09187
:1010B000A22361E080E492E01995FF91EF91BF9146
:1010C000AF919F918F917F916F915F914F913F91E0
:1010D0002F910F900BBE0F900FBE0F901F90189581
:1010E0001F920F920FB60F9211240BB60F922F93EF
:1010F0003F934F935F936F937F938F939F93AF93A0
:10110000BF93EF93FF93E8E6F2E044815581E091CD
:10111000A123F091A22362E080E492E01995FF916F
:10112000EF91BF91AF919F918F917F916F915F915F
:101130004F913F912F910F900BBE0F900FBE0F90CC
:101140001F9018951F920F920FB60F9211240BB695
:101150000F922F933F934F935F936F937F938F9350
:101160009F93AF93BF93EF93FF93E0E7F2E0448147
:101170005581E091A123F091A22364E080E492E004
:101180001995FF91EF91BF91AF919F918F917F91B1
:101190006F915F914F913F912F910F900BBE0F90E8
:1011A0000FBE0F901F9018951F920F920FB60F92BF
:1011B00011240BB60F922F933F934F935F936F932E
:1011C0007F938F939F93AF93BF93EF93FF93E8E742
:1011D000F2E044815581E091A123F091A22368E0DF
:1011E00080E492E01995FF91EF91BF91AF919F91AB
:1011F0008F917F916F915F914F913F912F910F90C0
:101200000BBE0F900FBE0F901F901895DF92EF92BC
:10121000FF920F931F93CF93DF93EC018B01C115C6
:1012200022E0D20771F461E270E082E0D6D0E82ECD
:10123000F12C60E270E082E0D0D0FE2CEE24E82AAF
:1012400010C08034924059F565E270E082E0C5D06C
:10125000E82EF12C64E270E082E0BFD0FE2CEE2498
:10126000E82ADFB6F894CE01EEDD288182E088839B
:10127000EC86FD86F80185819681888F998F828121
:101280008A8384818C8383818B8381818983822F6C
:1012900081709081892B8883CE01F4DDDFBEDF91E0
:1012A000CF911F910F91FF90EF90DF900895FF92E3
:1012B0000F931F93CF93DF93EC018B01FFB6F8944C
:1012C000C2DD8881807CF8018083888D998D85833B
:1012D00096838A8182838C8184838B8183838981B5
:1012E0008183CE01CFDDFFBEDF91CF911F910F91A2
:1012F000FF900895CF92DF92EF92FF920F931F938A
:10130000CF93DF937C01D62E8A01862F837029F438
:10131000962F9695969582E002C0962F80E090FFDA
:101320008F5FE701A09698E0899FC00DD11D112421
:10133000CFB6F894C70187DDF80180818883828168
:101340008A8381818983D0FE02C083818E83C70115
:1013500099DDCFBEDF91CF911F910F91FF90EF905C
:10136000DF90CF900895CF92DF92EF92FF920F938C
:101370001F93CF93DF937C01D62EEA01862F8370D3
:1013800029F4962F9695969582E002C0962F80E0DC
:1013900090FF8F5F8701005E1F4F98E0899F000DCF
:1013A000111D1124CFB6F894C7014DDDF8018081DD
:1013B000888382818A8381818983D0FE02C086816D
:1013C0008B83C7015FDDCFBEDF91CF911F910F915E
:1013D000FF90EF90DF90CF9008954091CA01E62FE3
:1013E000F72F8093CA0184914093CA010895CF9248
:1013F000DF92EF92FF920F931F93CF93DF93EC0155
:1014000068017901F694E794D794C7944C155D056B
:101410006E057F0578F46A017B01CC0CDD1CEE1CA7
:10142000FF1CC901B801A70196010E94C0192150F3
:10143000310902C020E030E0832F8F708F832E832C
:10144000DF91CF911F910F91FF90EF90DF90CF90A0
:101450000895FF920F931F93CF93DF93EC018B01BD
:10146000009709F49BC1803C910521F460E180E084
:10147000FAD994C1803821E0920721F462E080E03B
:10148000F2D98CC1C11581E0D80721F461E080E078
:10149000EAD984C1C038E3E0DE0721F461E081E0ED
:1014A000E2D97CC1C039F3E0DF0721F461E082E0DA
:1014B000DAD974C1C11522E0D20721F462E081E0DB
:1014C000D2D96CC1C03482E0D80721F462E082E056
:1014D000CAD964C1C032E3E0DE0721F464E082E0EF
:1014E000C2D95CC1C115F8E0DF0721F461E083E0F7
:1014F000BAD954C1C11529E0D20721F461E084E0D2
:10150000B2D94CC1C1158AE0D80721F461E085E069
:10151000AAD944C1C115EBE0DE0721F461E086E001
:10152000A2D93CC1C034F8E0DF0721F462E083E0D7
:101530009AD934C1C03429E0D20721F462E084E0B2
:1015400092D92CC1C0348AE0D80721F462E085E04A
:101550008AD924C1C039E8E0DE0721F464E083E0E1
:1015600082D91CC1C039F9E0DF0721F464E084E0CE
:101570007AD914C1C0392AE0D20721F464E085E0A9
:1015800072D90CC1C0398BE0D80721F464E086E041
:101590006AD904C1C03CE8E0DE0721F468E083E0DA
:1015A00062D9FCC0C03CF9E0DF0721F468E084E0C8
:1015B0005AD9F4C0C03A28E0D20771F460E183E060
:1015C00052D9E0EAF8E084818F7E8483F801348187
:1015D000325080EA98E043C0C03AF9E0DF0721F4D6
:1015E00060E184E040D9DAC0C03A2AE0D20721F4B1
:1015F00060E185E038D9D2C0C03A8BE0D80721F449
:1016000060E186E030D9CAC0C03BE8E0DE0721F4E3
:1016100060E283E028D9C2C0C03BF9E0DF0721F4D3
:1016200060E284E020D9BAC0C03824E0D20721F4B7
:1016300060E483E018D9B2C0C03A84E0D80721F44E
:1016400060E485E010D9AAC08C818F7E8C83FB0179
:1016500034813250CE01C03AF8E0DF0751F4E0E4C3
:10166000F6E0268524FDA2C00F2EF1E1FF2EF02D1D
:1016700004C0803B28E0920799F0803AE9E09E0799
:1016800051F4E0E6F6E0268524FD95C00F2EF9E141
:10169000FF2EF02D17C0803BF9E09F0701F104C039
:1016A0000F2EF5E1FF2EF02D803A2AE0920751F43B
:1016B000E0E8F6E0868584FD83C00F2EF1E2FF2E80
:1016C000F02D16C0803A9B4099F4E0EAF6E086855A
:1016D00084FF0AC00F2EFDE2FF2EF02D09C00F2E51
:1016E000FDE1FF2EF02D04C00F2EF9E2FF2EF02DAC
:1016F000AF2DA695A695A695F0E2AF9FD001112437
:10170000BA5F2F2D277081E090E0022E02C0880F73
:10171000991F0A94E2F711968C931197323010F4C6
:1017200030E401C030E0FD017096E20FF11D9FB77B
:10173000F8942081277020832081232B20839FBF52
:1017400015968C938D81806C8D83F80184818D7FBB
:10175000813021F48D8182608D8303C08D818D7FE6
:101760008D83F8018581882321F08D8184608D83AC
:1017700003C08D818B7F8D83F8014081518162810F
:10178000738100E814E82EE130E0CE0130DE8C8178
:1017900088608C838C8180618C8317C08C818F7E64
:1017A0008C83F80134813250CE0163CF0F2EF5E1E6
:1017B000FF2EF02D62CF0F2EFDE1FF2EF02D82CFF8
:1017C0000F2EF5E2FF2EF02D93CFDF91CF911F91D9
:1017D0000F91FF900895FC010396818392832FEF70
:1017E0003FEF23833483858396838783908710829A
:1017F0000895FC01108611860895CF93DF939C0114
:10180000FB01DC011196CD91DC911297C283D38349
:101810008C819D81848395838C819D81DC011296CE
:101820006D937C9313976C837D8320873187F901B7
:1018300080818F5F8083DF91CF910895CF93DF9375
:10184000EB01488159814F3F2FEF520721F4FC01F2
:10185000A781B0850DC0DC0113961296ED91FC9125
:101860001397208131814217530710F0DF01F5CF24
:101870001296ED91FC911397EA83FB83C483D58381
:10188000AC83BD831296CD93DC9313978887998799
:10189000FC0120812F5F2083DF91CF910895CF93AA
:1018A000DF93FC01A085B185C281D38184819581BC
:1018B0008C839D83C481D581828193818A839B831C
:1018C0001196CD91DC911297CE17DF0731F48C8100
:1018D0009D8111968D939C931297108611868C9101
:1018E00081508C93DF91CF9108950F931F938B01BB
:1018F00071E1FC017083319762E26083319723E3E9
:101900002083222717FD2095322F319700833197AE
:1019100010833197208331971082319720E82083FC
:1019200031971082319722E02083319723E0208382
:10193000319724E02083319725E02083319726E0FA
:101940002083319727E02083319728E02083319747
:1019500029E02083319720E12083319770833197EC
:1019600022E12083319723E12083319724E12083F2
:10197000319725E12083319726E12083319727E1B4
:101980002083319728E12083319729E12083319703
:1019900020E22083319721E22083319760833197C1
:1019A00023E220833197408331975083319726E299
:1019B0002083319727E22083319728E220833197D3
:1019C00029E22083319720E32083319721E320838C
:1019D00087971F910F910895F894E0E7F0E08381D5
:1019E0008A7F8383E0E0F8E080E09AEF86A397A304
:1019F00081E08683A0EAB0E012969C9112979160F4
:101A000012969C9380837894A091AC22B091AD22E1
:101A10000D900DBE0D900EBEFF91EF91DF91CF9115
:101A2000BF91AF919F918F917F916F915F914F91F6
:101A30003F912F911F910F91FF90EF90DF90CF90EA
:101A4000BF90AF909F908F907F906F905F904F90DE
:101A50003F902F901F900F900FBE0F900895089504
:101A60000F920FB6F8940F921F9211242F923F926B
:101A70004F925F926F927F928F929F92AF92BF929E
:101A8000CF92DF92EF92FF920F931F932F933F938A
:101A90004F935F936F937F938F939F93AF93BF9376
:101AA000CF93DF93EF93FF93A091AC22B091AD223F
:101AB0000DB60D920EB60D920ED6A091AC22B0913D
:101AC000AD220D900DBE0D900EBEFF91EF91DF91F6
:101AD000CF91BF91AF919F918F917F916F915F91C6
:101AE0004F913F912F911F910F91FF90EF90DF90B9
:101AF000CF90BF90AF909F908F907F906F905F90AE
:101B00004F903F902F901F900F900FBE0F90089511
:101B10000F920FB6F8940F921F9211242F923F92BA
:101B20004F925F926F927F928F929F92AF92BF92ED
:101B3000CF92DF92EF92FF920F931F932F933F93D9
:101B40004F935F936F937F938F939F93AF93BF93C5
:101B5000CF93DF93EF93FF93A091AC22B091AD228E
:101B60000DB60D920EB60D9248D48111B4D5A09148
:101B7000AC22B091AD220D900DBE0D900EBEFF9126
:101B8000EF91DF91CF91BF91AF919F918F917F9115
:101B90006F915F914F913F912F911F910F91FF9006
:101BA000EF90DF90CF90BF90AF909F908F907F90FD
:101BB0006F905F904F903F902F901F900F900FBEAF
:101BC0000F901895CF93DF93EC0107D4CE010E94BC
:101BD000E819EC01E7D4CE01DF91CF910895CF93BE
:101BE000DF93EC01009729F0F8D3CE010E94801A10
:101BF000D9D4DF91CF9108951F93CF93DF93EC0158
:101C0000142F8C8D8823E9F1411117C0482F50E023
:101C10008C819D810E940F1B2C8D8C819D81820F58
:101C2000911D8C839D832A813B818217930748F104
:101C3000888199818C839D8324C0482F50E08E81B8
:101C40009F810E940F1B2C8D30E031952195310929
:101C50008E819F81820F931F8E839F8368817981FC
:101C60008617970730F48A819B81280F391F2E83AE
:101C70003F83123031F48A8D882319F08A8D815088
:101C80008A8F8A8D8F5F8A8F80E0DF91CF911F913D
:101C90000895FC01CB01448D4423A1F050E026813E
:101CA0003781240F351F268337836281738126177E
:101CB000370720F020813181268337836681778141
:101CC0000C940F1B08950F931F93CF93DF93EC0198
:101CD0000FB6F8940F928E8D1816A4F48989882374
:101CE00089F08E010F5E1F4F03C08989882351F050
:101CF000C80183D5811104D68E8D81508E8F8E8D33
:101D000018169CF38FEF8E8F0F900FBE0FB6F894BE
:101D10000F928D8D1816A4F48885882389F08E0182
:101D2000085F1F4F03C08885882351F0C80165D51F
:101D30008111E6D58D8D81508D8F8D8D18169CF378
:101D40008FEF8D8F0F900FBEDF91CF911F910F916D
:101D50000895CF93DF93EC010FB6F8940F9288812A
:101D600099812C8D30E07B8D729FA001739F500D67
:101D70001124FC01E40FF51FEA83FB831A8E8C8388
:101D80009D83421B530B840F951F8E839F838FEF80
:101D90008D8F8E8F61110AC08885882369F0CE01EE
:101DA00008962BD5813041F45BDE06C0CE01089643
:101DB00012DDCE0141960FDD0F900FBE81E0DF9165
:101DC000CF9108950F931F93CF93DF93082F162F72
:101DD0006623B9F0869FC00111248096F3DEEC01E2
:101DE000009721F414C0C883D98305C09C01215EEB
:101DF0003F4F288339830B8F1C8F61E0CE01A9DF11
:101E000006C08FE190E0DEDEEC01009761F7CE01C5
:101E1000DF91CF911F910F910895AF92BF92CF9212
:101E2000DF92EF92FF920F931F93CF93DF93CDB783
:101E3000DEB72597CDBFDEBF8C016B014C835D8380
:101E4000A22EB12C7C0188E0E80EF11C0FB6F894AC
:101E50000F92F801928D838D981718F0F2E0AF126F
:101E600015C04A2DB601C801C7DEF8019189992332
:101E700039F0C8014196C1D4813021F4F1DD02C0AE
:101E80008111EEDD0F900FBE81E047C0EC81FD8136
:101E9000EF2B21F40F900FBE80E03FC0B11005C0C2
:101EA000CE010196F0D4BB24B3940F900FBE95D20F
:101EB0000FB6F8940F92F801858D8F3F09F4158EB7
:101EC000F801868D8F3F09F4168E0F900FBEBE016C
:101ED0006C5F7F4FCE010196E1D481111AC00FB61D
:101EE000F8940F92F801928D0F900FBEF801838D38
:101EF00098130BC06C817D81C7014BD4C801E3DE10
:101F000051D38111A3CFACDDA1CFC801DCDE4AD310
:101F10009DCFC801D8DE46D380E02596CDBFDEBF79
:101F2000DF91CF911F910F91FF90EF90DF90CF90B5
:101F3000BF90AF9008950F931F93CF93DF93EC0161
:101F40008A019A8D8B8D981710F02230D1F4422F90
:101F5000CE0152DE8E8D8F3F79F48989882399F0E6
:101F6000CE0141964AD4882381F00115110579F0FC
:101F700081E0F80180830CC08E8D8F5F8E8F81E0B1
:101F800007C080E005C081E003C081E001C081E0BE
:101F9000DF91CF911F910F910895AF92BF92CF9291
:101FA000DF92EF92FF920F931F93CF93DF93CDB702
:101FB000DEB72597CDBFDEBF8C016B014C835D83FF
:101FC000B22EA12C7C0181E1E80EF11C0FB6F89431
:101FD0000F92F801828D882321F1E680F780B60107
:101FE000C80157DEB1100EC0F801828D8150828F7A
:101FF0008085882391F0C8010896FFD3813069F469
:102000002FDD0BC0F801E682F7828189882329F051
:10201000C8014196F2D3811123DD0F900FBE81E0FC
:1020200045C04C815D81452B21F40F900FBE80E0AF
:102030003DC0A11005C0CE01019625D4AA24A394C9
:102040000F900FBECAD10FB6F8940F92F801858D8C
:102050008F3F09F4158EF801868D8F3F09F4168E97
:102060000F900FBEBE016C5F7F4FCE01019616D45C
:10207000811118C00FB6F8940F92F801828D0F905D
:102080000FBE81110BC06C817D81C70182D3C80155
:102090001ADE88D281119ACFE3DC98CFC80113DE13
:1020A00081D294CFC8010FDE7DD280E02596CDBFCE
:1020B000DEBFDF91CF911F910F91FF90EF90DF90E6
:1020C000CF90BF90AF900895CF93DF93EC010FB600
:1020D000F8940F928D8D8F3F09F41D8E8E8D8F3F5A
:1020E00009F41E8E0F900FBE8A8D811103C0CE01A0
:1020F000419669D3CE01E7DDDF91CF910895CFE717
:10210000D2E28881823008F4FFCFAADCFACFCF93E5
:10211000DF93EC01E091AC22F091AD2282839383B6
:1021200080915D2290915E22C817D90760F460917A
:10213000AC227091AD228091692290916A226E5FEB
:102140007F4F7CDB16C06091AC227091AD228091F4
:102150006B2290916C226E5F7F4F70DB80915522D5
:1021600090915622C817D90720F4C0935522D093D6
:102170005622DF91CF9108954F925F926F927F9296
:102180008F929F92AF92BF92CF92DF92EF92FF9287
:102190000F931F93CF93DF934C015B012A01390109
:1021A000C114D10431F4CA010DDD6C01009709F4AA
:1021B000CFC086E290E006DDEC01009771F0CF8A97
:1021C000D88E81E0481A5108C40CD51CD5018C91D9
:1021D000898F8C91811104C014C0C60100DDB8C084
:1021E000AE01465E5F4FF501319627E0CF01319198
:1021F000DA013D93AD01DC018C91882311F021506F
:10220000A9F718A2102F053008F014E01E8B5E010C
:10221000B2E0AB0EB11CC501ECDACE010C96E9DAE6
:10222000C887D98785E090E0811B91098C879D87BD
:10223000CA8BDB8B19A21AA21BA21CA21DA2A3018E
:10224000B401C60152DB88839983E114F10419F0CB
:10225000F701C083D1830FB6F8940F9280915F226B
:102260008F5F80935F228091AC229091AD22892B69
:1022700091F5C093AC22D093AD2280915F22813042
:10228000C9F50F2EFFE7EF2EF2E2FF2EF02D0F2EF5
:10229000FCEACF2EF2E2DF2EF02DC7019CDAF9E046
:1022A000EF0EF11CEC14FD04C1F786E792E293DA1D
:1022B0008DE692E290DA80E692E28DDA86E792E2AB
:1022C00080936B2290936C228DE692E28093692238
:1022D00090936A220FC080915B2281110BC0E09124
:1022E000AC22F091AD228689081720F0C093AC2271
:1022F000D093AD22809157228F5F809357228E8991
:1023000090915C22981710F480935C2290E09C01DD
:10231000220F331F220F331F220F331F820F931FF1
:10232000B50181589D4D69DA0F900FBE80915B22F7
:10233000882351F0E091AC22F091AD22868980177C
:1023400028F48EDB81E005C081E003C081E001C09C
:102350008FEFDF91CF911F910F91FF90EF90DF9062
:10236000CF90BF90AF909F908F907F906F905F9035
:102370004F900895AF92BF92CF92DF92EF92FF926B
:102380000F93A12CB12CC12CD12CE12CF12C00E00D
:1023900020E030E045E550E06DE070E28FE790E14D
:1023A000EBDE813091F415D3813079F4F8948FEF1E
:1023B0009FEF809355229093562281E080935B2279
:1023C00010925D2210925E2207DB0F91FF90EF903A
:1023D000DF90CF90BF90AF900895809154228F5F8F
:1023E0008093542208950FB6F8940F9280915D2245
:1023F00090915E220F900FBE0895DF92EF92FF92B0
:102400000F931F93CF93DF93809154228111B2C019
:1024100080915D2290915E22019680935D2290933F
:102420005E22E0905D22F0905E22E114F10499F5C5
:1024300080916B2290916C222091692230916A22C6
:1024400020936B2230936C228093692290936A22AE
:10245000809158228F5F80935822E0916B22F091F7
:102460006C228081811107C08FEF9FEF80935522EE
:102470009093562210C0E0916B22F0916C2205805F
:10248000F681E02D0680F781E02D82819381809393
:102490005522909356228091552290915622E8160B
:1024A000F90608F450C0D12C02C0DD24D394E09189
:1024B0006B22F0916C228081811107C08FEF9FEF1A
:1024C00080935522909356223FC0E0916B22F09169
:1024D0006C220580F681E02DC681D7812A813B815F
:1024E000E216F30628F420935522309356222CC08E
:1024F0008E010E5F1F4FC801D2D98C899D89892B0F
:1025000019F0CE010C96CBD92E8980915C228217CE
:1025100010F420935C2230E0C901880F991F880FC6
:10252000991F880F991F820F931FB80181589D4DE5
:1025300064D9E091AC22F091AD229E8986899817EA
:1025400008F0B3CFB4CFD12CE091AC22F091AD2202
:10255000868990E0FC01EE0FFF1FEE0FFF1FEE0FCC
:10256000FF1F8E0F9F1FFC01E158FD4D80818230BF
:1025700040F409C080915A228F5F80935A22D12C57
:1025800002C0DD24D39480915922882311F0DD24E8
:10259000D3948D2DDF91CF911F910F91FF90EF90EC
:1025A000DF900895DF92EF92FF920F931F93CF93E6
:1025B000DF930FB6F8940F9280915422815080934C
:1025C00054228091542281115CC080915F22882323
:1025D00009F459C00F2EF0E6EF2EF2E2FF2EF02D97
:1025E000DD24D3942DC0E0916522F0916622C6814E
:1025F000D781CE010C9653D98E010E5F1F4FC801B3
:102600004ED98E8990915C22981710F480935C22A9
:1026100090E09C01220F331F220F331F220F331F24
:10262000820F931FB80181589D4DE7D8E091AC22ED
:10263000F091AD229E898689981710F0D092592288
:10264000F70180818111CFCF80915A22882391F0A8
:1026500080915A22882371F0C1E0CFDE8111C093AE
:10266000592280915A22815080935A2280915A2275
:102670008111F3CF80915922813039F4F1D981E071
:1026800005C080E003C080E001C080E00F900FBE75
:10269000DF91CF911F910F91FF90EF90DF90089500
:1026A000CF93DF93EC01009791F097DE80915D224C
:1026B00090915E22C80FD91F8091AC229091AD22DB
:1026C0000296EDD8CE0123DD6DDF811101C0C8D99E
:1026D000DF91CF91089580915422882321F081E0E9
:1026E0008093592208951092592280915C2290E0A3
:1026F000FC01EE0FFF1FEE0FFF1FEE0FFF1F8E0FEF
:102700009F1FFC01E158FD4D8081811117C0809110
:102710005C22815080935C2280915C2290E0FC01DD
:10272000EE0FFF1FEE0FFF1FEE0FFF1F8E0F9F1FFD
:10273000FC01E158FD4D8081882349F3E0915C2242
:10274000F0E0CF01880F991F880F991F880F991FFC
:10275000E80FF91FE158FD4DA181B28112960D904D
:10276000BC91A02DA183B283CF010396A817B9070E
:1027700031F412968D919C911397818392830180FD
:10278000F281E02D868197818093AC229093AD22D7
:102790000895CF93DF93EB016091AC227091AD224D
:1027A000645F7F4F4BD88091AC229091AD2202960E
:1027B00076D880915D2290915E228C0F9D1FA7DCC0
:1027C000DF91CF910895CF93DF93EB016091AC221D
:1027D0007091AD22645F7F4F10D88091AC229091B0
:1027E000AD2202965CD880915D2290915E228C0F82
:1027F0009D1F8DDCDF91CF9108950F931F93CF9391
:10280000DF93DC011596ED91FC911697C681D78177
:102810008E01045F1F4FC80142D88091542281115C
:102820001BC00A501109C8013AD88E8990915C22C8
:10283000981710F480935C2290E09C01220F331FC4
:10284000220F331F220F331F820F931FB8018158AD
:102850009D4D0E94FD0B05C0B80180E692E20E94EA
:10286000FD0BE091AC22F091AD229E8986898917FB
:1028700020F481E08093592201C080E0DF91CF9164
:102880001F910F91089520915822FC0120832091DF
:102890005D2230915E222183328308950FB6F89431
:1028A0000F9220915D2230915E2240915822DC01EE
:1028B0005C91541739F011964D915C911297241741
:1028C0003507C0F4DC011196ED91FC911297DB0104
:1028D0004D915C91D901AE1BBF0BA417B50760F4F5
:1028E000E21BF30B4E0F5F1FFB0140835183CBDFD5
:1028F00080E003C081E001C081E00F900FBE089529
:1029000081E080935922089580915B22882331F0E1
:1029100080915422811104C082E0089581E00895DD
:1029200080E00895FC016283738380879187461756
:10293000570790F0421B530B84859585481759071C
:10294000E0F4BF016E5F7F4F8091B2229091B3227D
:102950000E941E0C80E008954217530718F4621776
:10296000730768F4BF016E5F7F4F8091B42290912E
:10297000B5220E941E0C80E0089581E0089581E058
:1029800008950FB6F8940F928091B0229091B122E1
:10299000892BE1F48FEB92E20E94EB0B86EB92E243
:1029A0000E94EB0B8FEB92E28093B4229093B522BE
:1029B00086EB92E28093B2229093B32240E065E0EE
:1029C0008AE000DA8093B0229093B1220F900FBE7C
:1029D0000895AF92BF92CF92DF92EF92FF920F9342
:1029E000D0DF8091B0229091B122892B89F0A12C67
:1029F000B12CC12CD12CE12CF12C03E020E030E0F3
:102A000045E550E062E170E287EF95E1B5DB01C09A
:102A100080E00F91FF90EF90DF90CF90BF90AF904C
:102A200008959F92AF92BF92CF92DF92EF92FF9262
:102A30000F931F93CF93DF935C017B01942E690169
:102A400061157105A9F083E190E0BCD8EC01009715
:102A500089F097DFA882B982EC86FD869E86CF86B4
:102A6000D88A098B1A8BCE0102960E94F90B02C0FC
:102A7000C0E0D0E0CE01DF91CF911F910F91FF9088
:102A8000EF90DF90CF90BF90AF909F9008950F93FD
:102A90001F93CF93DF93CDB7DEB72597CDBFDEBFB2
:102AA000D901E091B022F091B122309749F16983C8
:102AB0004A835B838C839D836630D4F425DF823028
:102AC00059F420E0A801BE016F5F7F4F8091B022D2
:102AD0009091B122A2D915C020E040E050E0BE01A3
:102AE0006F5F7F4F8091B0229091B12296D909C03B
:102AF00020E0AD01BE016F5F7F4FCF011CDA01C046
:102B000080E02596CDBFDEBFDF91CF911F910F9161
:102B10000895AF92BF92CF92DF92EF92FF920F9300
:102B20001F93CF93DF936C015EDC7C018091AE221A
:102B30009091AF22E816F90608F047C02FC0058033
:102B4000F681E02DA080B180C681D7818E010E5F15
:102B50001F4FC8010E944F0CE989FA89CE011995CF
:102B60008E858130D9F48C859D858A0D9B1DA81694
:102B7000B90660F48A839B83C887D987B80180919E
:102B8000B4229091B5220E941E0C08C000E010E013
:102B900020E030E0A50160E0CE0179DFE091B422D1
:102BA000F091B52280818111CACF8091B22290919B
:102BB000B3228093B4229093B522E093B222F09393
:102BC000B32281E0F601808302C0F6011082E09218
:102BD000AE22F092AF22C701DF91CF911F910F91EA
:102BE000FF90EF90DF90CF90BF90AF900895CF937C
:102BF000DF9300D000D0CDB7DEB7CE0101966C01D7
:102C0000A82EBD2CE091B422F091B52280818823BA
:102C100009F4C1C00580F681E02DE080F180DDDBA4
:102C2000C60177DF8C01898181114EC00E151F0509
:102C300008F43BC0B7DCE091B422F091B5220580E6
:102C4000F681E02D86809780C40102960E944F0C89
:102C5000D4011E968C911E978130A1F41C966D9123
:102C60007C911D976E0D7F1D9701A801C4015ADE4E
:102C7000813041F400E010E020E030E0A70160E0A6
:102C8000C40105DFD4015196ED91FC915297C40126
:102C9000199574C0E091B222F091B32241E0808195
:102CA000811140E0E12CF12C01C040E0B701601B34
:102CB000710B8091B0229091B12206DA73DC811100
:102CC0005DC00E94300D5AC06DDC58C089818823D8
:102CD0000CF454C0EC80FD80F70182859385892B2C
:102CE00021F0C70102960E944F0CCE01069611DF1B
:102CF0000981112707FD1095212F312F0A30110569
:102D000008F03CC0F801E250FF4F5CC32A813B81D0
:102D1000D7011C966D917C911D97620F731FAC01BA
:102D2000C70100DE813051F5D7015196ED91FC913C
:102D30005297C7011995F70186858130F9F44485CA
:102D400055858A819B81480F591F00E010E020E0E3
:102D500030E060E0C7019BDE11C06A817B81D70152
:102D60001C966D937C931D97680F791F9C01AC0195
:102D7000C701D8DD03C0C7010E94EF0D20E040E08D
:102D800050E06A2D7B2D8091B0229091B12205D91F
:102D900081119CCF37CF21DBC601BBDE8C0189813D
:102DA000882309F477CF90CFCF93DF93FC017096FF
:102DB00020E030E0C62FD0E0DE01022E02C0B59543
:102DC000A7950A94E2F7A0FD50832F5F3F4F3196FD
:102DD0002830310589F740FF0AC041FF03C0FC01DC
:102DE000658302C0FC016683FC01618302C0FC01B3
:102DF0006283DF91CF91089543E050E061E080EE7F
:102E000097E0D2DF43E050E062E080EE97E0CCDF75
:102E100043E050E060E180E696E0C6DF41E050E448
:102E200060E280E696E0C0DF40E05BE160E280E8DF
:102E300096E0BADF40E05BE162E080EA96E0B4DF72
:102E400040E05BE164E080EA96E0AEDF43E050E022
:102E500062E080E696E0A8DF43E050E068E080E6CC
:102E600096E0A2DF43E050E068E080EA96E09CDF75
:102E700043E050E061E080E696E096DF43E050E01A
:102E800068E080E096E090DF41E050E060E180E8BB
:102E900096E08ADF43E050E062E080E696E084DF7F
:102EA00043E050E068E080E696E07EDF40E050E0FE
:102EB00064E080E696E078DF43E050E060E180EA9D
:102EC00096E072DF40E050E061E080E096E06CDF89
:102ED00040E050E064E080E096E066DF40E050E0F3
:102EE00062E080E296E060DF43E050E068E080E48A
:102EF00096E05ADF40E050E064E080E496E054DF82
:102F000043E050E068E080E696E04EDF40E050E0CD
:102F100064E080E696E048DF43E050E068E080E867
:102F200096E042DF40E050E064E080E896E03CCF8D
:102F300008958091912390919223A0919323B09131
:102F400094230196A11DB11D809391239093922308
:102F5000A0939323B09394230895C0EED7E011E09B
:102F6000012F0E8382E390E09BDB1D8382E390E0E0
:102F700097DBF7CFC0E0D2E06894FF24F2F800E3DB
:102F800012E0CE010E945F078FB7F894988190619C
:102F900098838FBF8E8182FFFDCFFE82F8018481EE
:102FA0009581809395239093962385E090E078DB3C
:102FB000E8CFC0E0D2E06894FF24F1F808E212E024
:102FC000CE010E945F078FB7F8949881986098832C
:102FD0008FBF8E8181FFFDCFFE82F80184819581B4
:102FE000809397239093982385E090E059DBE8CF76
:102FF000C0E0D2E011E0CE010E945F078FB7F894E5
:103000009881946098838FBF8E8180FFFDCF1E834F
:103010008CA19DA18093992390939A2385E090E0C1
:103020003FDBE9CF80E1E0E8F6E085830F2EFAE1AF
:10303000CF2EF0E2DF2EF02D0F2EF9ECBF2EF02D6B
:10304000C8ECD2E20F2EFBE2EF2EF0E2FF2EF02DC5
:103050000BE310E280919A238F93809199238F93B1
:10306000DF92CF921F92BF92DF93CF93E1D226E0FF
:1030700030E240E060E0CE010E9485068091982316
:103080008F93809197238F93FF92EF921F92BF921D
:10309000DF93CF93CDD226E030E24AE060E0CE016C
:1030A0000E948506809196238F93809195238F931C
:1030B0001F930F931F92BF92DF93CF93B9D226E055
:1030C00030E244E160E0CE010E94850682E090E0BB
:1030D000E7DA8DB79EB748968DBF9EBFBBCFE0E4C1
:1030E000F6E0808181608083E0E0F8E085E0808325
:1030F00086E1818388EE93E086A397A387E791E03A
:1031000080A791A70895EBDFE0EAF6E0C0E0D8E001
:103110004EE551E0A0E6B6E010E270E121E030E0DB
:1031200082E890E0608561FD0CC0608562FF09C0A7
:1031300088A799A716967C93169715961C931597B2
:10314000F1CF608562FD0CC0608561FF09C028A7D2
:1031500039A716961C93169715967C931597E2CF70
:10316000608561FFDFCF608562FFDCCF48A759A78C
:1031700015961C93159715967C931597D3CF8F9220
:103180009F92AF92BF92CF92DF92EF92FF920F93F6
:103190001F93CF93DF93CDB7DEB72B97CDBFDEBFA5
:1031A0002BDE87E0E0EAF0E08283BE016F5F7F4FB5
:1031B00080E092E00E945709AE01485F5F4F61E0F6
:1031C00080E092E00E94B3098A819B819F789061A0
:1031D0009B83817E8A831C8202E00D8311E0188725
:1031E0001986BE016F5F7F4F80E092E00E94060962
:1031F000AE01485F5F4F61E080E092E00E947A0993
:10320000BE016F5F7F4F80E092E00E945709AE01E0
:10321000485F5F4F62E080E092E00E94B3098A81DC
:103220009B819F7890619B83817E8A831C820D8322
:10323000188788E08987BE016F5F7F4F80E092E04A
:103240000E940609AE01485F5F4F62E080E092E0B5
:103250000E947A09BE016F5F7F4F80E092E00E947A
:103260005709AE01485F5F4F64E080E092E00E9442
:10327000B3098A819B819F7890619B83817E8A8339
:103280001C820D83188780E18987BE016F5F7F4FA5
:1032900080E092E00E940609AE01485F5F4F64E063
:1032A00080E092E00E947A090E94F80409E917E19F
:1032B00020E030E041E061E070E08AE490E2B1DBE0
:1032C0004C01A12CB12CC12CD12CE12CF12C01E012
:1032D00020E030E044EF51E061E170E28DEA97E1F7
:1032E0000E94BC1020E030E044EF51E061E170E268
:1032F00082E198E10E94BC1020E030E044EF51E010
:1033000061E170E288EF97E10E94BC1020E030E0BC
:1033100044EF51E061E170E289ED97E10E94BC1059
:1033200020E030E044EF51E061E170E283E898E1B1
:103330000E94BC1020E030E044EF51E061E170E217
:103340008AEB97E10E94BC104ED800E010E020E02C
:1033500030E0AC0161E0C4019ADB0CD880E090E081
:103360002B96CDBFDEBFDF91CF911F910F91FF90C4
:10337000EF90DF90CF90BF90AF909F908F90089587
:10338000A1E21A2EAA1BBB1BFD010DC0AA1FBB1F69
:10339000EE1FFF1FA217B307E407F50720F0A21BDB
:1033A000B30BE40BF50B661F771F881F991F1A9448
:1033B00069F760957095809590959B01AC01BD0172
:1033C000CF010895EE0FFF1F0590F491E02D1994A1
:1033D000CF93DF938230910510F482E090E0E0918A
:1033E000A723F091A82320E030E0A0E0B0E03097E0
:1033F00039F14081518148175907B8F048175907EA
:1034000071F482819381109729F012968D939C9389
:1034100013972CC08093A7239093A82327C021152E
:10342000310531F04217530718F0A901DB0101C043
:10343000EF019A01BD01DF010280F381E02DD7CFBA
:1034400021153105F9F0281B390B2430310580F4A2
:103450008A819B816115710521F0FB018283938331
:1034600004C08093A7239093A823FE01329644C002
:10347000FE01E20FF31F81939193225031092883BB
:1034800039833AC02091A5233091A623232B41F400
:1034900020910220309103202093A5233093A6236E
:1034A00020910020309101202115310541F42DB7E4
:1034B0003EB74091042050910520241B350BE0912C
:1034C000A523F091A623E217F307A0F42E1B3F0BD0
:1034D0002817390778F0AC014E5F5F4F2417350786
:1034E00048F04E0F5F1F4093A5235093A62381936E
:1034F000919302C0E0E0F0E0CF01DF91CF91089519
:10350000CF93DF93009709F487C0FC0132971282B2
:103510001382C091A723D091A823209781F4208102
:103520003181280F391F8091A5239091A6238217FE
:10353000930779F5E093A523F093A6236DC0DE01F0
:1035400020E030E0AE17BF0750F412964D915C9129
:1035500013979D014115510509F1DA01F3CFA283BB
:10356000B38340815181840F951F8A179B0771F4A3
:103570008D919C911197840F951F02968083918362
:1035800012968D919C911397828393832115310517
:1035900029F4E093A723F093A8233EC0D901129603
:1035A000ED93FC9313974D915D91A40FB51FEA170E
:1035B000FB0779F480819181840F951F0296D901D0
:1035C0008D939C9311978281938112968D939C93F6
:1035D0001397E0E0F0E08A819B81009719F0FE01EB
:1035E000EC01F9CFCE01029628813981820F931F19
:1035F0002091A5233091A6232817390769F4309725
:1036000029F41092A7231092A82302C012821382D9
:10361000C093A523D093A623DF91CF910895FB01FA
:10362000DC0102C001900D9241505040D8F708953E
:103630000F931F93CF93DF93CDB7DEB72E97CDBFF8
:10364000DEBF0E891F89888D998D26E02C83098322
:103650001A8397FF02C080E090E801978D839E83D4
:10366000AE01445E5F4F6A8D7B8DCE01019616D010
:103670004D815E8157FD0AC02F813885421753075F
:103680000CF49A01F801E20FF31F10822E96CDBFC1
:10369000DEBFDF91CF911F910F9108952F923F923E
:1036A0004F925F926F927F928F929F92AF92BF9252
:1036B000CF92DF92EF92FF920F931F93CF93DF93FE
:1036C000CDB7DEB72C97CDBFDEBF7C016B018A0181
:1036D000FC0116821782838181FFB0C1CE01019661
:1036E0004C01F7019381F60193FD859193FF819140
:1036F0006F01882309F49EC1853239F493FD8591C9
:1037000093FF81916F01853221F4B70190E0C4D11C
:10371000E8CF512C312C20E02032A0F48B3269F01C
:1037200030F4803259F0833269F420612CC08D323C
:1037300039F0803339F4216026C02260246023C030
:10374000286021C027FD27C030ED380F3A3078F4CB
:1037500026FF06C0FAE05F9E300D1124532E13C0E1
:103760008AE0389E300D1124332E20620CC08E3238
:1037700021F426FD5FC1206406C08C3611F4206858
:1037800002C0883641F4F60193FD859193FF819143
:103790006F018111C1CF982F9F7D9554933028F4EC
:1037A0000C5F1F4FFFE3F9830DC0833631F0833781
:1037B00071F0833509F057C021C0F80180818983F9
:1037C0000E5F1F4F44244394512C540114C0380100
:1037D000F2E06F0E711CF801A080B18026FF03C0DB
:1037E000652D70E002C06FEF7FEFC5012C8749D1D6
:1037F0002C0183012C852F77222E16C03801F2E090
:103800006F0E711CF801A080B18026FF03C0652DEA
:1038100070E002C06FEF7FEFC5012C8727D12C012C
:103820002C852068222E830123FC19C0832D90E073
:1038300048165906A0F4B70180E290E02DD13A94E1
:10384000F5CFF50127FC859127FE81915F01B70136
:1038500090E022D131103A94F1E04F1A510841140E
:10386000510479F7DEC0843611F0893631F5F8015C
:1038700027FF07C060817181828193810C5F1F4F98
:1038800008C060817181882777FD8095982F0E5F31
:103890001F4F2F76B22E97FF09C090958095709597
:1038A00061957F4F8F4F9F4F2068B22E2AE030E006
:1038B000A40124D1A82EA81843C0853729F42F7E4F
:1038C000B22E2AE030E025C0F22FF97FBF2E8F36CE
:1038D000C1F018F4883579F0ADC0803719F0883719
:1038E00021F0A8C02F2F2061B22EB4FE0DC08B2D69
:1038F0008460B82E09C024FF0AC09F2F9660B92E9D
:1039000006C028E030E005C020E130E002C020E140
:1039100032E0F801B7FE07C0608171818281938136
:103920000C5F1F4F06C06081718180E090E00E5FE8
:103930001F4FA401E3D0A82EA818FB2DFF77BF2EA0
:10394000B6FE0BC02B2D2E7FA51450F4B4FE0AC07A
:10395000B2FC08C02B2D2E7E05C07A2C2B2D03C067
:103960007A2C01C0752C24FF0DC0FE01EA0DF11D5B
:103970008081803311F4297E09C022FF06C0739430
:10398000739404C0822F867809F0739423FD12C0CB
:1039900020FF06C05A2C731418F4530C5718732CBC
:1039A000731460F4B70180E290E02C8775D07394B3
:1039B0002C85F6CF731410F4371801C0312C24FF76
:1039C00011C0B70180E390E02C8766D02C8522FFE0
:1039D00016C021FF03C088E590E002C088E790E0B0
:1039E000B7010CC0822F867851F021FD02C080E221
:1039F00001C08BE227FD8DE2B70190E04DD0A51408
:103A000030F4B70180E390E047D05A94F8CFAA94FD
:103A1000F401EA0DF11D8081B70190E03DD0A110C5
:103A2000F6CF332009F45DCEB70180E290E034D0C8
:103A30003A94F7CFF7018681978102C08FEF9FEF0D
:103A40002C96CDBFDEBFDF91CF911F910F91FF90DC
:103A5000EF90DF90CF90BF90AF909F908F907F902E
:103A60006F905F904F903F902F900895FC010590CC
:103A7000615070400110D8F7809590958E0F9F1F70
:103A80000895FC016150704001900110D8F78095B5
:103A900090958E0F9F1F08950F931F93CF93DF93E1
:103AA000182F092FEB018B8181FD03C08FEF9FEF52
:103AB00020C082FF10C04E815F812C813D81421762
:103AC00053077CF4E881F9819F012F5F3F4F2883E2
:103AD0003983108306C0E885F985812F1995892BD4
:103AE00029F72E813F812F5F3F4F2E833F83812F08
:103AF000902FDF91CF911F910F910895FA01AA277E
:103B0000283051F1203181F1E8946F936E7F6E5F20
:103B10007F4F8F4F9F4FAF4FB1E03ED0B4E03CD0CE
:103B2000670F781F891F9A1FA11D680F791F8A1FB1
:103B3000911DA11D6A0F711D811D911DA11D20D018
:103B400009F468943F912AE0269F11243019305DD2
:103B50003193DEF6CF010895462F4770405D4193C3
:103B6000B3E00FD0C9F7F6CF462F4F70405D4A3310
:103B700018F0495D31FD4052419302D0A9F7EACFD8
:103B8000B4E0A6959795879577956795BA95C9F707
:103B900000976105710508959B01AC010A2E0694FA
:103BA0005795479537952795BA95C9F7620F731FB3
:0C3BB000841F951FA01D0895F894FFCFFE
:103BBC000000A92320000010020607207D49444C78
:103BCC004500546D72205376630052656164204C3D
:103BDC0069676874203A202533640052656164205B
:103BEC0054656D70203A2025336400526561642061
:103BFC00506F74203A20253364007450696E67004E
:00000001FF
