:1000000046C2000065C2000063C2000061C2000079
:100010005FC200005DC200005BC2000059C2000068
:1000200057C2000055C2000053C2000051C2000078
:100030004FC200004DC200000C946E1449C2000073
:1000400047C2000045C2000043C2000041C2000098
:100050003FC200003DC200003BC2000039C20000A8
:1000600037C2000035C2000033C2000031C20000B8
:100070002FC200002DC200002BC2000029C20000C8
:1000800027C2000025C2000023C2000021C20000D8
:100090001FC200001DC200001BC200000C94110C06
:1000A0000C94430C0C94750C0C94A70C11C200001A
:1000B0000FC200000DC200000BC2000009C2000008
:1000C00007C2000005C2000003C2000001C2000018
:1000D000FFC10000FDC10000FBC10000F9C100002C
:1000E000F7C10000F5C10000F3C10000F1C100003C
:1000F000EFC10000EDC10000EBC10000E9C100004C
:10010000E7C10000E5C10000E3C10000E1C100005B
:10011000DFC10000DDC10000DBC100000C94490B11
:100120000C947B0B0C94AD0B0C94DF0BD1C1000035
:10013000CFC10000CDC10000CBC10000C9C100008B
:10014000C7C10000C5C10000C3C10000C1C100009B
:10015000BFC10000BDC10000BBC10000B9C10000AB
:10016000B7C10000B5C10000B3C10000B1C10000BB
:10017000AFC10000ADC10000ABC10000A9C10000CB
:10018000A7C10000A5C10000A3C10000A1C10000DB
:100190009FC100009DC100009BC1000099C10000EB
:1001A00097C1000095C1000093C1000091C10000FB
:1001B0008FC100008DC100008BC1000089C100000B
:1001C00087C1000085C1000083C1000081C100001B
:1001D0007FC100007DC100007BC1000079C100002B
:1001E00077C1000075C1000073C1000071C100003B
:1001F0006FC100006DC100006BC100000000000075
:10020000000000202020202000205050500000003E
:10021000005050F850F850502078A07028F020C0BE
:10022000C810204098186090A040A89068602040B6
:10023000000000001020404040201040201010100E
:100240002040005020F8205000002020F8202000FE
:1002500000000000602040000000F80000000000E6
:10026000000000606000081020408000708898A89E
:10027000C8887020602020202070708808102040DE
:10028000F8F810201008887010305090F81010F80E
:1002900080F008088870304080F0888870F8081076
:1002A00020404040708888708888707088887808FE
:1002B00010600060600060600000606000602040CE
:1002C000081020402010080000F800F800008040CE
:1002D0002010204080708808102000207088086856
:1002E000A8A87070888888F88888F08888F088883E
:1002F000F070888080808870E09088888890E0F82E
:100300008080F08080F8F88080E080808070888035
:1003100080988870888888F88888887020202020B5
:100320002070381010101090608890A0C0A09088A5
:10033000808080808080F888D8A88888888888888D
:10034000C8A898888870888888888870F08888F01D
:1003500080808070888888A89068F08888F0A09055
:1003600088788080700808F0F820202020202088DD
:1003700088888888887088888888885020888888B5
:10038000A8A8D8888888502050888888885020203D
:100390002020F80810204080F83820202020203825
:1003A00000804020100800E02020202020E0205085
:1003B0008800000000000000000000F8402010004D
:1003C000000000000070087888788080B0C88888B5
:1003D000F00000708080887008086898888878002D
:1003E000007088F88070304840E04040400000785D
:1003F000887808308080B0C88888882000602020F5
:1004000020701000301010906040404850605048FC
:10041000602020202020700000D0A8A8888800003C
:10042000B0C8888888000070888888700000F088CC
:10043000F08080000068987808080000B0C88080CC
:1004400080000070807008F04040E040404830007C
:100450000088888898680000888888502000008874
:1004600088A8A8500000885020508800008888780C
:1004700008700000F8102040F810202040202010C4
:100480002020202020202040202010202040112447
:100490001FBECFEFCDBFDFE5DEBF00E00CBF11E236
:1004A000A0E0B0E2E4EBF1E400E00BBF02C0079093
:1004B0000D92AE33B107D9F724E2AEE3B1E201C049
:1004C0001D92AC3BB207E1F70E941A1C0C94D82095
:1004D00097CD8093A2066093A2068093A5066093B1
:1004E000A6066093A10608953F936093A2068093A9
:1004F000A1068093A2066093A1063F918091A80671
:10050000842308958093A6068093A1060895A1E010
:10051000B0E0EDE8F2E00C94C21CE82F0FB70078D1
:10052000198280913F21813019F081E080933F2131
:10053000CE2EDD24F601EF57FE4DB080F601EB57CD
:10054000FE4DA080F894BB2009F4AAC08B2DDADF01
:100550008B2D6A2DBEDF1B2DEE24FF2460E0812C45
:1005600030E2932EF5FE07C0909182218091812187
:10057000982B19F535C08FB7802B8FBF0000F894EA
:100580008B2D6A2D412FB0DF682F0894E11CF11CE0
:10059000809100208F5F80930020823030F0823085
:1005A00021F0833011F0109200206623D9F22091BF
:1005B000822180918121282B15C0412F80E040FFAE
:1005C00009C0E82FF0E0EE0FFF1FE65BFE4D8082D2
:1005D000918201C090FD8F5F96954695992379F79A
:1005E00010E020E08FB7802B8FBF10924021222394
:1005F00009F43FC0112309F43CC030918621809159
:100600008521382B562F90E080E070E040E023C039
:1006100050FD17C019C030FF13C0981781F4E42FA4
:10062000F0E0EE0FFF1FE65BFE4DE082F182852FCA
:100630008E7F19F4892F71E008C0892F06C08F5F63
:100640003695332341F701C020FD9F5F20FD4F5FAA
:100650005695269511F05523D9F640934021609583
:100660001623713021F4112311F4EE24FF2460E0ED
:1006700013C08091822190918121892B898390E000
:1006800006C0898180FD9F5F8981869589838981E4
:100690008823B9F790934021F894112309F062CF91
:1006A00081E891E2C80ED91EF60180812BDF1092FD
:1006B0003E218FB7082B0FBF2196ECE00C94DB1C7A
:1006C000FC0180E290E0808391831282138280E4B7
:1006D00094E084839583089590917B21A92FB0E0C5
:1006E000FD01EE0FFF1FEA0FFB1FEE0FFF1FED597D
:1006F000FE4D4383677085832370660F660F660F18
:10070000262B24839F5F90937B2108951F93CF9383
:10071000DF93282FC82FD0E0FE01EE0FFF1FEC0F54
:10072000FD1FEE0FFF1FED59FE4D3581838190E0D7
:100730000090432102C0959587950A94E2F7182FFF
:10074000843008F414E080917B21281718F020E011
:1007500030E02DC0832F1DD19C01412F50E0169514
:100760001695812F90E0841B950B8217930764F4F4
:10077000FE01EE0FFF1FEC0FFD1FEE0FFF1FED59E7
:10078000FE4D84818B7F848388279927841B950B5A
:100790008217930764F0FE01EE0FFF1FEC0FFD1FA1
:1007A000EE0FFF1FED59FE4D848184608483C901E3
:1007B000DF91CF911F910895FF920F931F93CF93D5
:1007C000DF9310925B2110925C2120915F21309188
:1007D000602180935F21909360214091612150912D
:1007E0006221421B530B480F591FFF2403C0F3948F
:1007F000485C5040483C5105D0F7409361215093EC
:10080000622180917C21882341F08F1518F4109289
:100810007C2103C08F1980937C21C3D3E0915D219B
:10082000F0915E21309709F0199510E000E005C0C5
:10083000812F6F2DC3D0082B1F5F60917B2116176E
:10084000B8F3002349F080915B2190915C21916085
:1008500080935B2190935C2110925A21A3E6B1E230
:1008600030E041E050E017C08C91887191F0E32FA7
:10087000E695E695E695F0E0E65BFE4D832F877002
:10088000EA0102C0CC0FDD1F8A95E2F720892C2BEC
:10089000208B3F5F1696361738F380915B2190913D
:1008A0005C21CDB7DEB7E5E00C94E21C10927B2111
:1008B00084E08093442194E19093472185E08093E4
:1008C0004821109246219093452181E08093432155
:1008D00083E08093492154D310925D2110925E21D0
:1008E00008951F9310E003C0812F27D01F5F8091D0
:1008F0007B211817C8F31F910895EF92FF921F9361
:10090000CF93DF93EC017B0110E003C0812F15D062
:100910001F5F80917B211817C8F310925F211092FE
:100920006021C0934121D0934221C70124D3DF919C
:10093000CF911F91FF90EF90089590E0E3E6F1E2F0
:100940009C01220F331F280F391FD901AA0FBB1F8B
:10095000AE0FBF1F15964C91159780915B2190911A
:100960005C21826080935B2190935C212F5F3F4FDD
:10097000220F331FE20FF31F1082EDE7F1E2E40FC5
:10098000F11D80E8808381E08C938FE011968C9339
:10099000089590E0FC013496AAE4B1E2EE0FFF1F47
:1009A000EA0FFB1F880F991FA80FB91F2081318103
:1009B0008D919C91281B390BC9010895A0E0B0E0EE
:1009C000E4EEF4E00C94C01C782EF62E9FDE5C0161
:1009D000072D10E0F801EE0FFF1FE00FF11FEE0FE3
:1009E000FF1FED59FE4D54814381242F30E0852FA8
:1009F000837090E0019602C0359527958A95E2F7BD
:100A0000822F223008F482E0242F30E0B901681BE5
:100A10007109F801EE0FFF1FE00FF11FEF01CC0F7E
:100A2000DD1FCD59DE4D8881843009F4FBC085304F
:100A300030F4813071F0823009F096C26EC080319E
:100A400009F4A5C1803209F456C2883009F08CC27D
:100A500002C240915B2150915C21CA019260809357
:100A60005B2190935C218D816981A82FB0E06A3071
:100A700060F0AA0FBB1FFD01E65BFE4D80819181F6
:100A8000AE5ABE4D8D939C9318C0AA0FBB1FFD019B
:100A9000EE5AFE4D20813181A65BBE4D8D919C9119
:100AA0008217930718F42150304005C028173907E2
:100AB00050F42F5F3F4F2083318348605260409352
:100AC0005B2150935C21862F8150F801EE0FFF1FB0
:100AD000E00FF11FEF01CC0FDD1FCD59DE4D8983F3
:100AE0008823B1F4AD8182E0888380915B2190916D
:100AF0005C21826080935B2190935C21EE0FFF1F4D
:100B0000EB59FE4D1082B0E0A358BE4D80E88C93A7
:100B10008091452180937C2125C252FF08C0ED8140
:100B2000F0E0E358FE4D108280E288830CC2C501DC
:100B3000B7FE02C080E090E08217930780F0F801D2
:100B4000EE0FFF1FE00FF11FEE0FFF1FDF01AD598A
:100B5000BE4D84E08C93EB59FE4D1082FAC1FF200C
:100B600009F402C280917C21882309F0FDC1F801BB
:100B7000EE0FFF1FE00FF11FEE0FFF1FED59FE4DAF
:100B8000858190E0EC01CC0FDD1FCE5ADE4D28812F
:100B90003981FC01EE0FFF1FE65BFE4D0190F081F5
:100BA000E02D2E173F0788F4FC01E358FE4D90819D
:100BB0009F0D9083809148218058981708F4D4C1E4
:100BC00080E880832F5F3F4F14C0DC01A358BE4DE7
:100BD000E217F307D0F48C918F198C9340E8909131
:100BE0004721542F591B581708F4BEC14C9321506C
:100BF00030402883398380915B2190915C2188600B
:100C000080935B2190935C21AFC12C91213810F02F
:100C100021502C93FC01E358FE4D808187FDA4C137
:100C20008F5F67C1C501B7FE02C080E090E0F801A8
:100C3000EE0FFF1F8217930708F48FC080914521A4
:100C400080937C219F01200F311F220F331FD90178
:100C5000AB59BE4D8C918F5F8C93F901ED59FE4DD0
:100C6000848190E08873907023E0969587952A950B
:100C7000E1F7682E882309F43EC0CC24DD247F01EF
:100C800083E090E0E80EF91E4D012FC0D71461F10A
:100C90008D2D90E0EC01CC0FDD1FC80FD91FCC0FBC
:100CA000DD1FCD59DE4D8C8190E08873907073E02C
:100CB000969587957A95E1F76816B1F48D2D26DD26
:100CC0002B81821B9109F7012081A501421B51094B
:100CD000481759072CF08881803111F0883021F4B1
:100CE000F4011082CC24C394D39480917B21D81634
:100CF00068F2CC2079F480914421882359F08091C6
:100D00005B2190915C21986080935B2190935C21A2
:100D100041E001C040E09801220F331F200F311F36
:100D2000F901EE0FFF1FEB59FE4D90818091442198
:100D3000981708F41AC180915B2190915C2183601F
:100D400080935B2190935C21F901EE0FFF1FED5919
:100D5000FE4D80E18083118208C1E00FF11FEE0F8C
:100D6000FF1FDF01AD59BE4D15962C91159782E0FE
:100D70008C9380915B2190915C21826080935B21B8
:100D800090935C21EB59FE4D1082E22FAEC052FFD2
:100D90000EC0ED81F0E0E358FE4D80E8808380E2F4
:100DA000888380915B2190915C2190614AC0C5014C
:100DB000B7FE02C080E090E0F801EE0FFF1F409107
:100DC0005B2150915C218617970770F4E00FF11FAB
:100DD000EE0FFF1FED59FE4D88E080835460409375
:100DE0005B2150935C2131C0416040935B21509363
:100DF0005C21E00FF11FEE0FFF1FEB59FE4D9081BC
:100E000080914421981710F49F5F90839091462120
:100E1000992371F0F801EE0FFF1FE00FF11FEE0FA5
:100E2000FF1FED59FE4D8181891720F48F0D8183BD
:100E300040E00CC0872D81DD80915B2190915C2189
:100E4000926080935B2190935C2141E080914521E9
:100E500080937C218AC08091452180937C21DF0191
:100E6000AA0FBB1FAB59BE4D8C91882389F1C501D8
:100E7000B7FE02C080E090E040915B2150915C2180
:100E80006817790790F4F801EE0FFF1FE00FF11FCC
:100E9000EE0FFF1FED59FE4D80E1808341604093CE
:100EA0005B2150935C2140E006C0546040935B217D
:100EB00050935C2141E0F801EE0FFF1FE00FF11F9E
:100EC000EE0FFF1FEB59FE4D8081815080834DC096
:100ED000ED8182E0888380915B2190915C2182602A
:100EE00080935B2190935C211C92F0E0E358FE4DCF
:100EF00080E8808339C08D81A82FB0E0A358BE4D13
:100F00009C919F5F9C9352FD18C097FF03C080E1A6
:100F100088832AC082E0888380915B2190915C2144
:100F2000826080935B2190935C21EE0FFF1FEB5951
:100F3000FE4D108280E88C9317C08091492198174C
:100F400040F0872DFADC80915B2190915C219061CB
:100F500005C080915B2190915C21946080935B211E
:100F600090935C2141E001C040E0842FCDB7DEB713
:100F7000EEE00C94D91CFC01009709F01995089536
:100F80001092812110928221109285211092862147
:100F9000109283211092842110928721109288212F
:100FA00008958091832190918121892B41F0E091D6
:100FB0004121F0914221309711F080E01995809104
:100FC000842190918221892B41F0E0914121F0917F
:100FD0004221309711F081E019950895BF92CF9288
:100FE000DF92EF92FF920F931F93CF93DF931F92A5
:100FF000CDB7DEB788E0E0E0F6E0868385830F2E8C
:10100000FBE2BF2EF02DB98280EA99E00E94251103
:10101000C12CD12C760100E412E42FE030E043E053
:10102000BE016F5F7F4F80EA99E00E94541100E695
:1010300016E0FF24F394F801F682B982BE016F5FD7
:101040007F4F80EA99E00E946E11F801F682E0EA93
:10105000F9E0818185FFFDCF80EA8093A009E0EA75
:10106000F9E0818186FFFDCFE0EAF9E080E4818349
:101070008081BE016F5F7F4F80EA99E00E948411FA
:101080008BE28983BE016F5F7F4F80EA99E00E9407
:101090006E1181E0E0E6F6E08683E0EAF9E0818126
:1010A00085FFFDCF86EA8093A009E0EAF9E081811F
:1010B00086FFFDCFE0EAF9E080E481838081BE0114
:1010C0006F5F7F4F80EA99E00E9484118BE28983F1
:1010D000BE016F5F7F4F80EA99E00E946E1181E050
:1010E000E0E6F6E08683E0EAF9E0818185FFFDCF66
:1010F00088EC8093A009E0EAF9E0818186FFFDCFCA
:10110000E0EAF9E080E481838081BE016F5F7F4F78
:1011100080EA99E00E9484118BE28983BE016F5FAF
:101120007F4F80EA99E00E946E1181E0E0E6F6E0F0
:101130008683E0EAF9E0818185FFFDCF82EA809332
:10114000A009E0EAF9E0818186FFFDCFE0EAF9E05D
:1011500080E481838081BE016F5F7F4F80EA99E0E8
:101160000E9484118BE28983BE016F5F7F4F80EA0A
:1011700099E00E946E1181E0E0E6F6E08683E0EA05
:10118000F9E0818185FFFDCF8FE28093A009E0EA3D
:10119000F9E0818186FFFDCFE0EAF9E080E4818318
:1011A0008081BE016F5F7F4F80EA99E00E948411C9
:1011B0008BE28983BE016F5F7F4F80EA99E00E94D6
:1011C0006E1181E0E0E6F6E08683E0EAF9E08181F5
:1011D00085FFFDCF88EF8093A009E0EAF9E08181E7
:1011E00086FFFDCFE0EAF9E080E481838081BE01E3
:1011F0006F5F7F4F80EA99E00E9484118BE28983C0
:10120000BE016F5F7F4F80EA99E00E946E1181E01E
:10121000E0E6F6E08683E0EAF9E0818185FFFDCF34
:101220001092A009E0EAF9E0818186FFFDCFE0EAB3
:10123000F9E080E481838081BE016F5F7F4F80EAA7
:1012400099E00E9484118BE28983BE016F5F7F4F1A
:1012500080EA99E00E946E1181E0E0E6F6E0868384
:10126000E0EAF9E0818185FFFDCF81E28093A0096A
:10127000E0EAF9E0818186FFFDCFE0EAF9E080E471
:1012800081838081BE016F5F7F4F80EA99E00E9479
:1012900084118BE28983BE016F5F7F4F80EA99E002
:1012A0000E946E1181E0E0E6F6E08683E0EAF9E074
:1012B000818185FFFDCF81E88093A009E0EAF9E014
:1012C000818186FFFDCFE0EAF9E080E481838081BF
:1012D000BE016F5F7F4F80EA99E00E9484118BE22C
:1012E0008983BE016F5F7F4F80EA99E0F7D781E085
:1012F000E0E6F6E08683E0EAF9E0818185FFFDCF54
:1013000081E28093A009E0EAF9E0818186FFFDCFC8
:10131000E0EAF9E080E481838081BE016F5F7F4F66
:1013200080EA99E0F1D78BE28983BE016F5F7F4F3E
:1013300080EA99E0D3D781E0E0E6F6E08683E0EA50
:10134000F9E0818185FFFDCF8FEA8093A009E0EA73
:10135000F9E0818186FFFDCFE0EAF9E080E4818356
:101360008081BE016F5F7F4F80EA99E0CDD70F90FB
:10137000DF91CF911F910F91FF90EF90DF90CF9071
:10138000BF900895FF920F931F93CF93DF931F9207
:10139000CDB7DEB7F82E062F142FD1D78F2D8F7033
:1013A000806BF82E8BE28983BE016F5F7F4F80EAEE
:1013B00099E094D781E0E0E6F6E08683E0EAF9E0A0
:1013C000918195FFFDCFF092A009E0EAF9E08181DB
:1013D00086FFFDCFE0EAF9E080E481838081BE01F1
:1013E0006F5F7F4F80EA99E08FD7802F8F7782954C
:1013F0008F708061F82E8BE28983BE016F5F7F4F13
:1014000080EA99E06BD781E0E0E6F6E08683E0EAE7
:10141000F9E0818185FFFDCFF092A009E0EAF9E0D3
:10142000818186FFFDCFE0EAF9E080E4818380815D
:10143000BE016F5F7F4F80EA99E066D70F708BE245
:101440008983BE016F5F7F4F80EA99E047D781E0D3
:10145000E0E6F6E08683E0EAF9E0818185FFFDCFF2
:101460000093A009E0EAF9E0818186FFFDCFE0EA80
:10147000F9E080E481838081BE016F5F7F4F80EA65
:1014800099E042D78BE28983BE016F5F7F4F80EA8C
:1014900099E024D781E0E0E6F6E08583E0EAF9E030
:1014A000818185FFFDCF1093A009E0EAF9E08181F9
:1014B00086FFFDCFE0EAF9E080E48183808181E06E
:1014C000E0E6F6E08683BE016F5F7F4F80EA99E039
:1014D0001BD70F90DF91CF911F910F91FF9008952F
:1014E0000F931F93CF93DF931F92CDB7DEB789E899
:1014F00091E220D773DD8BE28983BE016F5F7F4F5E
:1015000080EA99E0EBD681E0E0E6F6E08683E0EA67
:10151000F9E0818185FFFDCF80E48093A009E0EAB6
:10152000F9E0818186FFFDCFE0EAF9E080E4818384
:101530008081BE016F5F7F4F80EA99E0E5D600E0D1
:101540000AC040E0612F802F1DDF1F5F1038C9F7F0
:101550000F5F043011F010E0F4CF0F90DF91CF91C6
:101560001F910F910895FF920F931F93CF93DF93D5
:10157000182F042F882374F1603260F5F62EF6944C
:10158000F694F6942F2D30E0319521953109220FF4
:10159000331F220F331F220F331F260F311DE1E0AF
:1015A000F0E0EF0102C0CC0FDD1F2A95E2F7682FB3
:1015B0008F2DD4D6013021F028F0023031F006C052
:1015C0008C2B04C0C0958C2301C08C27482F612F21
:1015D0008F2DD8DEDF91CF911F910F91FF9008954D
:1015E000BDC6089584E08093442184E1809347211F
:1015F00095E090934821109246218093452181E007
:101600008093432183E08093492110925D211092C1
:101610005E2180E4809381211092822110928321A7
:101620001092842180E88093852110928621109267
:1016300087211092882123E04AE060E080E04CD8C6
:1016400060E070E087E892E058C90895CF93DF9397
:101650000E944D16EC01CC0FDD1F809189239091E3
:101660008A239E01281B390B293131055CF00E9429
:101670004D16880F991FA0D890FDF9CFC0938923EC
:10168000D0938A2380915A2180958170DF91CF91E8
:1016900008951F920F920FB60F9211240BB60F925E
:1016A0002F933F934F935F936F937F938F939F936A
:1016B000AF93BF93EF93FF93E0E0F2E044A155A115
:1016C000E091B624F091B72461E080E092E01995B2
:1016D000FF91EF91BF91AF919F918F917F916F910A
:1016E0005F914F913F912F910F900BBE0F900FBEC6
:1016F0000F901F9018951F920F920FB60F92112402
:101700000BB60F922F933F934F935F936F937F93FB
:101710008F939F93AF93BF93EF93FF93E8E2F2E031
:1017200044815581E091B624F091B72462E080E0D5
:1017300092E01995FF91EF91BF91AF919F918F9199
:101740007F916F915F914F913F912F910F900BBEC1
:101750000F900FBE0F901F9018951F920F920FB60B
:101760000F9211240BB60F922F933F934F935F93D9
:101770006F937F938F939F93AF93BF93EF93FF9359
:10178000E0E3F2E044815581E091B624F091B72482
:1017900064E080E092E01995FF91EF91BF91AF91E5
:1017A0009F918F917F916F915F914F913F912F9179
:1017B0000F900BBE0F900FBE0F901F9018951F92A9
:1017C0000F920FB60F9211240BB60F922F933F93E7
:1017D0004F935F936F937F938F939F93AF93BF9339
:1017E000EF93FF93E8E3F2E044815581E091B62462
:1017F000F091B72468E080E092E01995FF91EF91B5
:10180000BF91AF919F918F917F916F915F914F9118
:101810003F912F910F900BBE0F900FBE0F901F9016
:1018200018951F920F920FB60F9211240BB60F92BC
:101830002F933F934F935F936F937F938F939F93D8
:10184000AF93BF93EF93FF93E0E4F2E044A155A17F
:10185000E091B424F091B52461E080E492E0199520
:10186000FF91EF91BF91AF919F918F917F916F9178
:101870005F914F913F912F910F900BBE0F900FBE34
:101880000F901F9018951F920F920FB60F92112470
:101890000BB60F922F933F934F935F936F937F936A
:1018A0008F939F93AF93BF93EF93FF93E8E6F2E09C
:1018B00044815581E091B424F091B52462E080E444
:1018C00092E01995FF91EF91BF91AF919F918F9108
:1018D0007F916F915F914F913F912F910F900BBE30
:1018E0000F900FBE0F901F9018951F920F920FB67A
:1018F0000F9211240BB60F922F933F934F935F9348
:101900006F937F938F939F93AF93BF93EF93FF93C7
:10191000E0E7F2E044815581E091B424F091B524F0
:1019200064E080E492E01995FF91EF91BF91AF914F
:101930009F918F917F916F915F914F913F912F91E7
:101940000F900BBE0F900FBE0F901F9018951F9217
:101950000F920FB60F9211240BB60F922F933F9355
:101960004F935F936F937F938F939F93AF93BF93A7
:10197000EF93FF93E8E7F2E044815581E091B424CE
:10198000F091B52468E080E492E01995FF91EF9121
:10199000BF91AF919F918F917F916F915F914F9187
:1019A0003F912F910F900BBE0F900FBE0F901F9085
:1019B0001895FC0181818823ECF7808108954F926E
:1019C0005F926F927F928F929F92AF92BF92CF92CF
:1019D000DF92EF92FF920F931F93CF93DF93EC016F
:1019E0004A015B0128013901D901C801689412F844
:1019F000B695A795979587951694D1F7B901A80143
:101A0000032E36E176956795579547953A95D1F728
:101A1000302D2C8122FD08C0B695A7959795879506
:101A2000769567955795479588159905AA05BB053D
:101A300008F4A6C084169506A606B70608F4A2C048
:101A40008C8182FD04C0880C991CAA1CBB1CC3019C
:101A5000B201A50194010E949A1C2F3F3105410556
:101A6000510508F491C0C12CD12C7601CA9419EF0C
:101A700005C02C153D054E055F0568F0CC0CDD1C3E
:101A8000EE1CFF1C1D3F14F46894C0F81F5F173054
:101A900081F7212F50C0212F11230CF04CC0D5010C
:101AA000C401880F991FAA1FBB1F880F991FAA1F67
:101AB000BB1F880F991FAA1FBB1F481A590A6A0A21
:101AC0007B0A1E3FF4F46DEF7FEF611B710917FD78
:101AD000739504C0440C551C661C771C6A95D2F79C
:101AE000D501C401B695A79597958795BC01CD0101
:101AF000640D751D861D971DA50194010E949A1CF9
:101B000036C023E0210FD501C40104C0880F991FFE
:101B1000AA1FBB1F2A95D2F79C01AD01B695A795C8
:101B200097958795BC01CD01640D751D861D971D88
:101B30000E949A1C1CC02D5FD501C40104C0880FEF
:101B4000991FAA1FBB1F2A95D2F79C01AD01B6951C
:101B5000A79597958795BC01CD01640D751D861DD0
:101B6000971D0E949A1C2150310941095109832F68
:101B70008F701295107F182B1F832E8381E018C061
:101B800080E016C080E014C0D501C401880F991F01
:101B9000AA1FBB1F880F991FAA1FBB1F880F991F61
:101BA000AA1FBB1F481A590A6A0A7B0A19EF8BCF72
:101BB000DF91CF911F910F91FF90EF90DF90CF9029
:101BC000BF90AF909F908F907F906F905F904F905D
:101BD00008950F931F93CF93DF93EC018B01009730
:101BE00009F403C1803C910529F460E180E00E9482
:101BF0003318FBC0C03881E0D80729F462E080E0E8
:101C00000E943318F2C0C115E1E0DE0729F461E05B
:101C100080E00E943318E9C0C038F3E0DF0729F400
:101C200061E081E00E943318E0C0C03983E0D8074A
:101C300029F461E082E00E943318D7C0C115E2E0C8
:101C4000DE0729F462E081E00E943318CEC0C03480
:101C5000F2E0DF0729F462E082E00E943318C5C099
:101C6000C03283E0D80729F464E082E00E94331890
:101C7000BCC0C115E8E0DE0729F461E083E00E9402
:101C80003318B3C0C115F9E0DF0729F461E084E03F
:101C90000E943318AAC0C1158AE0D80729F461E070
:101CA00085E00E943318A1C0C115EBE0DE0729F4DE
:101CB00061E086E00E94331898C0C034F8E0DF0786
:101CC00029F462E083E00E9433188FC0C03489E0B9
:101CD000D80729F462E084E00E94331886C0C0343B
:101CE000EAE0DE0729F462E085E00E9433187DC057
:101CF000C039F8E0DF0729F464E083E00E9433187C
:101D000074C0C03989E0D80729F464E084E00E94F7
:101D100033186BC0C039EAE0DE0729F464E085E0DF
:101D20000E94331862C0C039FBE0DF0729F464E089
:101D300086E00E94331859C0C03C88E0D80729F4D7
:101D400068E083E00E94331850C0C03CE9E0DE0741
:101D500029F468E084E00E94331847C0C03AF8E0F4
:101D6000DF0729F460E183E00E9433183EC0C03AE7
:101D700089E0D80729F460E184E00E94331835C077
:101D8000C03AEAE0DE0729F460E185E00E943318FA
:101D90002CC0C03AFBE0DF0729F460E186E00E9436
:101DA000331823C0C03B88E0D80729F460E283E001
:101DB0000E9433181AC0C03BE9E0DE0729F460E254
:101DC00084E00E94331811C0C038F4E0DF0729F422
:101DD00060E483E00E94331808C0C03A84E0D8076A
:101DE00021F460E485E00E9433188D818F738D8328
:101DF000F80194818581892B9681992311F098E0CF
:101E000001C090E0892B8D83F8014081518162816E
:101E1000738100E814E82EE130E0CE01D0DD9C8132
:101E200098609C839C8190619C83DF91CF911F91EE
:101E30000F910895CF92DF92EF92FF920F931F932D
:101E4000CF93DF93EC0168017901F694E794D7947E
:101E5000C7944C155D056E057F0578F46A017B011A
:101E6000CC0CDD1CEE1CFF1CC901B801A7019601BA
:101E70000E949A1C2150310902C020E030E0832FDB
:101E80008F708F832E83DF91CF911F910F91FF90E1
:101E9000EF90DF90CF900895FF920F931F93CF9311
:101EA000DF93EC018B01009709F4B2C1803C9105EE
:101EB00029F460E180E00E943318AAC1803821E053
:101EC000920729F462E080E00E943318A1C1C11595
:101ED00081E0D80729F461E080E00E94331898C1BE
:101EE000C038E3E0DE0729F461E081E00E943318A6
:101EF0008FC1C039F3E0DF0729F461E082E00E947E
:101F0000331886C1C11522E0D20729F462E081E0CE
:101F10000E9433187DC1C03482E0D80729F462E002
:101F200082E00E94331874C1C032E3E0DE0729F476
:101F300064E082E00E9433186BC1C115F8E0DF074E
:101F400029F461E083E00E94331862C1C11529E0E1
:101F5000D20729F461E084E00E94331859C1C11509
:101F60008AE0D80729F461E085E00E94331850C167
:101F7000C115EBE0DE0729F461E086E00E9433182A
:101F800047C1C034F8E0DF0729F462E083E00E9433
:101F900033183EC1C03429E0D20729F462E084E05E
:101FA0000E94331835C1C0348AE0D80729F462E0B2
:101FB00085E00E9433182CC1C039E8E0DE0729F41F
:101FC00064E083E00E94331823C1C039F9E0DF07E1
:101FD00029F464E084E00E9433181AC1C0392AE071
:101FE000D20729F464E085E00E94331811C1C0399A
:101FF0008BE0D80729F464E086E00E94331808C11A
:10200000C03CE8E0DE0729F468E083E00E94331872
:10201000FFC0C03CF9E0DF0729F468E084E00E94DB
:102020003318F6C0C03A28E0D20779F460E183E0C3
:102030000E943318E0EAF8E084818F7E8483F801FF
:102040003481325080EA98E044C0C03AF9E0DF07BA
:1020500029F460E184E00E943318DAC0C03A2AE033
:10206000D20721F460E185E0FED7D2C0C03A8BE010
:10207000D80721F460E186E0F6D7CAC0C03BE8E0AB
:10208000DE0721F460E283E0EED7C2C0C03BF9E096
:10209000DF0721F460E284E0E6D7BAC0C03824E06C
:1020A000D20721F460E483E0DED7B2C0C03A84E016
:1020B000D80721F460E485E0D6D7AAC08C818F7E52
:1020C0008C83FB0134813250CE01C03AF8E0DF0747
:1020D00051F4E0E4F6E0268524FDA2C00F2EF1E1E4
:1020E000FF2EF02D04C0803B28E0920799F0803A43
:1020F000E9E09E0751F4E0E6F6E0268524FD95C070
:102100000F2EF9E1FF2EF02D17C0803BF9E09F075D
:1021100001F104C00F2EF5E1FF2EF02D803A2AE0E8
:10212000920751F4E0E8F6E0868584FD83C00F2E27
:10213000F1E2FF2EF02D16C0803A9B4099F4E0EAC0
:10214000F6E0868584FF0AC00F2EFDE2FF2EF02DFB
:1021500009C00F2EFDE1FF2EF02D04C00F2EF9E275
:10216000FF2EF02DAF2DA695A695A695F0E2AF9F78
:10217000D0011124BA5F2F2D277081E090E0022E4C
:1021800002C0880F991F0A94E2F711968C93119759
:10219000323010F430E401C030E0FD017096E20FFF
:1021A000F11D9FB7F8942081277020832081232B75
:1021B00020839FBF15968C938D81806C8D83F80151
:1021C00084818D7F813021F48D8182608D8303C075
:1021D0008D818D7F8D83F8018581882321F08D810C
:1021E00084608D8303C08D818B7F8D83F801408156
:1021F00051816281738100E814E82EE130E0CE0164
:1022000019DE8C8188608C838C8180618C8317C0FF
:102210008C818F7E8C83F80134813250CE0163CF64
:102220000F2EF5E1FF2EF02D62CF0F2EFDE1FF2ED8
:10223000F02D82CF0F2EF5E2FF2EF02D93CFDF9100
:10224000CF911F910F91FF900895803A28E0920757
:1022500021F460E183E007C70895803B28E09207FE
:1022600021F460E283E0FFC60895803A29E09207F6
:1022700021F460E184E0F7C60895803B29E09207ED
:1022800021F460E284E0EFC60895803A2AE09207E4
:1022900021F460E185E0E7C60895803A9B4019F497
:1022A00060E186E0E0C608950F931F93CF93DF931C
:1022B00000D000D0CDB7DEB709831A832B833C83CF
:1022C0004D831E82BE016F5F7F4FE6DD2696CDBF38
:1022D000DEBFDF91CF911F910F910895FB018081A7
:1022E000E82FE695E695E69540E2E49FF00111249B
:1022F000FA5F877021E030E0A90102C0440F551F4A
:102300008A95E2F746830895FB018081E82FE695E0
:10231000E695E69540E2E49FF0011124FA5F8770AC
:1023200021E030E0A90102C0440F551F8A95E2F771
:102330004583089580938B2390938C23089520E800
:10234000829FC0011124FC01E60FF11D80918B23B7
:1023500090918C23E80FF91F4083089520E8829F15
:10236000C0011124FC01E60FF11D80918B23909197
:102370008C23E80FF91F80810895FF920F931F931C
:10238000CF93DF93E42FF0E0E80FF11DE138F10582
:1023900014F040E8481B442309F45CC0C62FC695DE
:1023A000C695C695EC2FF0E0F195E195F109EE0F99
:1023B000FF1FEE0FFF1FEE0FFF1FDF01A60FB11D66
:1023C000BD01E1E0F0E0DF0102C0AA0FBB1F6A958A
:1023D000E2F70A2F213049F068F0223009F03AC0C4
:1023E000D42FFF24FA94F80E28C0D42FFF24FA9497
:1023F000F80E07C0D42FFF24FA94F80E0A2F009588
:102400000EC01F2D1D0F612F8C2FEAD8482F402B97
:10241000612F8C2F0E94C209D15099F71BC01F2D2C
:102420001D0F612F8C2FDCD8482F4023612F8C2F5C
:102430000E94C209D15099F70DC01F2D1D0F612FA9
:102440008C2FCED8482F4027612F8C2F0E94C20995
:10245000D15099F7DF91CF911F910F91FF9008957F
:10246000FF920F931F93CF93DF93D82F142F222324
:1024700061F0C22FFF24FA94F60E6F2D6C0F202FFF
:10248000412F8D2F7ADFC150C1F7DF91CF911F917E
:102490000F91FF900895AF92BF92CF92DF92EF928B
:1024A000FF920F931F93CF93DF93C82FD62EA42EA6
:1024B000790100E0F901248143816A2D8D2DD0DF5F
:1024C000F7019081911139C08381A82FA695A69517
:1024D000A695877009F0AF5FF701C480AC9DD0016D
:1024E0001124EC2FF0E0E7018D81E81BF109AE9F8C
:1024F0009001AF9F300DBE9F300D11240980DA810D
:10250000C02DC20FD31FF701B380BB2099F000E0AC
:1025100010E0812F8D0D912F977019F4FE01049119
:10252000219600231CF441E06A2D1DD8000F1F5F87
:102530001B11EFCFA394CA9431F7DF91CF911F9174
:102540000F91FF90EF90DF90CF90BF90AF900895E4
:10255000DF92EF92FF920F931F93CF93DF93E42EBE
:102560008901EC01F62ED62E89918A3031F4F801DA
:1025700084818F5FE80EFD2C09C08D3039F0980101
:102580004E2D6F2D88DFF8018381F80E888181112F
:10259000EBCFDF91CF911F910F91FF90EF90DF90E4
:1025A0000895FC010396818392832FEF3FEF2383ED
:1025B0003483858396838783908710820895FC01F6
:1025C000108611860895CF93DF939C01FB01DC01F7
:1025D0001196CD91DC911297C283D3838C819D811A
:1025E000848395838C819D81DC0112966D937C930D
:1025F00013976C837D8320873187F90180818F5FFA
:102600008083DF91CF910895CF93DF93EB014881D1
:1026100059814F3F2FEF520721F4FC01A781B0856C
:102620000DC0DC0113961296ED91FC911397208159
:1026300031814217530710F0DF01F5CF1296ED916B
:10264000FC911397EA83FB83C483D583AC83BD835A
:102650001296CD93DC93139788879987FC0120818C
:102660002F5F2083DF91CF910895CF93DF93FC01FB
:10267000A085B185C281D381848195818C839D831E
:10268000C481D581828193818A839B831196CD9168
:10269000DC911297CE17DF0731F48C819D81119662
:1026A0008D939C931297108611868C9181508C93F8
:1026B000DF91CF9108950F931F938B0171E1FC017E
:1026C0007083319762E26083319723E3208322276E
:1026D00017FD2095322F3197008331971083319762
:1026E000208331971082319720E820833197108220
:1026F000319722E02083319723E02083319724E033
:102700002083319725E02083319726E0208331977D
:1027100027E02083319728E02083319729E0208328
:10272000319720E1208331977083319722E1208314
:10273000319723E12083319724E12083319725E1EC
:102740002083319726E12083319727E12083319739
:1027500028E12083319729E12083319720E22083EB
:10276000319721E2208331976083319723E22083E0
:102770003197408331975083319726E220833197F8
:1027800027E22083319728E22083319729E22083B2
:10279000319720E32083319721E3208387971F918E
:1027A0000F910895F894E0E7F0E083818A7F8383B6
:1027B000E0E0F8E080EA9FE086A397A381E08683CB
:1027C000A0EAB0E012969C911297916012969C93A9
:1027D00080837894A091E323B091E4230D900DBE03
:1027E0000D900EBEFF91EF91DF91CF91BF91AF9110
:1027F0009F918F917F916F915F914F913F912F9119
:102800001F910F91FF90EF90DF90CF90BF90AF900E
:102810009F908F907F906F905F904F903F902F9000
:102820001F900F900FBE0F90089508950F920FB64E
:10283000F8940F921F9211242F923F924F925F9221
:102840006F927F928F929F92AF92BF92CF92DF92C0
:10285000EF92FF920F931F932F933F934F935F93AA
:102860006F937F938F939F93AF93BF93CF93DF9398
:10287000EF93FF93A091E323B091E4230DB60D9263
:102880000EB60D9282D3A091E323B091E4230D9074
:102890000DBE0D900EBEFF91EF91DF91CF91BF91D4
:1028A000AF919F918F917F916F915F914F913F91E8
:1028B0002F911F910F91FF90EF90DF90CF90BF90DD
:1028C000AF909F908F907F906F905F904F903F90D0
:1028D0002F901F900F900FBE0F9008950F920FB67C
:1028E000F8940F921F9211242F923F924F925F9271
:1028F0006F927F928F929F92AF92BF92CF92DF9210
:10290000EF92FF920F931F932F933F934F935F93F9
:102910006F937F938F939F93AF93BF93CF93DF93E7
:10292000EF93FF93A091E323B091E4230DB60D92B2
:102930000EB60D92BCD1811128D3A091E323B091A2
:10294000E4230D900DBE0D900EBEFF91EF91DF912F
:10295000CF91BF91AF919F918F917F916F915F9137
:102960004F913F912F911F910F91FF90EF90DF902A
:10297000CF90BF90AF909F908F907F906F905F901F
:102980004F903F902F901F900F900FBE0F90189573
:10299000CF93DF93EC017BD1CE010E94ED1CEC01C3
:1029A0005BD2CE01DF91CF910895CF93DF93EC01FD
:1029B000009729F06CD1CE010E94851D4DD2DF9188
:1029C000CF910895C6EBD3E28881823008F4FFCF1F
:1029D0002DDFFACFCF93DF93EC01E091E323F09169
:1029E000E423828393838091942390919523C81745
:1029F000D90760F46091E3237091E4238091A023D0
:102A00009091A1236E5F7F4FFFDD16C06091E3239D
:102A10007091E4238091A2239091A3236E5F7F4F56
:102A2000F3DD80910E2090910F20C817D90720F474
:102A3000C0930E20D0930F20DF91CF9108954F9235
:102A40005F926F927F928F929F92AF92BF92CF923E
:102A5000DF92EF92FF920F931F93CF93DF934C017E
:102A60005B012A01390181E290E092DFEC010097DD
:102A700009F4D2C0C114D10409F0B7C0C20188DF83
:102A80008F8B988F892B09F0B2C0CE018EDFC4C026
:102A9000CF013191DA013D93AD01DC018C918823A6
:102AA00011F02150A9F718A2102F053008F014E0FA
:102AB0001E8B5E01B2E0AB0EB11CC50180DDCE0104
:102AC0000C967DDDC887D98785E090E0811B910950
:102AD0008C879D87CA8BDB8BA301B401C601EBDD1C
:102AE00088839983E114F10419F0F701C083D1833D
:102AF0000FB6F8940F92809196238F5F8093962360
:102B00008091E3239091E423892B91F5C093E323F3
:102B1000D093E423809196238130C9F50F2EF6EBF4
:102B2000EF2EF3E2FF2EF02D0F2EF3EECF2EF3E279
:102B3000DF2EF02DC70135DDF9E0EF0EF11CEC14AE
:102B4000FD04C1F78DEA93E22CDD84EA93E229DDEE
:102B500087E993E226DD8DEA93E28093A2239093A6
:102B6000A32384EA93E28093A0239093A1230FC030
:102B70008091922381110BC0E091E323F091E42333
:102B80008689081720F0C093E323D093E423809133
:102B90008E238F5F80938E238E8990919323981735
:102BA00010F48093932390E09C01220F331F220F97
:102BB000331F220F331F820F931FB5018A549C4D80
:102BC00002DD0F900FBE80919223882351F0E09197
:102BD000E323F091E4238689801728F427DE81E03F
:102BE0001CC081E01AC081E018C0CF8AD88E81E075
:102BF000481A5108CF88D88CC40CD51CD5018C91AB
:102C0000898F8C91882309F44ECFAE01465E5F4FC9
:102C1000F501319627E03CCF8FEFDF91CF911F91E7
:102C20000F91FF90EF90DF90CF90BF90AF909F906B
:102C30008F907F906F905F904F900895AF92BF926A
:102C4000CF92DF92EF92FF920F93A12CB12CC12C67
:102C5000D12CE12CF12C00E020E030E045E550E003
:102C60006DE170E282EE94E1EADE813041F4F894A5
:102C700080939223109294231092952393DD0F91C9
:102C8000FF90EF90DF90CF90BF90AF90089580912C
:102C90008D238F5F80938D2308950FB6F8940F9244
:102CA00080919423909195230F900FBE0895DF9209
:102CB000EF92FF920F931F93CF93DF9380918D2319
:102CC0008111B2C0809194239091952301968093B5
:102CD000942390939523E0909423F0909523E1140E
:102CE000F10499F58091A2239091A3232091A02330
:102CF0003091A1232093A2233093A3238093A02378
:102D00009093A12380918F238F5F80938F23E091F5
:102D1000A223F091A3238081811107C08FEF9FEF41
:102D200080930E2090930F2010C0E091A223F09189
:102D3000A3230580F681E02D0680F781E02D8281B6
:102D4000938180930E2090930F2080910E2090917C
:102D50000F20E816F90608F450C0D12C02C0DD247B
:102D6000D394E091A223F091A3238081811107C025
:102D70008FEF9FEF80930E2090930F203FC0E09144
:102D8000A223F091A3230580F681E02DC681D7818F
:102D90002A813B81E216F30628F420930E2030931B
:102DA0000F202CC08E010E5F1F4FC8015EDC8C8986
:102DB0009D89892B19F0CE010C9657DC2E898091C4
:102DC0009323821710F42093932330E0C901880FD6
:102DD000991F880F991F880F991F820F931FB801A1
:102DE0008A549C4DF0DBE091E323F091E4239E892B
:102DF0008689981708F0B3CFB4CFD12CE091E323A4
:102E0000F091E423868990E0FC01EE0FFF1FEE0FA6
:102E1000FF1FEE0FFF1F8E0F9F1FFC01EA54FC4D9A
:102E20008081823040F409C0809191238F5F80932C
:102E30009123D12C02C0DD24D39480919023882348
:102E400011F0DD24D3948D2DDF91CF911F910F913F
:102E5000FF90EF90DF900895DF92EF92FF920F9333
:102E60001F93CF93DF930FB6F8940F9280918D2329
:102E7000815080938D2380918D2381115CC080913E
:102E80009623882309F459C00F2EF7E9EF2EF3E2B9
:102E9000FF2EF02DDD24D3942DC0E0919C23F091E2
:102EA0009D23C681D781CE010C96DFDB8E010E5F9C
:102EB0001F4FC801DADB8E8990919323981710F485
:102EC0008093932390E09C01220F331F220F331F26
:102ED000220F331F820F931FB8018A549C4D73DB5E
:102EE000E091E323F091E4239E898689981710F0FE
:102EF000D0929023F70180818111CFCF80919123CF
:102F0000882391F080919123882371F0C1E0CFDE76
:102F10008111C093902380919123815080939123BC
:102F2000809191238111F3CF80919023813039F4E6
:102F30007DDC81E005C080E003C080E001C080E06E
:102F40000F900FBEDF91CF911F910F91FF90EF90E7
:102F5000DF900895CF93DF93EC01009791F097DE17
:102F60008091942390919523C80FD91F8091E323DA
:102F70009091E423029679DBCE012CDD6DDF811187
:102F800001C054DCDF91CF91089580918D23882377
:102F900021F081E0809390230895109290238091F6
:102FA000932390E0FC01EE0FFF1FEE0FFF1FEE0FCB
:102FB000FF1F8E0F9F1FFC01EA54FC4D8081811181
:102FC00017C0809193238150809393238091932302
:102FD00090E0FC01EE0FFF1FEE0FFF1FEE0FFF1F33
:102FE0008E0F9F1FFC01EA54FC4D8081882349F31A
:102FF000E0919323F0E0CF01880F991F880F991F6C
:10300000880F991FE80FF91FEA54FC4DA181B28186
:1030100012960D90BC91A02DA183B283CF0103968F
:10302000A817B90731F412968D919C91139781835B
:1030300092830180F281E02D868197818093E32342
:103040009093E42308958FEF809370008093710034
:103050008093720080937300809374008093750056
:103060008093760008959FB7F894E82FF0E0E05938
:10307000FF4F60958081682360839FBF0895CF9341
:10308000DF93FC01709620E030E0C62FD0E0DE0137
:10309000022E02C0B595A7950A94E2F7A0FD5083D1
:1030A0002F5F3F4F31962830310589F740FF0AC026
:1030B00041FF03C0FC01658302C0FC016683FC0183
:1030C000618302C0FC016283DF91CF91089543E0E8
:1030D00050E061E080EE97E0D2DF43E050E062E054
:1030E00080EE97E0CCDF43E050E060E180E696E0E0
:1030F000C6DF41E050E460E280E696E0C0DF40E0F9
:103100005BE160E280E896E0BADF40E05BE162E02C
:1031100080EA96E0B4DF40E05BE164E080EA96E0BC
:10312000AEDF43E050E062E080E696E0A8DF43E0F7
:1031300050E068E080E696E0A2DF43E050E068E01F
:1031400080EA96E09CDF43E050E061E080E696E0B4
:1031500096DF43E050E068E080E096E090DF41E0F9
:1031600050E060E180E896E08ACF0895FFCF60915B
:10317000EB2345E556E081E090E0C4E5D6E0E0EEE3
:10318000F7E012E0DA012C91A22FA695A695A6955C
:1031900030E2A39FD0011124BA5F662351F027705B
:1031A0007C0102C0EE0CFF1C2A95E2F71596EC920A
:1031B00009C027707C0102C0EE0CFF1C2A95E2F7C3
:1031C0001696EC923881A32FA695A695A69520E297
:1031D000A29FD0011124BA5F18967C913770DC0150
:1031E00002C0AA0FBB1F3A95E2F79D01272331E0E9
:1031F00009F430E03093EA23662319F021E02583B7
:1032000002C021E02683332311F01583BBCF168340
:10321000B9CFC0E8D6E000EA16E00F2EF0E6CF2ED8
:10322000F6E0DF2EF02D6894332435F868944424BA
:1032300044F80F2EF0EEEF2EF7E0FF2EF02D552480
:1032400053940F2EF3E06F2E712CF02D6894882488
:1032500081F8912CAA24A394B12C82E390E07ADE29
:10326000888585FD07C0F70156821092B12410921F
:10327000B224F3CFF801808581FD07C0F6014682B4
:10328000A092B124B092B224E8CFF801808582FDEB
:1032900007C0F60136828092B1249092B224DDCF2D
:1032A000F801808581FFD9CF808582FFD6CF8885C0
:1032B00085FFD3CFF60135824582F70155826092B2
:1032C000B1247092B224C9CF01E0C0EED7E012E081
:1032D0000E94260B80278093B32482E390E03ADE9D
:1032E0008091B324882311F01E83F2CF1D83F0CF89
:1032F000BB24B3940F2EF4E1AF2EF02D0F2EF5E189
:103300009F2EF02D02E010E06894CC24C2F8D12C5E
:103310000F2EF3E0EF2EF12CF02DC1E0D0E082E390
:1033200090E018DE80911B2090911C20009789F579
:103330008091B1249091B224892B39F4C0931B2041
:10334000D0931C20B092E92319C08091B1249091B0
:10335000B224019739F4E0921B20F0921C20B09225
:10336000E9230CC08091B1249091B224029731F4EA
:10337000C0921B20D0921C20B092E9238091B324EC
:10338000882369F200931B2010931C20B092E9233C
:10339000C6CF8130910509F03FC08091B124909152
:1033A000B224892B39F410921B2010921C20B09269
:1033B000E9232FC08091B1249091B224019751F458
:1033C000E2E2F0E2A7E5B4E28A2D01900D928A953F
:1033D000E1F71FC08091B1249091B224029751F47B
:1033E000E6E3F0E2A7E5B4E2892D01900D928A951B
:1033F000E1F70FC08091B1249091B224039749F472
:10340000EBE4F0E2A7E5B4E28A2D01900D928A95F3
:10341000E1F78091B32483CF82309105D1F480917C
:10342000B1249091B224892B39F410921B20109270
:103430001C20B092E9230AC08091B1249091B2245B
:10344000019721F08091B1249091B2248091B3240E
:1034500066CF8330910509F045C08091E7239091B4
:10346000E823FC01E850FC4D40812091B1243091CB
:10347000B224232B39F410921B2010921C20B092FE
:10348000E92319C02091B1243091B22421303105B3
:1034900031F401978093E7239093E8230CC02091A7
:1034A000B1243091B2242230310529F40196809361
:1034B000E7239093E8238091B324882309F42FCF46
:1034C000442341F0E091E723F091E823E850FC4DDC
:1034D000108225CFE091E723F091E823E850FC4DDE
:1034E000B0821DCF049709F01ACF8091B12490913A
:1034F000B224892B39F410921B2010921C20B09218
:10350000E9230AC08091B1249091B224019721F05F
:103510008091B1249091B2248091B32400CFCF93B5
:10352000DF93C5E2D4E280EA98E00E94D90C8A30A9
:1035300011F08993F8CFDF91CF91089580E090E06A
:1035400009DDEDDFFBCF9F92AF92BF92CF92DF926A
:10355000EF92FF920F931F93CF93DF9380911920E7
:1035600090911A209923BCF10F2EF7E0AF2EF4E2D0
:10357000BF2EF02D0F2EF8EFCF2EF3E2DF2EF02D21
:10358000C0E0D0E00F2EFFE5EF2EF0E2FF2EF02D91
:103590000F2EF4E19F2EF02D09E814E2DF93CF9374
:1035A000FF92EF921F929F921F930F933DD3F501CD
:1035B000019311935F01F60111926F0121968DB76E
:1035C0009EB708968DBF9EBF8091192090911A20BA
:1035D0008C179D071CF7209117203091182033235A
:1035E00064F0ECEEF3E280E090E045E650E24193D7
:1035F0005193019628173907D4F7DF91CF911F9186
:103600000F91FF90EF90DF90CF90BF90AF909F9081
:10361000089580E1E0E8F6E0858395DF0F2EF3E082
:10362000EF2EF1E2FF2EF02D14E1CDE9D4E28091EE
:10363000E923882389F00FB6F8940F9200E020E286
:1036400040E860E080E00E94301284E690E082DC96
:103650000F900FBE1092E92320911B2030911C2067
:103660002115310509F527E030E240E060E089E608
:1036700090E20E94A81227E030E248E060E08FE785
:1036800090E20E94A81227E030E24FE060E085E976
:1036900090E20E94A81227E030E247E160E08BEA66
:1036A00090E20E94A812C2C021303105C9F427E07F
:1036B00030E240E060E081EC90E20E94A81227E056
:1036C00030E248E060E085E294E20E94A81227E040
:1036D00030E24FE060E087E594E20E94A812A6C0C5
:1036E0002230310549F427E030E240E060E087ED28
:1036F00090E20E94A8129AC02330310509F06DC0F3
:103700008091E7239091E82399234CF4809119202C
:1037100090911A208093E7239093E8230BC0209187
:10372000192030911A202817390724F41092E72322
:103730001092E82327E030E240E060E08DEE90E276
:103740000E94A8128091E7239091E82301969F930D
:103750008F93FF92EF921F921F93DF93CF9364D2C8
:1037600027E030E248E060E0CE010E94A812E0913C
:10377000E723F091E823EE0FFF1FE95FFB4D27E001
:1037800030E24FE060E0808191810E94A81227E042
:1037900030E248E160E082E191E20E94A812E0910B
:1037A000E723F091E823E850FC4D8DB79EB70896CB
:1037B0008DBF9EBF8081811108C002E029E042E1F7
:1037C00067E18BE00E94301231C002E029E042E163
:1037D00067E18FE50E94301229C02430310531F5B0
:1037E00027E030E240E060E088E291E20E94A81227
:1037F0004091172050911820141615063CF420E033
:1038000030E02F5F3F4F24173507D9F7E091E523CC
:10381000F091E623EE0FFF1FE451FC4D27E030E26C
:1038200048E060E0808191810E94A81289E190E0E7
:1038300091DBFDCEAF92BF92CF92DF92EF92FF92DB
:103840000F93CF93DF93FFDB42DC0E94700A0E944C
:10385000F20A60E170E280EA98E00E94E90D86E4F5
:1038600096E024E0FC012083C2E4D6E02883A5E4AE
:10387000B6E028E02C9341E456E0FA01208330E1E1
:10388000FC01308338832C93FA012083A12CB12CC6
:10389000C12CD12CE12CF12C01E020E030E044EFF0
:1038A00051E06AE470E289E09BE1C9D820E030E0B1
:1038B00044EF51E06AE470E289E099E1C0D820E089
:1038C00030E044EF51E06AE470E288E799E1B7D86C
:1038D00020E030E045E550E06AE470E284E699E1FA
:1038E000AED800E020E030E044EF51E06AE470E25E
:1038F0008EE99AE1A4D820E030E044EF51E06AE498
:1039000070E286EB98E19BD820E030E044EF51E094
:103910006AE470E287EB98E192D890D980E090E079
:10392000DF91CF910F91FF90EF90DF90CF90BF90FC
:10393000AF900895A1E21A2EAA1BBB1BFD010DC07A
:10394000AA1FBB1FEE1FFF1FA217B307E407F5074F
:1039500020F0A21BB30BE40BF50B661F771F881F2B
:10396000991F1A9469F760957095809590959B01C1
:10397000AC01BD01CF0108952F923F924F925F920B
:103980006F927F928F929F92AF92BF92CF92DF926F
:10399000EF92FF920F931F93CF93DF93CDB7DEB7D4
:1039A000CA1BDB0BCDBFDEBF19942A883988488833
:1039B0005F846E847D848C849B84AA84B984C8844B
:1039C000DF80EE80FD800C811B81AA81B981CE0F42
:1039D000D11DCDBFDEBFED010895CF93DF938230BF
:1039E000910510F482E090E0E091BA24F091BB24BC
:1039F00020E030E0A0E0B0E0309739F14081518123
:103A000048175907B8F04817590771F48281938114
:103A1000109729F012968D939C9313972CC0809346
:103A2000BA249093BB2427C02115310531F04217E9
:103A3000530718F0A901DB0101C0EF019A01BD0194
:103A4000DF010280F381E02DD7CF21153105F9F098
:103A5000281B390B2430310580F48A819B81611544
:103A6000710521F0FB018283938304C08093BA2403
:103A70009093BB24FE01329644C0FE01E20FF31F77
:103A80008193919322503109288339833AC0209140
:103A9000B8243091B924232B41F420910320309194
:103AA00004202093B8243093B92420910120309130
:103AB00002202115310541F42DB73EB74091052074
:103AC00050910620241B350BE091B824F091B924C5
:103AD000E217F307A0F42E1B3F0B2817390778F0E5
:103AE000AC014E5F5F4F2417350748F04E0F5F1F44
:103AF0004093B8245093B9248193919302C0E0E09D
:103B0000F0E0CF01DF91CF910895CF93DF9300973D
:103B100009F487C0FC01329712821382C091BA2443
:103B2000D091BB24209781F420813181280F391F47
:103B30008091B8249091B9248217930779F5E09386
:103B4000B824F093B9246DC0DE0120E030E0AE1758
:103B5000BF0750F412964D915C9113979D0141154A
:103B6000510509F1DA01F3CFA283B383408151817A
:103B7000840F951F8A179B0771F48D919C91119763
:103B8000840F951F02968083918312968D919C914C
:103B90001397828393832115310529F4E093BA2486
:103BA000F093BB243EC0D9011296ED93FC9313977A
:103BB0004D915D91A40FB51FEA17FB0779F4808141
:103BC0009181840F951F0296D9018D939C93119733
:103BD0008281938112968D939C931397E0E0F0E09D
:103BE0008A819B81009719F0FE01EC01F9CFCE018B
:103BF000029628813981820F931F2091B824309139
:103C0000B9242817390769F4309729F41092BA2497
:103C10001092BB2402C012821382C093B824D093A6
:103C2000B924DF91CF9108950F931F93CF93DF9322
:103C3000CDB7DEB72E97CDBFDEBF0E891F89888D29
:103C4000998D26E02C8309831A8397FF02C080E0B8
:103C500090E801978D839E83AE01445E5F4F6A8D2D
:103C60007B8DCE01019616D04D815E8157FD0AC035
:103C70002F813885421753070CF49A01F801E20F9F
:103C8000F31F10822E96CDBFDEBFDF91CF911F9123
:103C90000F9108952F923F924F925F926F927F9271
:103CA0008F929F92AF92BF92CF92DF92EF92FF924C
:103CB0000F931F93CF93DF93CDB7DEB72C97CDBF74
:103CC000DEBF7C016B018A01FC01168217828381B1
:103CD00081FFB0C1CE0101964C01F7019381F6013D
:103CE00093FD859193FF81916F01882309F49EC113
:103CF000853239F493FD859193FF81916F0185326F
:103D000021F4B70190E0C4D1E8CF512C312C20E050
:103D10002032A0F48B3269F030F4803259F08332D3
:103D200069F420612CC08D3239F0803339F4216080
:103D300026C02260246023C0286021C027FD27C040
:103D400030ED380F3A3078F426FF06C0FAE05F9E77
:103D5000300D1124532E13C08AE0389E300D1124EB
:103D6000332E20620CC08E3221F426FD5FC1206408
:103D700006C08C3611F4206802C0883641F4F60182
:103D800093FD859193FF81916F018111C1CF982F90
:103D90009F7D9554933028F40C5F1F4FFFE3F98308
:103DA0000DC0833631F0833771F0833509F057C089
:103DB00021C0F801808189830E5F1F4F4424439402
:103DC000512C540114C03801F2E06F0E711CF8013F
:103DD000A080B18026FF03C0652D70E002C06FEFA8
:103DE0007FEFC5012C8749D12C0183012C852F77CA
:103DF000222E16C03801F2E06F0E711CF801A0806F
:103E0000B18026FF03C0652D70E002C06FEF7FEF29
:103E1000C5012C8727D12C012C852068222E8301F7
:103E200023FC19C0832D90E048165906A0F4B70171
:103E300080E290E02DD13A94F5CFF50127FC8591F1
:103E400027FE81915F01B70190E022D131103A94B1
:103E5000F1E04F1A51084114510479F7DEC084365D
:103E600011F0893631F5F80127FF07C060817181B3
:103E7000828193810C5F1F4F08C060817181882708
:103E800077FD8095982F0E5F1F4F2F76B22E97FFEC
:103E900009C090958095709561957F4F8F4F9F4F8A
:103EA0002068B22E2AE030E0A40124D1A82EA81860
:103EB00043C0853729F42F7EB22E2AE030E025C09A
:103EC000F22FF97FBF2E8F36C1F018F4883579F0C4
:103ED000ADC0803719F0883721F0A8C02F2F20619E
:103EE000B22EB4FE0DC08B2D8460B82E09C024FF05
:103EF0000AC09F2F9660B92E06C028E030E005C0AA
:103F000020E130E002C020E132E0F801B7FE07C056
:103F100060817181828193810C5F1F4F06C0608137
:103F2000718180E090E00E5F1F4FA401E3D0A82EC6
:103F3000A818FB2DFF77BF2EB6FE0BC02B2D2E7FB2
:103F4000A51450F4B4FE0AC0B2FC08C02B2D2E7E7E
:103F500005C07A2C2B2D03C07A2C01C0752C24FFB0
:103F60000DC0FE01EA0DF11D8081803311F4297E20
:103F700009C022FF06C07394739404C0822F867810
:103F800009F0739423FD12C020FF06C05A2C73144D
:103F900018F4530C5718732C731460F4B70180E2B3
:103FA00090E02C8775D073942C85F6CF731410F4A1
:103FB000371801C0312C24FF11C0B70180E390E015
:103FC0002C8766D02C8522FF16C021FF03C088E510
:103FD00090E002C088E790E0B7010CC0822F86789D
:103FE00051F021FD02C080E201C08BE227FD8DE28D
:103FF000B70190E04DD0A51430F4B70180E390E014
:1040000047D05A94F8CFAA94F401EA0DF11D8081AB
:10401000B70190E03DD0A110F6CF332009F45DCE7A
:10402000B70180E290E034D03A94F7CFF70186816F
:10403000978102C08FEF9FEF2C96CDBFDEBFDF913F
:10404000CF911F910F91FF90EF90DF90CF90BF9095
:10405000AF909F908F907F906F905F904F903F9028
:104060002F900895FC010590615070400110D8F721
:10407000809590958E0F9F1F0895FC0161507040B0
:1040800001900110D8F7809590958E0F9F1F08958D
:104090000F931F93CF93DF93182F092FEB018B8181
:1040A00081FD03C08FEF9FEF20C082FF10C04E81C3
:1040B0005F812C813D81421753077CF4E881F981AF
:1040C0009F012F5F3F4F28833983108306C0E88507
:1040D000F985812F1995892B29F72E813F812F5F33
:1040E0003F4F2E833F83812F902FDF91CF911F91E0
:1040F0000F910895FA01AA27283051F1203181F15A
:10410000E8946F936E7F6E5F7F4F8F4F9F4FAF4FDF
:10411000B1E03ED0B4E03CD0670F781F891F9A1FF2
:10412000A11D680F791F8A1F911DA11D6A0F711DA6
:10413000811D911DA11D20D009F468943F912AE0B2
:10414000269F11243019305D3193DEF6CF0108959A
:10415000462F4770405D4193B3E00FD0C9F7F6CFCB
:10416000462F4F70405D4A3318F0495D31FD405293
:10417000419302D0A9F7EACFB4E0A6959795879529
:1041800077956795BA95C9F7009761057105089508
:104190009B01AC010A2E06945795479537952795B4
:1041A000BA95C9F7620F731F841F951FA01D08954C
:0441B000F894FFCFB1
:1041B400010000BC24200000FC010607207DFFFF55
:1041C4008025000003200006000E00010049444C35
:1041D4004500636F62612070616E6A616E67206181
:1041E400746173200A00636F62612070616E6A619A
:1041F4006E67206261776168200A00636F626120E4
:1042040070616E6A616E67206469616D200A006581
:104214006D707479002E2E2E003D3D474820436F6B
:104224006E74726F6C2043656E7465723D3D002D33
:104234002D2D2D2D2D2D2D2D2D2D2D2D2D2D2D2DAA
:104244002D2D2D2D0050696E672020202020202048
:10425400202046656174757265730050696E67420B
:1042640072737420202020537461747344697370D2
:10427400003D3D2020202050696E67204D656E75FD
:10428400202020203D3D003D3D202050696E6742A6
:10429400727374204D656E7520203D3D003D3D20B8
:1042A400204665617475726573204D656E752020B6
:1042B4003D3D0046656174757265204E6F2E253252
:1042C40064002020204120202020202020202020A5
:1042D40020202042202020003D3D20202053442740
:0E42E40073205374617475732020203D3D00DB
:00000001FF
