S01500005465737450726174696B756D322E73726563F0
S1130000FDC000001CC100001AC1000018C100009E
S113001016C1000014C1000012C1000010C100008C
S11300200EC100000CC100000AC1000008C100009C
S113003006C100000C94AF0D0C94C11100C1000066
S1130040FEC00000FCC00000FAC00000F8C00000C0
S1130050F6C00000F4C00000F2C00000F0C00000D0
S1130060EEC00000ECC00000EAC00000E8C00000E0
S1130070E6C00000E4C00000E2C00000E0C00000F0
S1130080DEC00000DCC00000DAC00000D8C0000000
S1130090D6C00000D4C00000D2C000000C94670B8E
S11300A00C94990B0C94CB0B0C94FD0BC8C0000062
S11300B0C6C00000C4C000000C94D60DC0C000002F
S11300C0BEC00000BCC00000BAC00000B8C0000040
S11300D0B6C00000B4C00000B2C00000B0C0000050
S11300E0AEC00000ACC00000AAC00000A8C0000060
S11300F0A6C00000A4C00000A2C00000A0C0000070
S11301009EC000009CC000009AC0000098C000007F
S113011096C0000094C0000092C000000C949F0A96
S11301200C94D10A0C94030B0C94350B88C000007A
S113013086C0000084C0000082C0000080C00000AF
S11301407EC000007CC000007AC0000078C00000BF
S113015076C0000074C0000072C0000070C00000CF
S11301606EC000006CC000006AC0000068C00000DF
S113017066C0000064C0000062C0000060C00000EF
S11301805EC000005CC000005AC0000058C00000FF
S113019056C0000054C0000052C0000050C000000F
S11301A04EC000004CC000004AC0000048C000001F
S11301B046C0000044C0000042C0000040C000002F
S11301C03EC000003CC000003AC0000038C000003F
S11301D036C0000034C0000032C0000030C000004F
S11301E02EC000002CC000002AC0000028C000005F
S11301F026C0000024C0000022C0000011241FBE3D
S1130200CFEFCDBFDFE5DEBF00E00CBF10E2A0E022
S1130210B0E2E8E5FFE200E00BBF02C007900D92F8
S1130220AE30B107D9F722E2AEE0B0E201C01D92D0
S1130230A83DB207E1F70E9406160C94AA17E0CE77
S11302408093A2066093A2068093A5066093A606F7
S11302506093A10608953F936093A2068093A1063C
S11302608093A2066093A1063F918091A8068423FF
S113027008958093A6068093A1060895A1E0B0E0B6
S1130280E4E4F1E00C945216E82F0FB700781982D9
S113029080910F20813019F081E080930F20CE2EC1
S11302A0DD24F601EF5AFF4DB080F601EB5AFF4D05
S11302B0A080F894BB2009F4AAC08B2DDADF8B2D23
S11302C06A2DBEDF1B2DEE24FF2460E0812C30E27A
S11302D0932EF5FE07C09091522080915120982BC7
S11302E019F535C08FB7802B8FBF0000F8948B2D84
S11302F06A2D412FB0DF682F0894E11CF11C809116
S113030000208F5F80930020823030F0823021F013
S1130310833011F0109200206623D9F220915220EC
S113032080915120282B15C0412F80E040FF09C047
S1130330E82FF0E0EE0FFF1FE65EFF4D8082918212
S113034001C090FD8F5F96954695992379F710E04B
S113035020E08FB7802B8FBF10921020222309F446
S11303603FC0112309F43CC03091562080915520A0
S1130370382B562F90E080E070E040E023C050FD21
S113038017C019C030FF13C0981781F4E42FF0E0B0
S1130390EE0FFF1FE65EFF4DE082F182852F8E7F18
S11303A019F4892F71E008C0892F06C08F5F369534
S11303B0332341F701C020FD9F5F20FD4F5F569519
S11303C0269511F05523D9F64093102060951623F5
S11303D0713021F4112311F4EE24FF2460E013C0E2
S11303E08091522090915120892B898390E006C0FE
S11303F0898180FD9F5F898186958983898188238E
S1130400B9F790931020F894112309F062CF81E595
S113041090E2C80ED91EF60180812BDF10920E20C7
S11304208FB7082B0FBF2196ECE00C946B16FC01E0
S113043080E290E0808391831282138280E494E0CE
S113044084839583089590914B20A92FB0E0FD01FA
S1130450EE0FFF1FEA0FFB1FEE0FFF1FED5CFF4DBA
S11304604383677085832370660F660F660F262BA0
S113047024839F5F90934B2008951F93CF93DF9322
S1130480282FC82FD0E0FE01EE0FFF1FEC0FFD1F39
S1130490EE0FFF1FED5CFF4D3581838190E00090EE
S11304A0132002C0959587950A94E2F7182F84309B
S11304B008F414E080914B20281718F020E030E075
S11304C02DC0832F1DD19C01412F50E01695169508
S11304D0812F90E0841B950B8217930764F4FE012F
S11304E0EE0FFF1FEC0FFD1FEE0FFF1FED5CFF4D26
S11304F084818B7F848388279927841B950B82179B
S1130500930764F0FE01EE0FFF1FEC0FFD1FEE0FCB
S1130510FF1FED5CFF4D848184608483C901DF91FA
S1130520CF911F910895FF920F931F93CF93DF9361
S113053010922B2010922C2020912F2030913020CB
S113054080932F209093302040913120509132207D
S1130550421B530B480F591FFF2403C0F394485CFC
S11305605040483C5105D0F74093312050933220FD
S113057080914C20882341F08F1518F410924C2060
S113058003C08F1980934C20C3D3E0912D20F091A8
S11305902E20309709F0199510E000E005C0812F56
S11305A06F2DC3D0082B1F5F60914B201617B8F333
S11305B0002349F080912B2090912C20916080930E
S11305C02B2090932C2010922A20A3E3B0E230E059
S11305D041E050E017C08C91887191F0E32FE695CB
S11305E0E695E695F0E0E65EFF4D832F8770EA011D
S11305F002C0CC0FDD1F8A95E2F720892C2B208BBB
S11306003F5F1696361738F380912B2090912C205B
S1130610CDB7DEB7E5E00C94721610924B2084E05F
S11306208093142094E19093172085E08093182000
S1130630109216209093152081E08093132083E07C
S11306408093192054D310922D2010922E200895B7
S11306501F9310E003C0812F27D01F5F80914B2090
S11306601817C8F31F910895EF92FF921F93CF9329
S1130670DF93EC017B0110E003C0812F15D01F5FD5
S113068080914B201817C8F310922F20109230201D
S1130690C0931120D0931220C70124D3DF91CF91AE
S11306A01F91FF90EF90089590E0E3E3F0E29C0146
S11306B0220F331F280F391FD901AA0FBB1FAE0FFA
S11306C0BF1F15964C91159780912B2090912C204B
S11306D0826080932B2090932C202F5F3F4F220F1A
S11306E0331FE20FF31F1082EDE4F0E2E40FF11D7B
S11306F080E8808381E08C938FE011968C93089539
S113070090E0FC013496AAE1B0E2EE0FFF1FEA0F7D
S1130710FB1F880F991FA80FB91F208131818D916C
S11307209C91281B390BC9010895A0E0B0E0EBE9C6
S1130730F3E00C945016782EF62E9FDE5C01072D04
S113074010E0F801EE0FFF1FE00FF11FEE0FFF1F87
S1130750ED5CFF4D54814381242F30E0852F83705D
S113076090E0019602C0359527958A95E2F7822F8D
S1130770223008F482E0242F30E0B901681B7109AB
S1130780F801EE0FFF1FE00FF11FEF01CC0FDD1F8B
S1130790CD5CDF4D8881843009F4FBC0853030F4B2
S11307A0813071F0823009F096C26EC0803109F454
S11307B0A5C1803209F456C2883009F08CC202C245
S11307C040912B2050912C20CA01926080932B20C1
S11307D090932C208D816981A82FB0E06A3060F05D
S11307E0AA0FBB1FFD01E65EFF4D80819181AE5DC6
S11307F0BF4D8D939C9318C0AA0FBB1FFD01EE5DE6
S1130800FF4D20813181A65EBF4D8D919C91821751
S1130810930718F42150304005C02817390750F4C5
S11308202F5F3F4F208331834860526040932B20D9
S113083050932C20862F8150F801EE0FFF1FE00FFC
S1130840F11FEF01CC0FDD1FCD5CDF4D89838823C1
S1130850B1F4AD8182E0888380912B2090912C208B
S1130860826080932B2090932C20EE0FFF1FEB5C73
S1130870FF4D1082B0E0A35BBF4D80E88C93809164
S1130880152080934C2025C252FF08C0ED81F0E072
S1130890E35BFF4D108280E288830CC2C501B7FE82
S11308A002C080E090E08217930780F0F801EE0F19
S11308B0FF1FE00FF11FEE0FFF1FDF01AD5CBF4D07
S11308C084E08C93EB5CFF4D1082FAC1FF2009F4A5
S11308D002C280914C20882309F0FDC1F801EE0F7B
S11308E0FF1FE00FF11FEE0FFF1FED5CFF4D858131
S11308F090E0EC01CC0FDD1FCE5DDF4D2881398106
S1130900FC01EE0FFF1FE65EFF4D0190F081E02D2C
S11309102E173F0788F4FC01E35BFF4D90819F0D88
S11309209083809118208058981708F4D4C180E8E7
S113093080832F5F3F4F14C0DC01A35BBF4DE217E0
S1130940F307D0F48C918F198C9340E89091172081
S1130950542F591B581708F4BEC14C9321503040F2
S11309602883398380912B2090912C208860809358
S11309702B2090932C20AFC12C91213810F02150C2
S11309802C93FC01E35BFF4D808187FDA4C18F5F45
S113099067C1C501B7FE02C080E090E0F801EE0F28
S11309A0FF1F8217930708F48FC08091152080934E
S11309B04C209F01200F311F220F331FD901AB5C44
S11309C0BF4D8C918F5F8C93F901ED5CFF4D848159
S11309D090E08873907023E0969587952A95E1F7C7
S11309E0682E882309F43EC0CC24DD247F0183E0F3
S11309F090E0E80EF91E4D012FC0D71461F18D2D42
S1130A0090E0EC01CC0FDD1FC80FD91FCC0FDD1F08
S1130A10CD5CDF4D8C8190E08873907073E0969587
S1130A2087957A95E1F76816B1F48D2D26DD2B8133
S1130A30821B9109F7012081A501421B5109481726
S1130A4059072CF08881803111F0883021F4F401A9
S1130A501082CC24C394D39480914B20D81668F28E
S1130A60CC2079F480911420882359F080912B2094
S1130A7090912C20986080932B2090932C2041E01F
S1130A8001C040E09801220F331F200F311FF901EC
S1130A90EE0FFF1FEB5CFF4D90818091142098179F
S1130AA008F41AC180912B2090912C2083608093AC
S1130AB02B2090932C20F901EE0FFF1FED5CFF4DCE
S1130AC080E18083118208C1E00FF11FEE0FFF1F48
S1130AD0DF01AD5CBF4D15962C91159782E08C9388
S1130AE080912B2090912C20826080932B209093D6
S1130AF02C20EB5CFF4D1082E22FAEC052FF0EC0E3
S1130B00ED81F0E0E35BFF4D80E8808380E2888341
S1130B1080912B2090912C2090614AC0C501B7FE92
S1130B2002C080E090E0F801EE0FFF1F40912B20FF
S1130B3050912C208617970770F4E00FF11FEE0FE9
S1130B40FF1FED5CFF4D88E08083546040932B20B1
S1130B5050932C2031C0416040932B2050932C2083
S1130B60E00FF11FEE0FFF1FEB5CFF4D90818091B2
S1130B701420981710F49F5F908390911620992366
S1130B8071F0F801EE0FFF1FE00FF11FEE0FFF1FD2
S1130B90ED5CFF4D8181891720F48F0D818340E046
S1130BA00CC0872D81DD80912B2090912C209260A8
S1130BB080932B2090932C2041E0809115208093EA
S1130BC04C208AC08091152080934C20DF01AA0F0D
S1130BD0BB1FAB5CBF4D8C91882389F1C501B7FE67
S1130BE002C080E090E040912B2050912C206817A7
S1130BF0790790F4F801EE0FFF1FE00FF11FEE0FDD
S1130C00FF1FED5CFF4D80E18083416040932B200A
S1130C1050932C2040E006C0546040932B20509306
S1130C202C2041E0F801EE0FFF1FE00FF11FEE0F43
S1130C30FF1FEB5CFF4D8081815080834DC0ED81AF
S1130C4082E0888380912B2090912C208260809375
S1130C502B2090932C201C92F0E0E35BFF4D80E866
S1130C60808339C08D81A82FB0E0A35BBF4D9C91D8
S1130C709F5F9C9352FD18C097FF03C080E1888357
S1130C802AC082E0888380912B2090912C2082605E
S1130C9080932B2090932C20EE0FFF1FEB5CFF4DD5
S1130CA0108280E88C9317C080911920981740F027
S1130CB0872DFADC80912B2090912C20906105C027
S1130CC080912B2090912C20946080932B209093E2
S1130CD02C2041E001C040E0842FCDB7DEB7EEE028
S1130CE00C946916FC01009709F019950895109267
S1130CF0512010925220109255201092562010929A
S1130D005320109254201092572010925820089586
S1130D108091532090915120892B41F0E091112032
S1130D20F0911220309711F080E0199580915420B1
S1130D3090915220892B41F0E0911120F0911220E2
S1130D40309711F081E019950895613069F580912B
S1130D505A208F5F80935A20813039F440935B206E
S1130D6050935C2010925F200CC080915B20909186
S1130D705C20480F591F5695479540935B2050932C
S1130D805C2080915A20843031F410925A2081E002
S1130D9080935F2008959FB7F894E0E0F2E08081AB
S1130DA0846080839FBF0895623061F580915920EB
S1130DB08F5F80935920813039F440935D205093A4
S1130DC05E20109260200CC080915D2090915E2086
S1130DD0480F591F5695479540935D2050935E20C8
S1130DE080915920843031F41092592081E080930D
S1130DF0602008959FB7F894E0E0F2E08081886075
S1130E0080839FBF08951F93CF93DF93CDB7DEB741
S1130E102B97CDBFDEBFBE016F5F7F4F80E092E0B6
S1130E2072D5AE01485F5F4F61E080E092E0C7D5C4
S1130E308A819B819F7890619B8396E09D83817ECC
S1130E4080618A831C82BE016F5F7F4F80E092E0E5
S1130E5006D565EA76E080E092E004D311E01887D5
S1130E6019868A85807F81608A87AE01485F5F4FDB
S1130E7061E080E092E06AD5188788E08987AE0156
S1130E80485F5F4F62E080E092E060D580E092E0EE
S1130E903FD32B96CDBFDEBFDF91CF911F91089535
S1130EA0BF92CF92DF92EF92FF920F931F93CF9353
S1130EB0DF931F92CDB7DEB788E08093060680E00B
S1130EC090E0019685339105E1F788E0809305066B
S1130ED080E090E0019685339105E1F70F2EFBE267
S1130EE0BF2EF02DB98280EA99E00E94CC0FC12C6C
S1130EF0D12C760100E412E42FE030E043E0BE019F
S1130F006F5F7F4F80EA99E00E94FB0F00E616E0D6
S1130F10FF24F394F801F682B982BE016F5F7F4F1C
S1130F2080EA99E00E941510F801F682E0EAF9E0FF
S1130F30818185FFFDCF80EA8093A009E0EAF9E092
S1130F40818186FFFDCFE0EAF9E080E4818380813E
S1130F50BE016F5F7F4F80EA99E00E942B108BE205
S1130F608983BE016F5F7F4F80EA99E00E9415106C
S1130F7081E080936606E0EAF9E0818185FFFDCF98
S1130F8086EA8093A009E0EAF9E0818186FFFDCF3B
S1130F90E0EAF9E080E481838081BE016F5F7F4FE6
S1130FA080EA99E00E942B108BE28983BE016F5F77
S1130FB07F4F80EA99E00E94151081E080936606D5
S1130FC0E0EAF9E0818185FFFDCF88EC8093A009F8
S1130FD0E0EAF9E0818186FFFDCFE0EAF9E080E410
S1130FE081838081BE016F5F7F4F80EA99E00E9418
S1130FF02B108BE28983BE016F5F7F4F80EA99E0FB
S11310000E94151081E080936606E0EAF9E0818190
S113101085FFFDCF82EA8093A009E0EAF9E08181AF
S113102086FFFDCFE0EAF9E080E481838081BE01A0
S11310306F5F7F4F80EA99E00E942B108BE28983D7
S1131040BE016F5F7F4F80EA99E0EFD781E0809324
S11310506606E0EAF9E0818185FFFDCF8FE28093A7
S1131060A009E0EAF9E0818186FFFDCFE0EAF9E03A
S113107080E481838081BE016F5F7F4F80EA99E0C5
S1131080EAD78BE28983BE016F5F7F4F80EA99E0E4
S1131090CCD781E080936606E0EAF9E0818185FFA0
S11310A0FDCF88EF8093A009E0EAF9E0818186FF13
S11310B0FDCFE0EAF9E080E481838081BE016F5FC7
S11310C07F4F80EA99E0C7D78BE28983BE016F5FC7
S11310D07F4F80EA99E0A9D781E080936606E0EA31
S11310E0F9E0818185FFFDCF1092A009E0EAF9E0E3
S11310F0818186FFFDCFE0EAF9E080E4818380818D
S1131100BE016F5F7F4F80EA99E0A5D78BE28983A8
S1131110BE016F5F7F4F80EA99E087D781E08093BB
S11311206606E0EAF9E0818185FFFDCF81E28093E4
S1131130A009E0EAF9E0818186FFFDCFE0EAF9E069
S113114080E481838081BE016F5F7F4F80EA99E0F4
S113115082D78BE28983BE016F5F7F4F80EA99E07B
S113116064D781E080936606E0EAF9E0818185FF37
S1131170FDCF81E88093A009E0EAF9E0818186FF50
S1131180FDCFE0EAF9E080E481838081BE016F5FF6
S11311907F4F80EA99E05FD78BE28983BE016F5F5E
S11311A07F4F80EA99E041D781E080936606E0EAC8
S11311B0F9E0818185FFFDCF81E28093A009E0EA17
S11311C0F9E0818186FFFDCFE0EAF9E080E48183E4
S11311D08081BE016F5F7F4F80EA99E03CD78BE24C
S11311E08983BE016F5F7F4F80EA99E01ED781E05B
S11311F080936606E0EAF9E0818185FFFDCF8FEAFE
S11312008093A009E0EAF9E0818186FFFDCFE0EA5E
S1131210F9E080E481838081BE016F5F7F4F80EAC3
S113122099E019D70F90DF91CF911F910F91FF9003
S1131230EF90DF90CF90BF900895FF920F931F938C
S1131240CF93DF931F92CDB7DEB7082FF62E142F5E
S11312501DD70F70006B8BE28983BE016F5F7F4FD8
S113126080EA99E0E2D681E080936606E0EAF9E05C
S1131270918195FFFDCF0093A009E0EAF9E0818117
S113128086FFFDCFE0EAF9E080E481838081BE013E
S11312906F5F7F4F80EA99E0DED60F2D0F770295BE
S11312A00F7000618BE28983BE016F5F7F4F80EA1C
S11312B099E0BBD681E080936606E0EAF9E081819B
S11312C085FFFDCF0093A009E0EAF9E0818186FF64
S11312D0FDCFE0EAF9E080E481838081BE016F5FA5
S11312E07F4F80EA99E0B7D60F2D0F708BE2898388
S11312F0BE016F5F7F4F80EA99E097D681E08093CB
S11313006606E0EAF9E0818185FFFDCF0093A0093C
S1131310E0EAF9E0818186FFFDCFE0EAF9E080E4CC
S113132081838081BE016F5F7F4F80EA99E093D60D
S11313308BE28983BE016F5F7F4F80EA99E075D6A7
S113134081E080936506E0EAF9E0818185FFFDCFC5
S11313501093A009E0EAF9E0818186FFFDCFE0EA7D
S1131360F9E080E48183808181E080936606BE0198
S11313706F5F7F4F80EA99E06ED60F90DF91CF9137
S11313801F910F91FF9008950F931F93CF93DF93B5
S11313901F92CDB7DEB781E690E273D681DD8BE292
S11313A08983BE016F5F7F4F80EA99E03ED681E07A
S11313B080936606E0EAF9E0818185FFFDCF80E451
S11313C08093A009E0EAF9E0818186FFFDCFE0EA9D
S11313D0F9E080E481838081BE016F5F7F4F80EA02
S11313E099E039D600E00AC040E0612F802F25DF64
S11313F01F5F1038C9F70F5F043011F010E0F4CF0D
S11314000F90DF91CF911F910F910895E3E1F0E2E6
S113141084E0818384E1848395E0958313828283CD
S113142081E0808383E0868310922D2010922E2009
S1131430E1E5F0E280E48083118212821382E5E523
S1131440F0E280E8808311821282138223E04AE072
S113145060E080E00E94230260E070E08EE391E0AF
S113146003C908954FB7F894282F392F211582E026
S1131470380729F46093D2227093D32207C0203412
S1131480324021F46093D0227093D1224FBF08954B
S1131490811522E0920769F48091622291E0980F0D
S11314A090936222811114C062E081E00C942715AC
S11314B008958034924061F48091612291E0980F04
S11314C090936122811104C062E082E00C9427159C
S11314D00895811522E0920761F48091622281507F
S11314E080936222811113C062E081E00C94331571
S11314F008958034924059F4809161228150809300
S11315006122811104C062E082E00C9433150895D5
S11315101F93CF93DF93EC011FB7F894B9DF888151
S1131520816088831FBF9FB7F894EAECF2E281815F
S11315308F5F81839FBFDF91CF911F9108951F9289
S11315400F920FB60F9211240BB60F922F933F9365
S11315504F935F936F937F938F939F93AF93BF93B7
S1131560EF93FF934091240250912502E091D222FF
S1131570F091D32261E080E092E01995FF91EF9120
S1131580BF91AF919F918F917F916F915F914F9197
S11315903F912F910F900BBE0F900FBE0F901F9095
S11315A018951F920F920FB60F9211240BB60F923B
S11315B02F933F934F935F936F937F938F939F9357
S11315C0AF93BF93EF93FF9340912C0250912D0260
S11315D0E091D222F091D32262E080E092E019956A
S11315E0FF91EF91BF91AF919F918F917F916F91F7
S11315F05F914F913F912F910F900BBE0F900FBEB3
S11316000F901F9018951F920F920FB60F921124EE
S11316100BB60F922F933F934F935F936F937F93E8
S11316208F939F93AF93BF93EF93FF9340913402B3
S113163050913502E091D222F091D32264E080E00F
S113164092E01995FF91EF91BF91AF919F918F9186
S11316507F916F915F914F913F912F910F900BBEAE
S11316600F900FBE0F901F9018951F920F920FB6F8
S11316700F9211240BB60F922F933F934F935F93C6
S11316806F937F938F939F93AF93BF93EF93FF9346
S113169040913C0250913D02E091D222F091D3223C
S11316A068E080E092E01995FF91EF91BF91AF91CE
S11316B09F918F917F916F915F914F913F912F9166
S11316C00F900BBE0F900FBE0F901F9018951F9296
S11316D00F920FB60F9211240BB60F922F933F93D4
S11316E04F935F936F937F938F939F93AF93BF9326
S11316F0EF93FF934091640250916502E091D022F0
S1131700F091D12261E080E492E01995FF91EF918C
S1131710BF91AF919F918F917F916F915F914F9105
S11317203F912F910F900BBE0F900FBE0F901F9003
S113173018951F920F920FB60F9211240BB60F92A9
S11317402F933F934F935F936F937F938F939F93C5
S1131750AF93BF93EF93FF9340916C0250916D024E
S1131760E091D022F091D12262E080E492E01995D8
S1131770FF91EF91BF91AF919F918F917F916F9165
S11317805F914F913F912F910F900BBE0F900FBE21
S11317900F901F9018951F920F920FB60F9211245D
S11317A00BB60F922F933F934F935F936F937F9357
S11317B08F939F93AF93BF93EF93FF9340917402E2
S11317C050917502E091D022F091D12264E080E43E
S11317D092E01995FF91EF91BF91AF919F918F91F5
S11317E07F916F915F914F913F912F910F900BBE1D
S11317F00F900FBE0F901F9018951F920F920FB667
S11318000F9211240BB60F922F933F934F935F9334
S11318106F937F938F939F93AF93BF93EF93FF93B4
S113182040917C0250917D02E091D022F091D1222E
S113183068E080E492E01995FF91EF91BF91AF9138
S11318409F918F917F916F915F914F913F912F91D4
S11318500F900BBE0F900FBE0F901F901895DF9244
S1131860EF92FF920F931F93CF93DF93EC018B01C1
S1131870C11522E0D20781F461E270E082E00E94A7
S11318803E15E82EF12C60E270E082E00E943E15E5
S1131890FE2CEE24E82A12C08034924061F565E201
S11318A070E082E00E943E15E82EF12C64E270E0C4
S11318B082E00E943E15FE2CEE24E82ADFB6F8945E
S11318C0CE01E6DD888192E09883EC86FD86F801FE
S11318D025813681288F398F92819A8394819C83C4
S11318E093819B839181998381709081892B8883D3
S11318F0CE01EFDDDFBEDF91CF911F910F91FF90FD
S1131900EF90DF900895FF920F931F93CF93DF938F
S1131910EC018B01FFB6F894BBDD8881807CF80173
S11319208083888D998D858396838A8182838C8137
S113193084838B81838389818183CE01CADDFFBE49
S1131940DF91CF911F910F91FF900895CF92DF9275
S1131950EF92FF920F931F93CF93DF937C01D62EC8
S11319608A01862F837029F4962F9695969582E0A6
S113197002C0962F80E090FF8F5FE701A09698E069
S1131980899FC00DD11D1124CFB6F894C70180DD05
S1131990F8018081888382818A8381818983D0FE52
S11319A002C083818E83C70194DDCFBEDF91CF91C6
S11319B01F910F91FF90EF90DF90CF900895CF92F9
S11319C0DF92EF92FF920F931F93CF93DF937C01EB
S11319D0D62E8A01862F837029F4962F9695969594
S11319E082E002C0962F80E090FF8F5FE701A0960F
S11319F098E0899FC00DD11D1124CFB6F894C7017A
S1131A0047DD8881F80180838A818283898181838B
S1131A10D0FE02C08E818383C7015BDDCFBEDF9120
S1131A20CF911F910F91FF90EF90DF90CF90089589
S1131A30CF93DF93E0916322F0916422848183FF4A
S1131A4008C08860848383E0838386EF80936D225B
S1131A5083C0982F947131F083E083838FEF809358
S1131A606D227AC086FF43C0C3E6D2E2AA81BB815D
S1131A708C819D8114962D913C9115978217930723
S1131A806CF49C012F5F3F4F2093672230936822B0
S1131A90A80FB91F11968C9187835EC0809169222B
S1131AA090916A2218962D913C9119978217930769
S1131AB0C8F420916B22222321F0868181608683E1
S1131AC04BC016962D913C911797AC014F5F5F4F19
S1131AD04093692250936A22D901A80FB91F8C91AF
S1131AE087833AC083E0838310926D2235C08823B4
S1131AF084F5A3E6B2E21296CD91DC911397169683
S1131B008D919C9117972885398582179307D8F46E
S1131B106E817F819C012F5F3F4F20936922309318
S1131B206A224781DB01A80FB91F4C9388859985E8
S1131B302817390718F482E083830EC087E0838373
S1131B4010926D2209C083E0838389EF80936D2214
S1131B5003C08BEF80936D22DF91CF9108951F9284
S1131B600F920FB60F9211240BB60F922F933F933F
S1131B704F935F936F937F938F939F93AF93BF9391
S1131B80EF93FF9355DFFF91EF91BF91AF919F9139
S1131B908F917F916F915F914F913F912F910F9012
S1131BA00BBE0F900FBE0F901F9018951F920F92AF
S1131BB00FB60F9211240BB60F922F933F934F93AE
S1131BC05F936F937F938F939F93AF93BF93EF93A1
S1131BD0FF932EDFFF91EF91BF91AF919F918F9172
S1131BE07F916F915F914F913F912F910F900BBE19
S1131BF00F900FBE0F901F901895CF92DF92EF9227
S1131C00FF920F931F93CF93DF93EC01D901C80187
S1131C10B695A79597958795481759076A077B073F
S1131C2078F46A017B01CC0CDD1CEE1CFF1CC9019D
S1131C30B801A70196010E942A162150310902C059
S1131C4020E030E0832F8F708F832E83DF91CF913C
S1131C501F910F91FF90EF90DF90CF900895EF9236
S1131C60FF920F931F93CF93DF93EC017B010097B7
S1131C7009F47BC1803C910521F460E180E0E7D662
S1131C8074C18038914021F462E080E0E0D66DC1F7
S1131C90C11581E0D80721F461E080E0D8D665C1A0
S1131CA0C038E3E0DE0721F461E081E0D0D65DC115
S1131CB0C039F3E0DF0721F461E082E0C8D655C102
S1131CC0C11532E0D30721F462E081E0C0D64DC1F2
S1131CD0C03482E0D80721F462E082E0B8D645C17E
S1131CE0C032E3E0DE0721F464E082E0B0D63DC117
S1131CF0C115F8E0DF0721F461E083E0A8D635C11F
S1131D00C11539E0D30721F461E084E0A0D62DC1E8
S1131D10C1158AE0D80721F461E085E098D625C191
S1131D20C115EBE0DE0721F461E086E090D61DC129
S1131D30C034F8E0DF0721F462E083E088D615C1FF
S1131D40C03439E0D30721F462E084E080D60DC1C9
S1131D50C0348AE0D80721F462E085E078D605C172
S1131D60C039E8E0DE0721F464E083E070D6FDC00A
S1131D70C039F9E0DF0721F464E084E068D6F5C0F7
S1131D80C0393AE0D30721F464E085E060D6EDC0C1
S1131D90C0398BE0D80721F464E086E058D6E5C06A
S1131DA0C03CE8E0DE0721F468E083E050D6DDC003
S1131DB0C03CF9E0DF0721F468E084E048D6D5C0F0
S1131DC0C03A38E0D30761F460E183E040D6E0EA4A
S1131DD0F8E084818F7E8483F7012481225043C0FC
S1131DE0C03AF9E0DF0721F460E184E030D6BDC0F9
S1131DF0C03A3AE0D30721F460E185E028D6B5C0C3
S1131E00C03A8BE0D80721F460E186E020D6ADC06B
S1131E10C03BE8E0DE0721F460E283E018D6A5C009
S1131E20C03BF9E0DF0721F460E284E010D69DC0F6
S1131E30C03834E0D30721F460E483E008D695C0C9
S1131E40C03A84E0D80721F460E485E000D68DC070
S1131E508C818F7E8C83FB0124812250CE01C03A79
S1131E60F8E0DF0731F480914E0684FD86C011E16D
S1131E7085C0803B38E0930779F0803AE9E09E071B
S1131E8031F430916E0634FD7CC019E110C0803B02
S1131E90F9E09F07A9F001C015E1803A3AE0930701
S1131EA031F480918E0684FD6EC011E20CC0803A3C
S1131EB09B4049F48091AE0684FD04C019E203C03E
S1131EC01DE101C01DE2E12FE695E695E69530E2BD
S1131ED0E39FF0011124FA5F177081E090E0012E76
S1131EE002C0880F991F0A94E2F78183223010F010
S1131EF040E001C040E4DF015096A10FB11D3FB79F
S1131F00F8942C9127702C939C91942B9C933FBF15
S1131F1085838D81806C8D83F70184818D7F8130F1
S1131F2021F48D8182608D8303C08D818D7F8D83AB
S1131F30F7018581882321F08D8184608D8303C01E
S1131F408D818B7F8D83F701408151816281738103
S1131F5000E018E428EE31E0CE014FDE8C81886089
S1131F608C838C8180618C8310C08C818F7E8C8368
S1131F70F70124812250CE017CCF15E180EA98E05C
S1131F8086CF1DE194CF15E29ECFDF91CF911F91B3
S1131F900F91FF90EF900895803A28E0920721F482
S1131FA060E183E054C50895803B28E0920721F462
S1131FB060E283E04CC50895803A29E0920721F459
S1131FC060E184E044C50895803B29E0920721F450
S1131FD060E284E03CC50895803A2AE0920721F447
S1131FE060E185E034C50895803A9B4019F460E1CE
S1131FF086E02DC508950F931F93CF93DF9300D0F0
S113200000D0CDB7DEB709831A832B833C834D837D
S11320101E82BE016F5F7F4F22DE2696CDBFDEBFDC
S1132020DF91CF911F910F910895FB018081E82FDB
S1132030E695E695E69540E2E49FF0011124FA5F07
S1132040877021E030E0A90102C0440F551F8A9532
S1132050E2F746830895FB018081E82FE695E69533
S1132060E69540E2E49FF0011124FA5F877021E0D5
S113207030E0A90102C0440F551F8A95E2F7458359
S1132080089580936E2290936F22089520E8829F92
S1132090C0011124860F911DE0916E22F0916F22F0
S11320A0E80FF91F40830895FC010396818392830E
S11320B02FEF3FEF23833483858396838783908731
S11320C010820895FC01108611860895CF93DF9342
S11320D09C01FB01DC011196CD91DC911297C28326
S11320E0D3838C819D81848395838C819D81DC0144
S11320F012966D937C9313976C837D83208731872D
S1132100F90180818F5F8083DF91CF910895CF9310
S1132110DF93FC01A085B185C281D381848195813F
S11321208C839D83C481D581828193818A839B839F
S11321301196CD91DC911297CE17DF0731F48C8183
S11321409D8111968D939C931297108611868C9184
S113215081508C93DF91CF9108950F931F938B013E
S113216071E1FC017083319762E26083319723E36C
S11321702083012E000C220B330B319700833197FF
S113218010833197208331971082319720E8208380
S113219031971082319722E02083319723E0208306
S11321A0319724E02083319725E02083319726E07E
S11321B02083319727E02083319728E020833197CB
S11321C029E02083319720E1208331977083319770
S11321D022E12083319723E12083319724E1208376
S11321E0319725E12083319726E12083319727E138
S11321F02083319728E12083319729E12083319787
S113220020E22083319721E2208331976083319744
S113221023E220833197408331975083319726E21C
S11322202083319727E22083319728E22083319756
S113223029E22083319720E32083319721E320830F
S113224087971F910F910895F894E0E7F0E0838158
S11322508A7F8383E0E0F8E080EA9FE086A397A387
S113226091E09683A0EAB0E012968C911297816077
S113227012968C9390837894A091C622B091C72231
S11322800D900DBE0D900EBEFF91EF91DF91CF9199
S1132290BF91AF919F918F917F916F915F914F917A
S11322A03F912F911F910F91FF90EF90DF90CF906E
S11322B0BF90AF909F908F907F906F905F904F9062
S11322C03F902F901F900F900FBE0F90089581E0C4
S11322D008950F920FB6F8940F921F9211242F9223
S11322E03F924F925F926F927F928F929F92AF92A2
S11322F0BF92CF92DF92EF92FF920F931F932F938F
S11323003F934F935F936F937F938F939F93AF9379
S1132310BF93CF93DF93EF93FF93A091C622B09125
S1132320C7220DB60D920EB60D9224D3A091C622EB
S1132330B091C7220D900DBE0D900EBEFF91EF918E
S1132340DF91CF91BF91AF919F918F917F916F91C9
S11323505F914F913F912F911F910F91FF90EF90BB
S1132360DF90CF90BF90AF909F908F907F906F90B1
S11323705F904F903F902F901F900F900FBE0F9043
S113238008950F920FB6F8940F921F9211242F9272
S11323903F924F925F926F927F928F929F92AF92F1
S11323A0BF92CF92DF92EF92FF920F931F932F93DE
S11323B03F934F935F936F937F938F939F93AF93C9
S11323C0BF93CF93DF93EF93FF93A091C622B09175
S11323D0C7220DB60D920EB60D927CD18111CAD2D0
S11323E0A091C622B091C7220D900DBE0D900EBED5
S11323F0FF91EF91DF91CF91BF91AF919F918F9119
S11324007F916F915F914F913F912F911F910F9108
S1132410FF90EF90DF90CF90BF90AF909F908F9000
S11324207F906F905F904F903F902F901F900F90F0
S11324300FBE0F901895CF93DF93EC0145D1CE01D9
S11324405CD4EC011AD2CE01DF91CF910895CF93E1
S1132450DF93009729F0EC0137D1CE01E3D40DD2FC
S1132460DF91CF910895C9E9D2E288818230F0F3F7
S113247030DFFBCF4F925F926F927F928F929F9249
S1132480AF92BF92CF92DF92EF92FF920F931F937E
S1132490CF93DF934C01EB015A01290181E290E0D3
S11324A0CADF3C01009709F4D4C0C114D10409F077
S11324B0CCC0C501C0DFF301878B908F892B19F441
S11324C0C301C5DFC6C0F1E0AF1AB108F3018789C3
S11324D0908DA80EB91E8881818F8881882381F010
S11324E0D3015A96FE0131969E01285F3F4FEF01BA
S11324F081918D938881882319F0E217F307B9F746
S1132500F30110A2102F053008F014E0F301168B2C
S1132510E3012296CE01D6DDC3010C96D3DDF3018F
S11325206086718685E090E0811B91098487958798
S1132530628A738AA201B401C5010FDEF3018083AC
S11325409183E114F10419F0F701608271820FB6EE
S1132550F8940F92809179228F5F809379228091F1
S1132560C6229091C722892B91F56092C62270925F
S1132570C722809179228130C9F50F2EF9E9EF2E17
S1132580F2E2FF2EF02D0F2EF6ECCF2EF2E2DF2E2C
S1132590F02DC70189DDF9E0EF0EF11CEC14FD0408
S11325A0C1F780E992E280DD87E892E27DDD8AE787
S11325B092E27ADD80E992E28093852290938622EA
S11325C087E892E280938322909384220FC08091C3
S11325D0752281110BC0E091C622F091C722868931
S11325E0081720F06092C6227092C722809171224F
S11325F08F5F80937122F3018689909176229817D8
S113260010F48093762290E09C01220F331F220F56
S1132610331F220F331F820F931FBE0187569D4D18
S113262055DD0F900FBE80917522882351F0E09103
S1132630C622F091C7228689801728F44ADE81E0F9
S113264009C081E007C081E005C0FC01C78AD08EC3
S11326503ACF8FEFDF91CF911F910F91FF90EF90C1
S1132660DF90CF90BF90AF909F908F907F906F90AE
S11326705F904F900895AF92BF92CF92DF92EF9206
S1132680FF920F93A12CB12CC12CD12CE12CF12C55
S113269000E020E030E045E550E069E070E283E3EB
S11326A092E1E8DE813041F4F8948093752210922F
S11326B0772210927822C8DD0F91FF90EF90DF907F
S11326C0CF90BF90AF900895809170228F5F8093D8
S11326D070220895DF92EF92FF920F931F93CF938E
S11326E0DF93809170228111B3C080917722909101
S11326F0782201968093772290937822E090772233
S1132700F0907822E114F10499F58091852290915A
S11327108622209183223091842220938522309333
S113272086228093832290938422809172228F5FE9
S113273080937222E0918522F0918622808181111A
S113274007C08FEF9FEF809307209093082010C05D
S1132750E0918522F09186220580F681E02D0680A5
S1132760F781E02D82819381809307209093082044
S11327708091072090910820E816F90610F4D12CD6
S11327804FC0D12CE0918522F09186229081911145
S113279007C08FEF9FEF809307209093082040C0DD
S11327A0E0918522F09186220580F681E02DC68194
S11327B0D7812A813B81E216F30628F4209307206F
S11327C0309308202DC08E010E5F1F4FC8019FDC7F
S11327D08C899D89892B19F0CE010C9698DC2E8961
S11327E080917622821710F42093762230E0C9017A
S11327F0880F991F880F991F880F991F820F931FA5
S1132800B80187569D4D62DCE091C622F091C72243
S11328109E898689981708F4B5CFDD24D394B2CF66
S1132820E091C622F091C722868990E0FC01EE0F68
S1132830FF1FEE0FFF1FEE0FFF1F8E0F9F1FFC01E8
S1132840E756FD4D8081823048F0DD24D39406C0E4
S1132850809174228F5F80937422D12C8091732293
S1132860882311F0DD24D3948D2DDF91CF911F9116
S11328700F91FF90EF90DF900895DF92EF92FF9217
S11328800F931F93CF93DF930FB6F8940F92809119
S113289070228150809370228091702281115DC0DA
S11328A080917922811130C05BC0D7011596ED91DA
S11328B0FC911697C681D781CE010C9628DC8E0137
S11328C00E5F1F4FC80123DC2E8980917622821768
S11328D010F42093762230E0C901880F991F880FE5
S11328E0991F880F991F820F931FB80187569D4D1A
S11328F0EDDBE091C622F091C7229E898689981764
S113290058F0D092732208C00F2EFAE7EF2EF2E2AD
S1132910FF2EF02DDD24D394F70180818111C5CFE2
S113292080917422882391F080917422882371F01D
S1132930C1E0D0DE8111C093732280917422815052
S113294080937422809174228111F3CF8091732239
S1132950813029F4BEDC81E003C080E001C080E066
S11329600F900FBEDF91CF911F910F91FF90EF90C9
S1132970DF90089580917022882321F081E0809374
S113298073220895109273228091762290E0FC01C4
S1132990EE0FFF1FEE0FFF1FEE0FFF1F8E0F9F1F87
S11329A0FC01E756FD4D8081811117C0809176228C
S11329B08150809376228091762290E0FC01EE0F84
S11329C0FF1FEE0FFF1FEE0FFF1F8E0F9F1FFC0157
S11329D0E756FD4D8081882349F38091762290E06B
S11329E09C01220F331F220F331F220F331F280F86
S11329F0391FD901A756BD4D1196ED91FC9112973F
S1132A000280F381E02D1196ED93FC9312972456E6
S1132A103D4DE217F30729F422813381FD0121831F
S1132A203283FC01EE0FFF1FEE0FFF1FEE0FFF1F9F
S1132A308E0F9F1FFC01E756FD4D0180F281E02DB2
S1132A40868197818093C6229093C72208959FB769
S1132A50F894E82FF0E0E059FF4F609580816823F7
S1132A6060839FBF08959FB7F894E82FF0E0E05982
S1132A70FF4F8081682B60839FBF08954091CA01F6
S1132A80E62FF72F8093CA0184914093CA010895D9
S1132A90CF93DF93FC01709620E030E0C62FD0E0A6
S1132AA0DE01022E02C0B595A7950A94E2F7A0FDB7
S1132AB050832F5F3F4F31962830310589F740FF0F
S1132AC00AC041FF03C0FC01658302C0FC016683A8
S1132AD0FC01618302C0FC016283DF91CF91089500
S1132AE043E050E061E080EE97E0D2DF43E050E065
S1132AF062E080EE97E0CCDF43E050E060E180E606
S1132B0096E0C6DF41E050E460E280E696E0C0DF94
S1132B1040E05BE160E280E896E0BADF40E05BE140
S1132B2062E080EA96E0B4DF40E05BE164E080EAE2
S1132B3096E0AEDF43E050E062E080E696E0A8DF96
S1132B4043E050E068E080E696E0A2DF43E050E036
S1132B5068E080EA96E09CDF43E050E061E080E6D4
S1132B6096E096DF43E050E068E080E096E090DF96
S1132B7041E050E060E180E896E08ACF0895109249
S1132B80A7088CE08093A6081092A30883E08093A2
S1132B90A50888E18093A4080895CF93DF93CDB767
S1132BA0DEB72B97CDBFDEBFBE016F5F7F4F80E0E6
S1132BB092E00E94830CAE01485F5F4F61E080E0C9
S1132BC092E00E94DF0C9A818B818F7880618B83E5
S1132BD0892F817E8A831C8286E08D8381E08887A9
S1132BE01986BE016F5F7F4F80E092E00E942F0C38
S1132BF0AE01485F5F4F61E080E092E00E94A60C66
S1132C002B96CDBFDEBFDF91CF91089569DF0E947F
S1132C1003070E94C4090E94060A789487E08093FF
S1132C20A200BBDF80E18093850688E0809345069F
S1132C308093410684E080934606809342069FDF9A
S1132C4088EC90E08093C8229093C92214DD80E040
S1132C5090E00895A1E21A2EAA1BBB1BFD010DC032
S1132C60AA1FBB1FEE1FFF1FA217B307E407F50738
S1132C7020F0A21BB30BE40BF50B661F771F881F14
S1132C80991F1A9469F760957095809590959B01AA
S1132C90AC01BD01CF0108952F923F924F925F92F4
S1132CA06F927F928F929F92AF92BF92CF92DF9258
S1132CB0EF92FF920F931F93CF93DF93CDB7DEB7BD
S1132CC0CA1BDB0BCDBFDEBF19942A88398848881C
S1132CD05F846E847D848C849B84AA84B984C88434
S1132CE0DF80EE80FD800C811B81AA81B981CE0F2B
S1132CF0D11DCDBFDEBFED010895CF93DF938230A8
S1132D00910510F482E090E0E091D622F091D72270
S1132D1020E030E0C0E0D0E0309711F140815181F3
S1132D2048175907C0F04817590761F48281938105
S1132D30209719F08A839B832BC08093D62290938B
S1132D40D72226C02115310519F04217530718F46C
S1132D509A01BE01DF01EF010280F381E02DDCCF97
S1132D602115310509F1281B390B2430310590F464
S1132D7012968D919C9113976115710521F0FB01B9
S1132D808283938304C08093D6229093D722FD013B
S1132D90329644C0FD01E20FF31F819391932250B8
S1132DA031092D933C933AC02091D4223091D522FD
S1132DB0232B41F420910320309104202093D4222A
S1132DC03093D52220910120309102202115310524
S1132DD041F42DB73EB74091052050910620241BA5
S1132DE0350BE091D422F091D522E217F307A0F439
S1132DF02E1B3F0B2817390778F0AC014E5F5F4F4D
S1132E002417350748F04E0F5F1F4093D422509388
S1132E10D5228193919302C0E0E0F0E0CF01DF91ED
S1132E20CF9108950F931F93CF93DF93009709F4E5
S1132E308CC0FC013297128213820091D622109129
S1132E40D7220115110581F420813181820F931F4E
S1132E502091D4223091D5222817390779F5E093AF
S1132E60D422F093D52271C0D80140E050E0AE17CF
S1132E70BF0750F412962D913C911397AD01211583
S1132E80310509F1D901F3CF9D01DA01228333839E
S1132E9060817181860F971F8217930769F4EC0193
S1132EA028813981260F371F2E5F3F4F20833183BE
S1132EB08A819B8182839383452B29F4E093D622D4
S1132EC0F093D72242C01296ED93FC931397ED0131
S1132ED0499159919E01240F351FE217F30771F4AC
S1132EE080819181840F951F02968D939C931197F5
S1132EF08281938112968D939C931397E0E0F0E086
S1132F00D80112968D919C911397009719F0F801AE
S1132F108C01F6CF8D919C9198012E5F3F4F820FCB
S1132F20931F2091D4223091D5222817390769F4B0
S1132F30309729F41092D6221092D72202C012821E
S1132F4013820093D4221093D522DF91CF911F9145
S10B2F500F910895F894FFCFDE
S1112F58010000D8222000FFFF49444C450030
S9030000FC
