:1000000046C2000065C2000063C2000061C2000079
:100010005FC200005DC200005BC2000059C2000068
:1000200057C2000055C2000053C2000051C2000078
:100030004FC200000C94890F0C94F61449C20000C2
:1000400047C2000045C2000043C2000041C2000098
:100050003FC200003DC200003BC2000039C20000A8
:1000600037C2000035C2000033C2000031C20000B8
:100070002FC200002DC200002BC2000029C20000C8
:1000800027C2000025C2000023C2000021C20000D8
:100090001FC200001DC200001BC200000C94410DD5
:1000A0000C94730D0C94A50D0C94D70D11C2000087
:1000B0000FC200000DC200000C94B00F09C2000076
:1000C00007C2000005C2000003C2000001C2000018
:1000D000FFC10000FDC10000FBC10000F9C100002C
:1000E000F7C10000F5C10000F3C10000F1C100003C
:1000F000EFC10000EDC10000EBC10000E9C100004C
:10010000E7C10000E5C10000E3C10000E1C100005B
:10011000DFC10000DDC10000DBC100000C94790CE0
:100120000C94AB0C0C94DD0C0C940F0DD1C10000A1
:10013000CFC10000CDC10000CBC10000C9C100008B
:10014000C7C10000C5C10000C3C10000C1C100009B
:10015000BFC10000BDC10000BBC10000B9C10000AB
:10016000B7C10000B5C10000B3C10000B1C10000BB
:10017000AFC10000ADC10000ABC10000A9C10000CB
:10018000A7C10000A5C10000A3C10000A1C10000DB
:100190009FC100009DC100009BC1000099C10000EB
:1001A00097C1000095C1000093C1000091C10000FB
:1001B0008FC100008DC100008BC1000089C100000B
:1001C00087C1000085C1000083C1000081C100001B
:1001D0007FC100007DC100007BC1000079C100002B
:1001E00077C1000075C1000073C1000071C100003B
:1001F0006FC100006DC100006BC100000000000075
:10020000000000202020202000205050500000003E
:10021000005050F850F850502078A07028F020C0BE
:10022000C810204098186090A040A89068602040B6
:10023000000000001020404040201040201010100E
:100240002040005020F8205000002020F8202000FE
:1002500000000000602040000000F80000000000E6
:10026000000000606000081020408000708898A89E
:10027000C8887020602020202070708808102040DE
:10028000F8F810201008887010305090F81010F80E
:1002900080F008088870304080F0888870F8081076
:1002A00020404040708888708888707088887808FE
:1002B00010600060600060600000606000602040CE
:1002C000081020402010080000F800F800008040CE
:1002D0002010204080708808102000207088086856
:1002E000A8A87070888888F88888F08888F088883E
:1002F000F070888080808870E09088888890E0F82E
:100300008080F08080F8F88080E080808070888035
:1003100080988870888888F88888887020202020B5
:100320002070381010101090608890A0C0A09088A5
:10033000808080808080F888D8A88888888888888D
:10034000C8A898888870888888888870F08888F01D
:1003500080808070888888A89068F08888F0A09055
:1003600088788080700808F0F820202020202088DD
:1003700088888888887088888888885020888888B5
:10038000A8A8D8888888502050888888885020203D
:100390002020F80810204080F83820202020203825
:1003A00000804020100800E02020202020E0205085
:1003B0008800000000000000000000F8402010004D
:1003C000000000000070087888788080B0C88888B5
:1003D000F00000708080887008086898888878002D
:1003E000007088F88070304840E04040400000785D
:1003F000887808308080B0C88888882000602020F5
:1004000020701000301010906040404850605048FC
:10041000602020202020700000D0A8A8888800003C
:10042000B0C8888888000070888888700000F088CC
:10043000F08080000068987808080000B0C88080CC
:1004400080000070807008F04040E040404830007C
:100450000088888898680000888888502000008874
:1004600088A8A8500000885020508800008888780C
:1004700008700000F8102040F810202040202010C4
:100480002020202020202040202010202040112447
:100490001FBECFEFCDBFDFE5DEBF00E00CBF10E237
:1004A000A0E0B0E2E6EEF7E400E00BBF02C0079088
:1004B0000D92A033B107D9F723E2A0E3B0E201C067
:1004C0001D92A53EB207E1F70E94201D0C94F12376
:1004D00097CD8093A2066093A2068093A5066093B1
:1004E000A6066093A10608953F936093A2068093A9
:1004F000A1068093A2066093A1063F918091A80671
:10050000842308958093A6068093A1060895A1E010
:10051000B0E0EDE8F2E00C94881FE82F0FB7007808
:10052000198280913120813019F081E0809331204F
:10053000CE2EDD24F601ED58FF4DB080F601E958CE
:10054000FF4DA080F894BB2009F4AAC08B2DDADF00
:100550008B2D6A2DBEDF1B2DEE24FF2460E0812C45
:1005600030E2932EF5FE07C09091742080917320A5
:10057000982B19F535C08FB7802B8FBF0000F894EA
:100580008B2D6A2D412FB0DF682F0894E11CF11CE0
:10059000809100208F5F80930020823030F0823085
:1005A00021F0833011F0109200206623D9F22091BF
:1005B000742080917320282B15C0412F80E040FFCC
:1005C00009C0E82FF0E0EE0FFF1FE45CFF4D8082D2
:1005D000918201C090FD8F5F96954695992379F79A
:1005E00010E020E08FB7802B8FBF109232202223A3
:1005F00009F43FC0112309F43CC030917820809168
:100600007720382B562F90E080E070E040E023C048
:1006100050FD17C019C030FF13C0981781F4E42FA4
:10062000F0E0EE0FFF1FE45CFF4DE082F182852FCA
:100630008E7F19F4892F71E008C0892F06C08F5F63
:100640003695332341F701C020FD9F5F20FD4F5FAA
:100650005695269511F05523D9F640933220609592
:100660001623713021F4112311F4EE24FF2460E0ED
:1006700013C08091742090917320892B898390E01E
:1006800006C0898180FD9F5F8981869589838981E4
:100690008823B9F790933220F894112309F062CFA0
:1006A00083E790E2C80ED91EF60180812BDF1092FD
:1006B00030208FB7082B0FBF2196ECE00C94A11FC0
:1006C000FC0180E290E0808391831282138280E4B7
:1006D00094E084839583089590916D20A92FB0E0D4
:1006E000FD01EE0FFF1FEA0FFB1FEE0FFF1FEB5A7E
:1006F000FF4D4383677085832370660F660F660F17
:10070000262B24839F5F90936D2008951F93CF9392
:10071000DF93282FC82FD0E0FE01EE0FFF1FEC0F54
:10072000FD1FEE0FFF1FEB5AFF4D3581838190E0D7
:100730000090352002C0959587950A94E2F7182F0E
:10074000843008F414E080916D20281718F020E020
:1007500030E02DC0832F1DD19C01412F50E0169514
:100760001695812F90E0841B950B8217930764F4F4
:10077000FE01EE0FFF1FEC0FFD1FEE0FFF1FEB5AE8
:10078000FF4D84818B7F848388279927841B950B59
:100790008217930764F0FE01EE0FFF1FEC0FFD1FA1
:1007A000EE0FFF1FEB5AFF4D848184608483C901E3
:1007B000DF91CF911F910895FF920F931F93CF93D5
:1007C000DF9310924D2010924E20209151203091B5
:1007D0005220809351209093522040915320509169
:1007E0005420421B530B480F591FFF2403C0F3949E
:1007F000485C5040483C5105D0F7409353205093FB
:10080000542080916E20882341F08F1518F41092A7
:100810006E2003C08F1980936E20C3D3E0914F20C8
:10082000F0915020309709F0199510E000E005C0D4
:10083000812F6F2DC3D0082B1F5F60916D2016177D
:10084000B8F3002349F080914D2090914E209160A3
:1008500080934D2090934E2010924C20A5E5B0E25D
:1008600030E041E050E017C08C91887191F0E32FA7
:10087000E695E695E695F0E0E45CFF4D832F877002
:10088000EA0102C0CC0FDD1F8A95E2F720892C2BEC
:10089000208B3F5F1696361738F380914D2090914C
:1008A0004E20CDB7DEB7E5E00C94A81F10926D2066
:1008B00084E08093362094E19093392085E0809302
:1008C0003A20109238209093372081E08093352091
:1008D00083E080933B2054D310924F2010925020FD
:1008E00008951F9310E003C0812F27D01F5F8091D0
:1008F0006D201817C8F31F910895EF92FF921F9370
:10090000CF93DF93EC017B0110E003C0812F15D062
:100910001F5F80916D201817C8F31092512010921C
:100920005220C0933320D0933420C70124D3DF91C9
:10093000CF911F91FF90EF90089590E0E5E5F0E2F0
:100940009C01220F331F280F391FD901AA0FBB1F8B
:10095000AE0FBF1F15964C91159780914D20909129
:100960004E20826080934D2090934E202F5F3F4F0A
:10097000220F331FE20FF31F1082EFE6F0E2E40FC5
:10098000F11D80E8808381E08C938FE011968C9339
:10099000089590E0FC013496ACE3B0E2EE0FFF1F47
:1009A000EA0FFB1F880F991FA80FB91F2081318103
:1009B0008D919C91281B390BC9010895A0E0B0E0EE
:1009C000E4EEF4E00C94861F782EF62E9FDE5C0198
:1009D000072D10E0F801EE0FFF1FE00FF11FEE0FE3
:1009E000FF1FEB5AFF4D54814381242F30E0852FA8
:1009F000837090E0019602C0359527958A95E2F7BD
:100A0000822F223008F482E0242F30E0B901681BE5
:100A10007109F801EE0FFF1FE00FF11FEF01CC0F7E
:100A2000DD1FCB5ADF4D8881843009F4FBC085304F
:100A300030F4813071F0823009F096C26EC080319E
:100A400009F4A5C1803209F456C2883009F08CC27D
:100A500002C240914D2050914E20CA019260809375
:100A60004D2090934E208D816981A82FB0E06A308F
:100A700060F0AA0FBB1FFD01E45CFF4D80819181F6
:100A8000AC5BBF4D8D939C9318C0AA0FBB1FFD019B
:100A9000EC5BFF4D20813181A45CBF4D8D919C9119
:100AA0008217930718F42150304005C028173907E2
:100AB00050F42F5F3F4F2083318348605260409352
:100AC0004D2050934E20862F8150F801EE0FFF1FCE
:100AD000E00FF11FEF01CC0FDD1FCB5ADF4D8983F3
:100AE0008823B1F4AD8182E0888380914D2090917C
:100AF0004E20826080934D2090934E20EE0FFF1F7A
:100B0000E95AFF4D1082B0E0A159BF4D80E88C93A7
:100B10008091372080936E2025C252FF08C0ED815E
:100B2000F0E0E159FF4D108280E288830CC2C501DC
:100B3000B7FE02C080E090E08217930780F0F801D2
:100B4000EE0FFF1FE00FF11FEE0FFF1FDF01AB5A8B
:100B5000BF4D84E08C93E95AFF4D1082FAC1FF200B
:100B600009F402C280916E20882309F0FDC1F801CA
:100B7000EE0FFF1FE00FF11FEE0FFF1FEB5AFF4DAF
:100B8000858190E0EC01CC0FDD1FCC5BDF4D28812F
:100B90003981FC01EE0FFF1FE45CFF4D0190F081F5
:100BA000E02D2E173F0788F4FC01E159FF4D90819D
:100BB0009F0D908380913A208058981708F4D4C1F3
:100BC00080E880832F5F3F4F14C0DC01A159BF4DE7
:100BD000E217F307D0F48C918F198C9340E8909131
:100BE0003920542F591B581708F4BEC14C9321507B
:100BF00030402883398380914D2090914E20886029
:100C000080934D2090934E20AFC12C91213810F04D
:100C100021502C93FC01E159FF4D808187FDA4C137
:100C20008F5F67C1C501B7FE02C080E090E0F801A8
:100C3000EE0FFF1F8217930708F48FC080913720B3
:100C400080936E209F01200F311F220F331FD90187
:100C5000A95ABF4D8C918F5F8C93F901EB5AFF4DD0
:100C6000848190E08873907023E0969587952A950B
:100C7000E1F7682E882309F43EC0CC24DD247F01EF
:100C800083E090E0E80EF91E4D012FC0D71461F10A
:100C90008D2D90E0EC01CC0FDD1FC80FD91FCC0FBC
:100CA000DD1FCB5ADF4D8C8190E08873907073E02C
:100CB000969587957A95E1F76816B1F48D2D26DD26
:100CC0002B81821B9109F7012081A501421B51094B
:100CD000481759072CF08881803111F0883021F4B1
:100CE000F4011082CC24C394D39480916D20D81643
:100CF00068F2CC2079F480913620882359F08091D5
:100D00004D2090914E20986080934D2090934E20DE
:100D100041E001C040E09801220F331F200F311F36
:100D2000F901EE0FFF1FE95AFF4D908180913620A7
:100D3000981708F41AC180914D2090914E2083603D
:100D400080934D2090934E20F901EE0FFF1FEB5A38
:100D5000FF4D80E18083118208C1E00FF11FEE0F8B
:100D6000FF1FDF01AB5ABF4D15962C91159782E0FE
:100D70008C9380914D2090914E20826080934D20E5
:100D800090934E20E95AFF4D1082E22FAEC052FFE1
:100D90000EC0ED81F0E0E159FF4D80E8808380E2F4
:100DA000888380914D2090914E2090614AC0C5016A
:100DB000B7FE02C080E090E0F801EE0FFF1F409107
:100DC0004D2050914E208617970770F4E00FF11FC9
:100DD000EE0FFF1FEB5AFF4D88E080835460409375
:100DE0004D2050934E2031C0416040934D20509390
:100DF0004E20E00FF11FEE0FFF1FE95AFF4D9081CB
:100E000080913620981710F49F5F9083909138203E
:100E1000992371F0F801EE0FFF1FE00FF11FEE0FA5
:100E2000FF1FEB5AFF4D8181891720F48F0D8183BD
:100E300040E00CC0872D81DD80914D2090914E20A7
:100E4000926080934D2090934E2041E08091372016
:100E500080936E208AC08091372080936E20DF01BE
:100E6000AA0FBB1FA95ABF4D8C91882389F1C501D8
:100E7000B7FE02C080E090E040914D2050914E209E
:100E80006817790790F4F801EE0FFF1FE00FF11FCC
:100E9000EE0FFF1FEB5AFF4D80E1808341604093CE
:100EA0004D2050934E2040E006C0546040934D20AA
:100EB00050934E2041E0F801EE0FFF1FE00FF11FAD
:100EC000EE0FFF1FE95AFF4D8081815080834DC096
:100ED000ED8182E0888380914D2090914E20826048
:100EE00080934D2090934E201C92F0E0E159FF4DED
:100EF00080E8808339C08D81A82FB0E0A159BF4D13
:100F00009C919F5F9C9352FD18C097FF03C080E1A6
:100F100088832AC082E0888380914D2090914E2062
:100F2000826080934D2090934E20EE0FFF1FE95A70
:100F3000FF4D108280E88C9317C080913B2098175A
:100F400040F0872DFADC80914D2090914E209061E9
:100F500005C080914D2090914E20946080934D204B
:100F600090934E2041E001C040E0842FCDB7DEB722
:100F7000EEE00C949F1FFC01009709F0199508956D
:100F80001092732010927420109277201092782083
:100F900010927520109276201092792010927A206B
:100FA00008958091752090917320892B41F0E091F4
:100FB0003320F0913420309711F080E01995809122
:100FC000762090917420892B41F0E0913320F091AC
:100FD0003420309711F081E019950895613069F55A
:100FE00080917C208F5F80937C20813039F4409306
:100FF0007D2050937E20109281200CC080917D2016
:1010000090917E20480F591F5695479540937D201B
:1010100050937E2080917C20843031F410927C208B
:1010200081E08093812008959FB7F894E0E0F2E09A
:101030008081846080839FBF0895623061F58091D4
:101040007B208F5F80937B20813039F440937F2019
:1010500050938020109282200CC080917F2090912C
:101060008020480F591F5695479540937F205093F5
:10107000802080917B20843031F410927B2081E0AD
:101080008093822008959FB7F894E0E0F2E0808199
:10109000886080839FBF08959FB7F89480918220D5
:1010A000882321F0109282209FBF08959FBF08954A
:1010B0009FB7F89480918120882321F0109281209D
:1010C0009FBF08959FBF08951F93CF93DF93CDB720
:1010D000DEB72B97CDBFDEBFBE016F5F7F4F80E0D5
:1010E00092E0EBD5AE01485F5F4F61E080E092E0B7
:1010F00040D68A819B819F7890619B8396E09D83F7
:10110000817E80618A831C82BE016F5F7F4F80E099
:1011100092E07FD56EEE77E080E092E07DD311E043
:10112000188719868A85807F81608A87AE01485F2B
:101130005F4F61E080E092E0E3D5188788E089871F
:10114000AE01485F5F4F62E080E092E0D9D580E079
:1011500092E0B8D32B96CDBFDEBFDF91CF911F9128
:101160000895CF93DF93C0917F20D0918020BE015E
:1011700080E090E00E944D1EC53AD14080F021E809
:1011800036E242E45DEB0E94DB1E23E333E345E5F8
:1011900052E40E94B81D0E941C1E862F0FC02DE233
:1011A00031E24FE95DEB0E94DB1E23E333E342E8CB
:1011B00052E40E94B81D0E941C1E862FDF91CF9121
:1011C000089580917D2090917E200895BF92CF92C6
:1011D000DF92EF92FF920F931F93CF93DF931F92B3
:1011E000CDB7DEB788E08093060680E090E00196F8
:1011F00085339105E1F788E08093050680E090E073
:10120000019685339105E1F70F2EFBE2BF2EF02DFD
:10121000B98280EA99E00E94B711C12CD12C7601E5
:1012200000E412E42FE030E043E0BE016F5F7F4F47
:1012300080EA99E00E94E61100E616E0FF24F394AC
:10124000F801F682B982BE016F5F7F4F80EA99E0B4
:101250000E940012F801F682E0EAF9E0818185FF40
:10126000FDCF80EA8093A009E0EAF9E0818186FF62
:10127000FDCFE0EAF9E080E481838081BE016F5F09
:101280007F4F80EA99E00E9416128BE28983BE01AB
:101290006F5F7F4F80EA99E00E94001281E08093A7
:1012A0006606E0EAF9E0818185FFFDCF86EA80935A
:1012B000A009E0EAF9E0818186FFFDCFE0EAF9E0EC
:1012C00080E481838081BE016F5F7F4F80EA99E077
:1012D0000E9416128BE28983BE016F5F7F4F80EA06
:1012E00099E00E94001281E080936606E0EAF9E04E
:1012F000818185FFFDCF88EC8093A009E0EAF9E0C9
:10130000818186FFFDCFE0EAF9E080E4818380817E
:10131000BE016F5F7F4F80EA99E00E9416128BE258
:101320008983BE016F5F7F4F80EA99E00E940012BF
:1013300081E080936606E0EAF9E0818185FFFDCFD8
:1013400082EA8093A009E0EAF9E0818186FFFDCF7F
:10135000E0EAF9E080E481838081BE016F5F7F4F26
:1013600080EA99E00E9416128BE28983BE016F5FCA
:101370007F4F80EA99E00E94001281E08093660628
:10138000E0EAF9E0818185FFFDCF8FE28093A0093B
:10139000E0EAF9E0818186FFFDCFE0EAF9E080E450
:1013A00081838081BE016F5F7F4F80EA99E00E9458
:1013B00016128BE28983BE016F5F7F4F80EA99E04E
:1013C0000E94001281E080936606E0EAF9E08181E4
:1013D00085FFFDCF88EF8093A009E0EAF9E08181E5
:1013E00086FFFDCFE0EAF9E080E481838081BE01E1
:1013F0006F5F7F4F80EA99E00E9416128BE289832B
:10140000BE016F5F7F4F80EA99E0FAD781E0809359
:101410006606E0EAF9E0818185FFFDCF1092A00920
:10142000E0EAF9E0818186FFFDCFE0EAF9E080E4BF
:1014300081838081BE016F5F7F4F80EA99E0F6D79C
:101440008BE28983BE016F5F7F4F80EA99E0D8D736
:1014500081E080936606E0EAF9E0818185FFFDCFB7
:1014600081E28093A009E0EAF9E0818186FFFDCF67
:10147000E0EAF9E080E481838081BE016F5F7F4F05
:1014800080EA99E0D3D78BE28983BE016F5F7F4FFB
:1014900080EA99E0B5D781E080936606E0EAF9E05A
:1014A000818185FFFDCF81E88093A009E0EAF9E022
:1014B000818186FFFDCFE0EAF9E080E481838081CD
:1014C000BE016F5F7F4F80EA99E0B0D78BE28983DE
:1014D000BE016F5F7F4F80EA99E092D781E08093F1
:1014E0006606E0EAF9E0818185FFFDCF81E2809325
:1014F000A009E0EAF9E0818186FFFDCFE0EAF9E0AA
:1015000080E481838081BE016F5F7F4F80EA99E034
:101510008DD78BE28983BE016F5F7F4F80EA99E0B0
:101520006FD781E080936606E0EAF9E0818185FF6C
:10153000FDCF8FEA8093A009E0EAF9E0818186FF80
:10154000FDCFE0EAF9E080E481838081BE016F5F36
:101550007F4F80EA99E06AD70F90DF91CF911F917A
:101560000F91FF90EF90DF90CF90BF900895FF9282
:101570000F931F93CF93DF931F92CDB7DEB7082F42
:10158000F62E142F6ED70F70006B8BE28983BE018D
:101590006F5F7F4F80EA99E033D781E080936606E2
:1015A000E0EAF9E0918195FFFDCF0093A009E0EA20
:1015B000F9E0818186FFFDCFE0EAF9E080E48183F4
:1015C0008081BE016F5F7F4F80EA99E02FD70F2D9A
:1015D0000F7702950F7000618BE28983BE016F5F08
:1015E0007F4F80EA99E00CD781E080936606E0EABD
:1015F000F9E0818185FFFDCF0093A009E0EAF9E0E1
:10160000818186FFFDCFE0EAF9E080E4818380817B
:10161000BE016F5F7F4F80EA99E008D70F2D0F70F2
:101620008BE28983BE016F5F7F4F80EA99E0E8D645
:1016300081E080936606E0EAF9E0818185FFFDCFD5
:101640000093A009E0EAF9E0818186FFFDCFE0EA9E
:10165000F9E080E481838081BE016F5F7F4F80EA83
:1016600099E0E4D68BE28983BE016F5F7F4F80EA09
:1016700099E0C6D681E080936506E0EAF9E08181D1
:1016800085FFFDCF1093A009E0EAF9E0818186FF94
:10169000FDCFE0EAF9E080E48183808181E08093FE
:1016A0006606BE016F5F7F4F80EA99E0BFD60F905C
:1016B000DF91CF911F910F91FF9008950F931F938A
:1016C000CF93DF931F92CDB7DEB783E890E2C4D605
:1016D0007DDD8BE28983BE016F5F7F4F80EA99E0F9
:1016E0008FD681E080936606E0EAF9E0818185FF8C
:1016F000FDCF80E48093A009E0EAF9E0818186FFD4
:10170000FDCFE0EAF9E080E481838081BE016F5F74
:101710007F4F80EA99E08AD600E00AC040E0612F5E
:10172000802F25DF1F5F1038C9F70F5F043011F0DD
:1017300010E0F4CF0F90DF91CF911F910F9108959A
:10174000FF920F931F93CF93DF9388238CF1603226
:1017500078F5D42FC82FF62EF694F694F6942F2D04
:1017600030E0319521953109220F331F220F331FAD
:10177000220F331F260F311D61E070E08B0102C084
:10178000000F111F2A95E2F7682F8F2D78D6D130E0
:1017900021F028F0D23039F007C0802B05C0602F2F
:1017A0006095862301C08027482F6C2F8F2DDFDEA8
:1017B000DF91CF911F910F91FF90089560C608951A
:1017C000E5E3F0E284E0818384E1848395E095831E
:1017D0001382828381E0808383E0868310924F208E
:1017E00010925020E3E7F0E280E4808311821282BD
:1017F0001382E7E7F0E280E880831182128213828D
:1018000023E04AE060E080E00E946C0360E070E06A
:1018100087E892E072C808954FB7F894282F392FBF
:10182000211582E0380729F46093D5237093D623DD
:1018300007C02034324021F46093D3237093D42323
:101840004FBF0895811522E0920769F480918422A8
:1018500091E0980F90938422811114C062E081E09E
:101860000C94AE1808958034924061F480918322E4
:1018700091E0980F90938322811104C062E082E08E
:101880000C94AE180895811522E0920761F48091BE
:101890008422815080938422811113C062E081E010
:1018A0000C94BA1808958034924059F480918322A0
:1018B000815080938322811104C062E082E00C9405
:1018C000BA1808951F93CF93DF93EC011FB7F894D4
:1018D000B9DF8881816088831FBF9FB7F894EDECE2
:1018E000F3E281818F5F81839FBFDF91CF911F9151
:1018F00008951F920F920FB60F9211240BB60F92FC
:101900002F933F934F935F936F937F938F939F9307
:10191000AF93BF93EF93FF93409124025091250220
:10192000E091D523F091D62361E080E092E0199513
:10193000FF91EF91BF91AF919F918F917F916F91A7
:101940005F914F913F912F910F900BBE0F900FBE63
:101950000F901F9018951F920F920FB60F9211249F
:101960000BB60F922F933F934F935F936F937F9399
:101970008F939F93AF93BF93EF93FF9340912C026C
:1019800050912D02E091D523F091D62362E080E0C2
:1019900092E01995FF91EF91BF91AF919F918F9137
:1019A0007F916F915F914F913F912F910F900BBE5F
:1019B0000F900FBE0F901F9018951F920F920FB6A9
:1019C0000F9211240BB60F922F933F934F935F9377
:1019D0006F937F938F939F93AF93BF93EF93FF93F7
:1019E0004091340250913502E091D523F091D623F5
:1019F00064E080E092E01995FF91EF91BF91AF9183
:101A00009F918F917F916F915F914F913F912F9116
:101A10000F900BBE0F900FBE0F901F9018951F9246
:101A20000F920FB60F9211240BB60F922F933F9384
:101A30004F935F936F937F938F939F93AF93BF93D6
:101A4000EF93FF9340913C0250913D02E091D523EA
:101A5000F091D62368E080E092E01995FF91EF9134
:101A6000BF91AF919F918F917F916F915F914F91B6
:101A70003F912F910F900BBE0F900FBE0F901F90B4
:101A800018951F920F920FB60F9211240BB60F925A
:101A90002F933F934F935F936F937F938F939F9376
:101AA000AF93BF93EF93FF9340916402509165020F
:101AB000E091D323F091D42361E080E492E0199582
:101AC000FF91EF91BF91AF919F918F917F916F9116
:101AD0005F914F913F912F910F900BBE0F900FBED2
:101AE0000F901F9018951F920F920FB60F9211240E
:101AF0000BB60F922F933F934F935F936F937F9308
:101B00008F939F93AF93BF93EF93FF9340916C029A
:101B100050916D02E091D323F091D42362E080E4F0
:101B200092E01995FF91EF91BF91AF919F918F91A5
:101B30007F916F915F914F913F912F910F900BBECD
:101B40000F900FBE0F901F9018951F920F920FB617
:101B50000F9211240BB60F922F933F934F935F93E5
:101B60006F937F938F939F93AF93BF93EF93FF9365
:101B70004091740250917502E091D323F091D423E7
:101B800064E080E492E01995FF91EF91BF91AF91ED
:101B90009F918F917F916F915F914F913F912F9185
:101BA0000F900BBE0F900FBE0F901F9018951F92B5
:101BB0000F920FB60F9211240BB60F922F933F93F3
:101BC0004F935F936F937F938F939F93AF93BF9345
:101BD000EF93FF9340917C0250917D02E091D323DB
:101BE000F091D42368E080E492E01995FF91EF91A1
:101BF000BF91AF919F918F917F916F915F914F9125
:101C00003F912F910F900BBE0F900FBE0F901F9022
:101C10001895DF92EF92FF920F931F93CF93DF936C
:101C2000EC018B01C11522E0D20781F461E270E082
:101C300082E00E941E19E82EF12C60E270E082E042
:101C40000E941E19FE2CEE24E82A12C08034924015
:101C500061F565E270E082E00E941E19E82EF12C29
:101C600064E270E082E00E941E19FE2CEE24E82A55
:101C7000DFB6F894CE01E6DD888192E09883EC86A9
:101C8000FD86F80125813681288F398F92819A83CC
:101C900094819C8393819B839181998381709081AE
:101CA000892B8883CE01EFDDDFBEDF91CF911F91BD
:101CB0000F91FF90EF90DF900895FF920F931F9385
:101CC000CF93DF93EC018B01FFB6F894BBDD8881E5
:101CD000807CF8018083888D998D858396838A81A5
:101CE00082838C8184838B81838389818183CE01EC
:101CF000CADDFFBEDF91CF911F910F91FF90089534
:101D0000CF92DF92EF92FF920F931F93CF93DF93C7
:101D10007C01D62E8A01862F837029F4962F969502
:101D2000969582E002C0962F80E090FF8F5FE701DA
:101D3000A09698E0899FC00DD11D1124CFB6F894CC
:101D4000C70180DDF8018081888382818A83818157
:101D50008983D0FE02C083818E83C70194DDCFBE0C
:101D6000DF91CF911F910F91FF90EF90DF90CF9077
:101D70000895CF92DF92EF92FF920F931F93CF932C
:101D8000DF937C01D62E8A01862F837029F4962F4B
:101D90009695969582E002C0962F80E090FF8F5F27
:101DA000E701A09698E0899FC00DD11D1124CFB600
:101DB000F894C70147DD8881F80180838A81828396
:101DC00089818183D0FE02C08E818383C7015BDD60
:101DD000CFBEDF91CF911F910F91FF90EF90DF90D9
:101DE000CF900895CF93DF93E0918522F0918622E2
:101DF000848183FF08C08860848383E0838386EFC7
:101E000080938F2283C0982F947131F083E0838375
:101E10008FEF80938F227AC086FF43C0C5E8D2E25D
:101E2000AA81BB818C819D8114962D913C9115973F
:101E3000821793076CF49C012F5F3F4F20938922F8
:101E400030938A22A80FB91F11968C9187835EC0A8
:101E500080918B2290918C2218962D913C9119970C
:101E600082179307C8F420918D22222321F08681C6
:101E7000816086834BC016962D913C911797AC01DB
:101E80004F5F5F4F40938B2250938C22D901A80F54
:101E9000B91F8C9187833AC083E0838310928F228D
:101EA00035C0882384F5A5E8B2E21296CD91DC9185
:101EB000139716968D919C911797288539858217CF
:101EC0009307D8F46E817F819C012F5F3F4F209351
:101ED0008B2230938C224781DB01A80FB91F4C93D2
:101EE000888599852817390718F482E083830EC006
:101EF00087E0838310928F2209C083E0838389EF78
:101F000080938F2203C08BEF80938F22DF91CF913C
:101F100008951F920F920FB60F9211240BB60F92D5
:101F20002F933F934F935F936F937F938F939F93E1
:101F3000AF93BF93EF93FF9355DFFF91EF91BF9165
:101F4000AF919F918F917F916F915F914F913F9151
:101F50002F910F900BBE0F900FBE0F901F901895F2
:101F60001F920F920FB60F9211240BB60F922F9360
:101F70003F934F935F936F937F938F939F93AF9311
:101F8000BF93EF93FF932EDFFF91EF91BF91AF913E
:101F90009F918F917F916F915F914F913F912F9181
:101FA0000F900BBE0F900FBE0F901F901895CF9201
:101FB000DF92EF92FF920F931F93CF93DF93EC0189
:101FC000D901C801B695A7959795879548175907E0
:101FD0006A077B0778F46A017B01CC0CDD1CEE1CE0
:101FE000FF1CC901B801A70196010E94511F215091
:101FF000310902C020E030E0832F8F708F832E8361
:10200000DF91CF911F910F91FF90EF90DF90CF90D4
:102010000895EF92FF920F931F93CF93DF93EC01FC
:102020007B01009709F48CC1803C910529F460E1A3
:1020300080E00E94AE1884C18038914029F462E0AB
:1020400080E00E94AE187CC1C11581E0D80729F458
:1020500061E080E00E94AE1873C1C038E3E0DE07A3
:1020600029F461E081E00E94AE186AC1C039F3E052
:10207000DF0729F461E082E00E94AE1861C1C1155A
:1020800032E0D30729F462E081E00E94AE1858C123
:10209000C03482E0D80729F462E082E00E94AE18E2
:1020A0004FC1C032E3E0DE0729F464E082E00E9421
:1020B000AE1846C1C115F8E0DF0729F461E083E0FE
:1020C0000E94AE183DC1C11539E0D30729F461E083
:1020D00084E00E94AE1834C1C1158AE0D80729F403
:1020E00061E085E00E94AE182BC1C115EBE0DE0770
:1020F00029F461E086E00E94AE1822C1C034F8E005
:10210000DF0729F462E083E00E94AE1819C1C034F1
:1021100039E0D30729F462E084E00E94AE1810C1D0
:10212000C0348AE0D80729F462E085E00E94AE1846
:1021300007C1C039E8E0DE0729F464E083E00E94CB
:10214000AE18FEC0C039F9E0DF0729F464E084E08E
:102150000E94AE18F5C0C0393AE0D30721F464E01C
:1021600085E0FCD7EDC0C0398BE0D80721F464E0EE
:1021700086E0F4D7E5C0C03CE8E0DE0721F468E083
:1021800083E0ECD7DDC0C03CF9E0DF0721F468E074
:1021900084E0E4D7D5C0C03A38E0D30761F460E109
:1021A00083E0DCD7E0EAF8E084818F7E8483F70166
:1021B0002481225043C0C03AF9E0DF0721F460E1F6
:1021C00084E0CCD7BDC0C03A3AE0D30721F460E147
:1021D00085E0C4D7B5C0C03A8BE0D80721F460E1F0
:1021E00086E0BCD7ADC0C03BE8E0DE0721F460E28A
:1021F00083E0B4D7A5C0C03BF9E0DF0721F460E27B
:1022000084E0ACD79DC0C03834E0D30721F460E44B
:1022100083E0A4D795C0C03A84E0D80721F460E4F5
:1022200085E09CD78DC08C818F7E8C83FB012481BF
:102230002250CE01C03AF8E0DF0731F480914E061B
:1022400084FD86C011E185C0803B38E0930779F0BA
:10225000803AE9E09E0731F430916E0634FD7CC08F
:1022600019E110C0803BF9E09F07A9F001C015E11A
:10227000803A3AE0930731F480918E0684FD6EC077
:1022800011E20CC0803A9B4049F48091AE0684FD77
:1022900004C019E203C01DE101C01DE2E12FE69573
:1022A000E695E69530E2E39FF0011124FA5F17709E
:1022B00081E090E0012E02C0880F991F0A94E2F796
:1022C0008183223010F040E001C040E4DF015096ED
:1022D000A10FB11D3FB7F8942C9127702C939C91BE
:1022E000942B9C933FBF85838D81806C8D83F701F8
:1022F00084818D7F813021F48D8182608D8303C044
:102300008D818D7F8D83F7018581882321F08D81DB
:1023100084608D8303C08D818B7F8D83F701408125
:1023200051816281738100E018E428EE31E0CE0132
:102330003EDE8C8188608C838C8180618C8310C0B0
:102340008C818F7E8C83F70124812250CE017CCF3B
:1023500015E180EA98E086CF1DE194CF15E29ECF8B
:10236000DF91CF911F910F91FF90EF900895803AE8
:1023700028E0920721F460E183E0F0C60895803BF5
:1023800028E0920721F460E283E0E8C60895803AED
:1023900029E0920721F460E184E0E0C60895803BE3
:1023A00029E0920721F460E284E0D8C60895803ADB
:1023B0002AE0920721F460E185E0D0C60895803AD2
:1023C0009B4019F460E186E0C9C608950F931F93FE
:1023D000CF93DF9300D000D0CDB7DEB709831A8347
:1023E0002B833C834D831E82BE016F5F7F4F11DEC6
:1023F0002696CDBFDEBFDF91CF911F910F9108953B
:10240000FB018081E82FE695E695E69540E2E49FA2
:10241000F0011124FA5F877021E030E0A90102C0C9
:10242000440F551F8A95E2F746830895FB0180818A
:10243000E82FE695E695E69540E2E49FF001112449
:10244000FA5F877021E030E0A90102C0440F551FF8
:102450008A95E2F745830895809390229093912284
:10246000089520E8829FC0011124860F911DE091FC
:102470009022F0919122E80FF91F4083089520E8FF
:10248000829FC0011124860F911DE0919022F0914E
:102490009122E80FF91F80810895FF920F931F93F7
:1024A000CF93DF93E42FF0E0E80FF11DE138F10561
:1024B0001CF0C0E84C2F481B442309F453C0D62F0E
:1024C000D695D695D695ED2FF0E0F195E195F109E9
:1024D000EE0FFF1FEE0FFF1FEE0FFF1FDF01A60F16
:1024E000B11DBD01E1E0F0E0DF0102C0AA0FBB1F9A
:1024F0006A95E2F7FA2E213021F098F0223019F196
:1025000031C0C42F1FEF180F012F0C0F602F8D2F1C
:1025100055D9482F4F29602F8D2F29D8C150A1F7A9
:1025200021C0C42F1FEF180FFA2EF094012F0C0FAB
:10253000602F8D2F43D9482F4F21602F8D2F17D813
:10254000C150A1F70FC0C42F1FEF180F012F0C0FA0
:10255000602F8D2F33D9482F4F25602F8D2F07D80F
:10256000C150A1F7DF91CF911F910F91FF90089576
:10257000FF920F931F93CF93DF93222369F0C22F13
:10258000F42E182FDFEFD60F6D2F6C0F202F4F2D4D
:10259000812F83DFC150C1F7DF91CF911F910F9140
:1025A000FF900895AF92BF92CF92DF92EF92FF9289
:1025B0000F931F93CF93DF93C82FE62EB42E69019C
:1025C00000E0F901248143816B2D8E2DD1DFF601CE
:1025D0008081811139C08381282F269526952695E3
:1025E000877009F02F5FF601A4802A9D90011124C5
:1025F0008C2F90E04581841B9109289FA001299F81
:10260000500D389F500D112401811281040F151FA8
:10261000F601F380FF20A1F0D0E0C0E08C2F8E0DFA
:102620009C2F977021F4F801D4910F5F1F4FDD2389
:102630001CF441E06B2D84D8DD0FCF5FCF11EECFBE
:10264000B394AA94A110E4CFDF91CF911F910F9181
:10265000FF90EF90DF90CF90BF90AF900895DF9202
:10266000EF92FF920F931F93CF93DF93042F790183
:10267000EC01162FD62E89918A3031F4F70184812E
:102680008F5F080F1D2D09C08D3039F09701402F45
:10269000612F88DFF7018381180F88818111EBCFCB
:1026A000DF91CF911F910F91FF90EF90DF900895F0
:1026B000FC010396818392832FEF3FEF23833483C2
:1026C000858396838783908710820895FC01108606
:1026D00011860895CF93DF939C01FB01DC011196D5
:1026E000CD91DC911297C283D3838C819D818483A9
:1026F00095838C819D81DC0112966D937C93139759
:102700006C837D8320873187F90180818F5F80838F
:10271000DF91CF910895CF93DF93EB0148815981E9
:102720004F3F2FEF520721F4FC01A781B0850DC068
:10273000DC01139601C0DF011296ED91FC91139715
:102740002081318142175307B0F71296ED91FC9129
:102750001397EA83FB83C483D583AC83BD8312962E
:10276000CD93DC93139788879987FC0120812F5F95
:102770002083DF91CF910895CF93DF93FC01A08553
:10278000B185C281D381848195818C839D83C481ED
:10279000D581828193818A839B831196CD91DC912F
:1027A0001297CE17DF0731F48C819D8111968D939E
:1027B0009C931297108611868C9181508C93DF9197
:1027C000CF9108950F931F938B0171E1FC017083EA
:1027D000319762E26083319723E32083012E000C5E
:1027E000220B330B3197008331971083319720836D
:1027F00031971082319720E82083319710823197EA
:1028000022E02083319723E02083319724E0208346
:10281000319725E02083319726E02083319727E008
:102820002083319728E02083319729E02083319756
:1028300020E1208331977083319722E12083319703
:1028400023E12083319724E12083319725E1208300
:10285000319726E12083319727E12083319728E1C2
:102860002083319729E12083319720E2208331971B
:1028700021E2208331976083319723E220833197CF
:10288000408331975083319726E22083319727E2A6
:102890002083319728E22083319729E220833197E2
:1028A00020E32083319721E3208387971F910F91A5
:1028B0000895F894E0E7F0E083818A7F8383E0E085
:1028C000F8E080EA9FE086A397A391E09683A0EAD0
:1028D000B0E012968C911297816012968C9390833F
:1028E0007894A091E822B091E9220D900DBE0D9050
:1028F0000EBEFF91EF91DF91CF91BF91AF919F916C
:102900008F917F916F915F914F913F912F911F9187
:102910000F91FF90EF90DF90CF90BF90AF909F907E
:102920008F907F906F905F904F903F902F901F906F
:102930000F900FBE0F90089581E008950F920FB68B
:10294000F8940F921F9211242F923F924F925F9210
:102950006F927F928F929F92AF92BF92CF92DF92AF
:10296000EF92FF920F931F932F933F934F935F9399
:102970006F937F938F939F93AF93BF93CF93DF9387
:10298000EF93FF93A091E822B091E9220DB60D924A
:102990000EB60D9276D3A091E822B091E9220D9067
:1029A0000DBE0D900EBEFF91EF91DF91CF91BF91C3
:1029B000AF919F918F917F916F915F914F913F91D7
:1029C0002F911F910F91FF90EF90DF90CF90BF90CC
:1029D000AF909F908F907F906F905F904F903F90BF
:1029E0002F901F900F900FBE0F9008950F920FB66B
:1029F000F8940F921F9211242F923F924F925F9260
:102A00006F927F928F929F92AF92BF92CF92DF92FE
:102A1000EF92FF920F931F932F933F934F935F93E8
:102A20006F937F938F939F93AF93BF93CF93DF93D6
:102A3000EF93FF93A091E822B091E9220DB60D9299
:102A40000EB60D92B3D181111CD3A091E822B091A2
:102A5000E9220D900DBE0D900EBEFF91EF91DF911A
:102A6000CF91BF91AF919F918F917F916F915F9126
:102A70004F913F912F911F910F91FF90EF90DF9019
:102A8000CF90BF90AF909F908F907F906F905F900E
:102A90004F903F902F901F900F900FBE0F90189562
:102AA000CF93DF93EC017CD1CE010E94C71FEC01D4
:102AB00050D2CE01DF91CF910895CF93DF9300974D
:102AC00031F0EC016DD1CE010E945C2042D2DF9149
:102AD000CF910895CBEBD2E288818230F0F32EDFE4
:102AE000FBCFCF93DF93EC01E091E822F091E92254
:102AF000828393838091992290919A22C817D90753
:102B000060F46091E8227091E9228091A522909171
:102B1000A6226E5F7F4FFFDD16C06091E8227091A4
:102B2000E9228091A7229091A8226E5F7F4FF3DD6A
:102B300080910E2090910F20C817D90720F4C093E0
:102B40000E20D0930F20DF91CF9108954F925F9286
:102B50006F927F928F929F92AF92BF92CF92DF92AD
:102B6000EF92FF920F931F93CF93DF934C01EB01F2
:102B70005A01290181E290E093DF3C01009709F4BA
:102B8000D4C0C114D10409F0CCC0C50189DFF30160
:102B9000878B908F892B19F4C3018FDFC6C0F1E0BA
:102BA000AF1AB108F3018789908DA80EB91E8881EC
:102BB000818F8881882381F0D3015A96FE01319656
:102BC0009E01285F3F4FEF0181918D93888188237B
:102BD00019F0E217F307B9F7F30110A2102F05302F
:102BE00008F014E0F301168BE3012296CE016EDDAE
:102BF000C3010C966BDDF3016086718685E090E081
:102C0000811B910984879587628A738AA201B40126
:102C1000C501D8DDF30180839183E114F10419F03B
:102C2000F701608271820FB6F8940F9280919B2217
:102C30008F5F80939B228091E8229091E922892BDB
:102C400091F56092E8227092E92280919B22813076
:102C5000C9F50F2EFBEBEF2EF2E2FF2EF02D0F2E1B
:102C6000F8EECF2EF2E2DF2EF02DC70121DDF9E0E4
:102C7000EF0EF11CEC14FD04C1F782EB92E218DDBB
:102C800089EA92E215DD8CE992E212DD82EB92E2B2
:102C90008093A7229093A82289EA92E28093A522AA
:102CA0009093A6220FC08091972281110BC0E091D2
:102CB000E822F091E9228689081720F06092E82244
:102CC0007092E922809193228F5F80939322F30187
:102CD000868990919822981710F48093982290E01A
:102CE0009C01220F331F220F331F220F331F820F2D
:102CF000931FBE0185549D4DEDDC0F900FBE80915A
:102D00009722882351F0E091E822F091E922868908
:102D1000801728F413DE81E009C081E007C081E05C
:102D200005C0FC01C78AD08E3ACF8FEFDF91CF91DB
:102D30001F910F91FF90EF90DF90CF90BF90AF90D9
:102D40009F908F907F906F905F904F900895AF927B
:102D5000BF92CF92DF92EF92FF920F93A12CB12CF2
:102D6000C12CD12CE12CF12C00E020E030E045E535
:102D700050E062E170E28AE695E1E8DE813041F4FC
:102D8000F894809397221092992210929A2291DDC2
:102D90000F91FF90EF90DF90CF90BF90AF9008958C
:102DA000809192228F5F809392220895DF92EF921A
:102DB000FF920F931F93CF93DF9380919222811103
:102DC000B3C08091992290919A2201968093992282
:102DD00090939A22E0909922F0909A22E114F104C3
:102DE00099F58091A7229091A8222091A522309157
:102DF000A6222093A7223093A8228093A522909305
:102E0000A622809194228F5F80939422E091A72242
:102E1000F091A8228081811107C08FEF9FEF8093EE
:102E20000E2090930F2010C0E091A722F091A822CD
:102E30000580F681E02D0680F781E02D8281938167
:102E400080930E2090930F2080910E2090910F2060
:102E5000E816F90610F4D12C4FC0D12CE091A7222E
:102E6000F091A8229081911107C08FEF9FEF80937E
:102E70000E2090930F2040C0E091A722F091A8224D
:102E80000580F681E02DC681D7812A813B81E2163B
:102E9000F30628F420930E2030930F202DC08E01CE
:102EA0000E5F1F4FC80168DC8C899D89892B19F042
:102EB000CE010C9661DC2E8980919822821710F445
:102EC0002093982230E0C901880F991F880F991F1D
:102ED000880F991F820F931FB80185549D4DFADB0F
:102EE000E091E822F091E9229E898689981708F4FA
:102EF000B5CFDD24D394B2CFE091E822F091E9225E
:102F0000868990E0FC01EE0FFF1FEE0FFF1FEE0F12
:102F1000FF1F8E0F9F1FFC01E554FD4D8081823005
:102F200048F0DD24D39406C0809196228F5F809371
:102F30009622D12C80919522882311F0DD24D39400
:102F40008D2DDF91CF911F910F91FF90EF90DF902A
:102F50000895DF92EF92FF920F931F93CF93DF9329
:102F60000FB6F8940F928091922281508093922212
:102F70008091922281115DC080919B22811130C08D
:102F80005BC0D7011596ED91FC911697C681D7814C
:102F9000CE010C96F1DB8E010E5F1F4FC801ECDBFA
:102FA0002E8980919822821710F42093982230E085
:102FB000C901880F991F880F991F880F991F820FC9
:102FC000931FB80185549D4D85DBE091E822F09177
:102FD000E9229E898689981758F0D092952208C0D8
:102FE0000F2EFCE9EF2EF2E2FF2EF02DDD24D3941C
:102FF000F70180818111C5CF80919622882391F0BD
:1030000080919622882371F0C1E0D0DE8111C093B7
:1030100095228091962281508093962280919622CB
:103020008111F3CF80919522813029F487DC81E0F2
:1030300003C080E001C080E00F900FBEDF91CF9110
:103040001F910F91FF90EF90DF900895CF93DF9342
:10305000EC01892B91F0A4DE8091992290919A2223
:10306000C80FD91F8091E8229091E922029684DB53
:10307000CE0137DD6EDF811101C060DCDF91CF91C1
:10308000089580919222882321F081E080939522F7
:103090000895109295228091982290E0FC01EE0F05
:1030A000FF1FEE0FFF1FEE0FFF1F8E0F9F1FFC0174
:1030B000E554FD4D8081811117C080919822815087
:1030C000809398228091982290E0FC01EE0FFF1FE0
:1030D000EE0FFF1FEE0FFF1F8E0F9F1FFC01E55429
:1030E000FD4D8081882349F38091982290E09C01D6
:1030F000220F331F220F331F220F331F280F391FB8
:10310000D901A554BD4D1196ED91FC911297028005
:10311000F381E02D1196ED93FC93129722543D4DCF
:10312000E217F30729F422813381FD0121833283E1
:10313000FC01EE0FFF1FEE0FFF1FEE0FFF1F8E0FA4
:103140009F1FFC01E554FD4D0180F281E02D868139
:1031500097818093E8229093E92208959FB7F8948D
:10316000E82FF0E0E059FF4F60958081682360838D
:103170009FBF08959FB7F894E82FF0E0E059FF4F04
:103180008081682B60839FBF0895DC01E0ECF1E053
:1031900097859923ECF3ECECF1E0808188608083E3
:1031A000B05F8C919081977F90830895E0ECF1E07F
:1031B00087858823ECF38091CF0181FF07C086E3E8
:1031C0008093CA0161E08BEC91E042C00895E0EC8D
:1031D000F1E097859923ECF3ACECB1E09C91986019
:1031E0009C93E82FF0E0F05F60838C91877F8C9355
:1031F0000895FF920F931F93CF93DF93182FF92E0B
:10320000C62F0091CA01D2DFE0ECF1E0278522232E
:10321000ECF36C2F812FDBDFC0ECD1E01A82F98256
:10322000188385E38A8761E08BEC91E011D00A87EF
:10323000DF91CF911F910F91FF9008954091CA01A6
:10324000E62FF72F8093CA0184914093CA01089515
:103250001BBEFC0128ED24BF60830895CF93DF934C
:10326000FC01709620E030E0C62FD0E0DE01022E97
:1032700002C0B595A7950A94E2F7A0FD50832F5F91
:103280003F4F31962830310589F740FF0AC041FF92
:1032900003C0FC01658302C0FC016683FC016183FD
:1032A00002C0FC016283DF91CF91089543E050E0BA
:1032B00061E080EE97E0D2DF43E050E062E080EE34
:1032C00097E0CCDF43E050E060E180E696E0C6DFC7
:1032D00041E050E460E280E696E0C0DF40E05BE180
:1032E00060E280E896E0BADF40E05BE162E080EA1D
:1032F00096E0B4DF40E05BE164E080EA96E0AEDFB8
:1033000043E050E062E080E696E0A8DF43E050E072
:1033100068E080E696E0A2DF43E050E068E080EA03
:1033200096E09CDF43E050E061E080E696E096DFC7
:1033300043E050E068E080E096E090DF41E050E05C
:1033400060E180E896E08ACF089507E110E20F2E51
:10335000F9ECFF2EF02DC4E0D3E20F2EF7EDCF2EC7
:10336000F3E2DF2EF02D8091F3228F938091F222F1
:103370008F931F930F931F92FF92DF93CF9357D793
:1033800027E030E240E060E0CE0169D98091F92287
:103390008F938091F8228F931F930F931F92FF9228
:1033A000DF93CF9344D727E030E248E060E0CE01DE
:1033B00056D9DF92CF921F930F931F92FF92DF9304
:1033C000CF9335D727E030E240E160E0CE0147D926
:1033D0008091F7228F938091F6228F931F930F9302
:1033E0001F92FF92DF93CF9322D78DB79EB780961F
:1033F0008DBF9EBF27E030E248E160E0CE012FD9CB
:1034000081E090E023DEAFCFC0E0D2E011E0CE015A
:103410000E94620C9FB7F8948881846088839FBF64
:103420009E8190FFFDCF1E832CA13DA1369527954F
:103430003695279536952795A5ECB0E254D592950B
:1034400082958F7089279F7089278093F2229093AD
:10345000F32281E090E0FADDDACFC0E0D2E00F2E77
:10346000F8ECEF2EF12CF02D04E610E09FB7F89465
:103470008881886088839FBF0E944C08882361F000
:103480000E94B108082E000C990BB701F7D4CB01AC
:103490004AE067ED73E2A8D69FB7F894888184600C
:1034A00088839FBF0E945808882341F00E94E1084A
:1034B000B801E4D46093F8227093F9228AE090E096
:1034C000C5DDD4CFCF93DF93CDB7DEB72B97CDBF7C
:1034D000DEBFBE016F5F7F4F80E092E00E945D0E15
:1034E000AE01485F5F4F61E080E092E00E94B90E5C
:1034F0009A818B818F7880618B83892F817E8A83EB
:103500001C8286E08D8381E088871986BE016F5F0B
:103510007F4F80E092E00E94090EAE01485F5F4F4E
:1035200061E080E092E00E94800E2B96CDBFDEBF6E
:10353000DF91CF9108951092A7088CE08093A608A0
:103540001092A30883E08093A50888E18093A408E3
:103550000895E1EAF8E0908195FFFDCF8093A008FF
:103560000895E1EAF8E080818823ECF78091A008D3
:103570000895CF93DF93C0911020D0911120CE01F8
:10358000019603DE2E979FEF9C9F90019D9F300D2B
:103590001124280F311D2093F6223093F722DF915A
:1035A000CF910895BF92CF92DF92EF92FF920F9347
:1035B0001F93CF93DF938093F0229093F1226FEFCC
:1035C00070E05CD46B01B82E8B01E82EF92E161634
:1035D00017064CF4C1E0D0E06FEFCE010ADE219671
:1035E0000C171D07CCF7EF2821F06B2DC6010196B3
:1035F00000DEDF91CF911F910F91FF90EF90DF9050
:10360000CF90BF90089501E010E00F2EF5EFEF2E60
:10361000F02DFF24F3948091EE229091EF228130DF
:10362000910511F58091F8229091F922865991091E
:10363000C39788F70093FA221093FB22CE2DDF2D3B
:1036400085E090E003DD2197D9F78091F0229091F9
:10365000F12201968093F0229093F122A3DF109241
:10366000FA221092FB22D7CF892BA9F68091FA2259
:103670009091FB22019779F68091F0229091F122AE
:103680009923ACF001978093F0229093F12285E08A
:1036900090E0DCDC8091F0229091F12299233CF0C3
:1036A0002091FA223091FB222130310559F37ADF43
:1036B000B2CF8091F2229091F322009739F488E200
:1036C00090E08093EC229093ED2208958130910553
:1036D00039F48EE190E08093EC229093ED220895EE
:1036E0008230910539F484E190E08093EC2290934C
:1036F000ED2208958330910539F48AE090E08093BB
:10370000EC229093ED220895049731F481E090E04B
:103710008093EC229093ED2208950FEF10E06091DA
:1037200002237091032320910023309101234091C3
:10373000FE225091FF228091FC229091FD22613067
:10374000710549F02130310531F04130510519F052
:103750008130910581F5260F371F240F351F280F63
:10376000391F6091F6227091F722C901860F971FC9
:103770008093F6229093F722B80180D3F82E262F5B
:10378000372F6093102070931120332384F0CEE004
:10379000D0E06FEFCE012DDD2196209110203091E9
:1037A0001120A901425F5F4F4C175D0794F76F2D01
:1037B000C90101961EDD7DDF8091EC229091ED2202
:1037C00045DCADCFE0E4F6E0808181608083E0E01D
:1037D000F8E085E0808386E1818380E49FE186A331
:1037E00097A387E791E080A791A70895E0E4F6E02A
:1037F000808181608083E0E0F8E085E0808386E17D
:10380000818380E49FE186A397A381E090E080A775
:1038100091A7089580E18093850600EE17E0DD24EE
:10382000D3946894CC24C1F8C1E0D0E00F2EF0E628
:10383000EF2EF6E0FF2EF02D6894AA24A5F86894E8
:10384000BB24B4F88EDE813679F480910223909106
:103850000323892B09F0B4C0F801D682C7DFC093D7
:103860000223D0930323ACC0813379F480910223E7
:1038700090910323019709F0A3C0F801D582A2DF3C
:1038800010920223109203239BC0823679F4809118
:10389000002390910123892B09F092C0F801C68280
:1038A000A5DFC0930023D09301238AC0823379F42B
:1038B0008091002390910123019709F081C0F801C4
:1038C000C58280DF109200231092012379C08336D5
:1038D00079F48091FE229091FF22892B09F070C02B
:1038E000F701B68283DFC093FE22D093FF2268C027
:1038F000833379F48091022390910323019709F097
:103900005FC0F701B5825EDF1092FE221092FF22A7
:1039100057C0843679F48091FC229091FD22892B46
:1039200009F04EC0F701A68261DFC093FC22D0935C
:10393000FD2246C0843379F48091FC229091FD22CF
:10394000019709F03DC0F701A5823CDF1092FC22EF
:103950001092FD2235C0853699F1853389F186367E
:1039600029F41092EE221092EF222AC0863329F415
:10397000C093EE22D093EF2223C0873679F4809152
:10398000EE229091EF22892BD9F4F801D682C682DB
:103990002DDFC093FA22D093FB2212C0873349F463
:1039A000F801D582C5820EDF1092FA221092FB2216
:1039B00007C0803711F4CDDD03C0813709F4C9DDBC
:1039C000CE0144DB3FCF81E0809380068093840664
:1039D000089581E08093800610928406089500E89F
:1039E00016E0C0E1F801C5832091F6223091F7225C
:1039F0008091F4229091F52282179307ECF4809144
:103A0000022390910323019791F0809100239091DC
:103A10000123019761F08091FE229091FF2201978E
:103A200031F08091FC229091FD22019729F4CBDFA7
:103A300085E090E00BDBCDDF8AE090E007DBD2CFC2
:103A4000AF92BF92CF92DF92EF92FF920F932EDC54
:103A50000E9464080E945E0B0E94E00B789487E04D
:103A60008093A2002FDD80E18093850688E080931B
:103A700045068093410684E0809346068093420683
:103A80005ADD80E090E081DB90E08093EA22909321
:103A9000EB228F3F910529F460E080E090E0A9DB04
:103AA0000BC0892B49F481E090E06FDB90E08093BC
:103AB0001020909311205DDD88E893E18093F4223B
:103AC0009093F52286EF99E06DDDA12CB12CC12CED
:103AD000D12CE12CF12C01E020E030E048EC50E06A
:103AE0006FE270E28AE09CE131D820E030E048ECFF
:103AF00050E06FE270E283E09BE128D820E030E004
:103B000048EC50E06FE270E28DE29AE11FD820E0CD
:103B100030E040E951E06FE270E28DE89BE116D8B9
:103B200020E030E048EC50E06FE270E284E09AE19F
:103B30000DD820E030E040E951E06FE270E28FEE16
:103B40009CE104D820E030E040E951E06FE270E20F
:103B500085EA99E10E94A615FAD880E090E00F91DD
:103B6000FF90EF90DF90CF90BF90AF9008955058A6
:103B7000BB27AA270ED0E5C0D6D030F0DBD020F08E
:103B800031F49F3F11F41EF4CBC00EF4E095E7FB37
:103B9000C1C0E92FE7D080F3BA1762077307840723
:103BA000950718F071F49EF5FFC00EF4E0950B2E0A
:103BB000BA2FA02D0B01B90190010C01CA01A0017F
:103BC0001124FF27591B99F0593F50F4503E68F1DA
:103BD0001A16F040A22F232F342F4427585FF3CF1B
:103BE000469537952795A795F0405395C9F77EF4EC
:103BF0001F16BA0B620B730B840BBAF09150A1F035
:103C0000FF0FBB1F661F771F881FC2F70EC0BA0FBA
:103C1000621F731F841F48F4879577956795B79542
:103C2000F7959E3F08F0B3CF9395880F08F099273A
:103C3000EE0F97958795089504D06894B111B5C09B
:103C4000089598D088F09F5790F0B92F9927B751D1
:103C5000A0F0D1F0660F771F881F991F1AF0BA9550
:103C6000C9F712C0B13081F09FD0B1E008959CC077
:103C7000672F782F8827B85F39F0B93FCCF3869546
:103C800077956795B395D9F73EF4909580957095A3
:103C900061957F4F8F4F9F4F0895E89409C097FB20
:103CA0003EF490958095709561957F4F8F4F9F4F13
:103CB0009923A9F0F92F96E9BB279395F695879557
:103CC00077956795B795F111F8CFFAF4BB0F11F41A
:103CD00060FF1BC06F5F7F4F8F4F9F4F16C08823C1
:103CE00011F096E911C0772321F09EE8872F762FF7
:103CF00005C0662371F096E8862F70E060E02AF038
:103D00009A95660F771F881FDAF7880F9695879523
:103D100097F9089597F99F6780E870E060E008954B
:103D20009FEF80EC089500240A94161617061806D3
:103D30000906089500240A941216130614060506AF
:103D40000895092E0394000C11F4882352F0BB0F40
:103D500040F4BF2B11F460FF04C06F5F7F4F8F4FA3
:103D60009F4F089557FD9058440F551F59F05F3FDE
:103D700071F04795880F97FB991F61F09F3F79F08D
:103D800087950895121613061406551FF2CF46950F
:103D9000F1DF08C0161617061806991FF1CF869591
:103DA0007105610508940895E894BB276627772775
:103DB000CB0197F908950BD0C4CFB5DF28F0BADF57
:103DC00018F0952309F0A6CFABCF1124EECFCADFB0
:103DD000A0F3959FD1F3950F50E0551F629FF0011E
:103DE000729FBB27F00DB11D639FAA27F00DB11D77
:103DF000AA1F649F6627B00DA11D661F829F222700
:103E0000B00DA11D621F739FB00DA11D621F839F86
:103E1000A00D611D221F749F3327A00D611D231F5C
:103E2000849F600D211D822F762F6A2F11249F57AA
:103E300050408AF0E1F088234AF0EE0FFF1FBB1FCD
:103E4000661F771F881F91505040A9F79E3F51056C
:103E500070F060CFAACF5F3FECF3983EDCF386951D
:103E600077956795B795F795E7959F5FC1F7FE2B17
:103E7000880F911D9695879597F9089597FB072EC2
:103E800016F4009406D077FD08D06DD007FC05D05D
:103E90003EF4909581959F4F0895709561957F4F61
:103EA0000895A1E21A2EAA1BBB1BFD010DC0AA1F7B
:103EB000BB1FEE1FFF1FA217B307E407F50720F093
:103EC000A21BB30BE40BF50B661F771F881F991F0E
:103ED0001A9469F760957095809590959B01AC0157
:103EE000BD01CF010895A29FB001B39FC001A39F60
:103EF000700D811D1124911DB29F700D811D112423
:103F0000911D08952F923F924F925F926F927F92F0
:103F10008F929F92AF92BF92CF92DF92EF92FF92D9
:103F20000F931F93CF93DF93CDB7DEB7CA1BDB0B85
:103F3000CDBFDEBF19942A88398848885F846E8493
:103F40007D848C849B84AA84B984C884DF80EE80BD
:103F5000FD800C811B81AA81B981CE0FD11DCDBFFF
:103F6000DEBFED010895AA1BBB1B51E107C0AA1FCC
:103F7000BB1FA617B70710F0A61BB70B881F991F0A
:103F80005A95A9F780959095BC01CD010895CF93DE
:103F9000DF938230910510F482E090E0E091E3231A
:103FA000F091E42320E030E0C0E0D0E0309711F160
:103FB0004081518148175907C0F04817590761F4EB
:103FC00082819381209719F08A839B832BC08093F1
:103FD000E3239093E42326C02115310519F04217FD
:103FE000530718F49A01BE01DF01EF010280F3814B
:103FF000E02DDCCF2115310509F1281B390B2430C8
:10400000310590F412968D919C911397611571056D
:1040100021F0FB018283938304C08093E323909378
:10402000E423FD01329644C0FD01E20FF31F8193AA
:104030009193225031092D933C933AC02091E12372
:104040003091E223232B41F420910320309104206E
:104050002093E1233093E22320910120309102202C
:104060002115310541F42DB73EB7409105205091FF
:104070000620241B350BE091E123F091E223E217A7
:10408000F307A0F42E1B3F0B2817390778F0AC017B
:104090004E5F5F4F2417350748F04E0F5F1F409368
:1040A000E1235093E2238193919302C0E0E0F0E09A
:1040B000CF01DF91CF9108950F931F93CF93DF939B
:1040C000009709F48CC0FC01329712821382009190
:1040D000E3231091E4230115110581F4208131813E
:1040E000820F931F2091E1233091E2232817390793
:1040F00079F5E093E123F093E22371C0D80140E029
:1041000050E0AE17BF0750F412962D913C911397D3
:10411000AD012115310509F1D901F3CF9D01DA0176
:104120002283338360817181860F971F82179307E3
:1041300069F4EC0128813981260F371F2E5F3F4F2C
:10414000208331838A819B8182839383452B29F449
:10415000E093E323F093E42342C01296ED93FC93A3
:104160001397ED01499159919E01240F351FE217D4
:10417000F30771F480819181840F951F02968D93CE
:104180009C9311978281938112968D939C931397A0
:10419000E0E0F0E0D80112968D919C911397009782
:1041A00019F0F8018C01F6CF8D919C9198012E5F4A
:1041B0003F4F820F931F2091E1233091E223281774
:1041C000390769F4309729F41092E3231092E4231D
:1041D00002C0128213820093E1231093E223DF9145
:1041E000CF911F910F910895BB274A3031F4992345
:1041F00022F4BDE2909581959F4F01C0BB27FB0142
:104200005527AA27880F991FAA1FA41710F0A41BCF
:1042100083955051B9F7A05DAA3308F0A95DA19329
:10422000009779F7B111B1931192CB0134C20F937A
:104230001F93CF93DF93CDB7DEB72E97CDBFDEBFF1
:104240000E891F89888D998D26E02C8309831A8316
:1042500097FF02C080E090E801978D839E83AE01B6
:10426000445E5F4F6A8D7B8DCE01019616D04D81E5
:104270005E8157FD0AC02F813885421753070CF421
:104280009A01F801E20FF31F10822E96CDBFDEBF18
:10429000DF91CF911F910F9108952F923F924F92EE
:1042A0005F926F927F928F929F92AF92BF92CF92C6
:1042B000DF92EF92FF920F931F93CF93DF93CDB7CF
:1042C000DEB72C97CDBFDEBF7C016B018A01FC01FC
:1042D00016821782838181FFB0C1CE0101964C0105
:1042E000F7019381F60193FD859193FF81916F0111
:1042F000882309F49EC1853239F493FD859193FF9B
:1043000081916F01853221F4B70190E0D4D1E8CFDB
:10431000512C312C20E02032A0F48B3269F030F4A3
:10432000803259F0833269F420612CC08D3239F02B
:10433000803339F4216026C02260246023C02860C5
:1043400021C027FD27C030ED380F3A3078F426FF22
:1043500006C0FAE05F9E300D1124532E13C08AE090
:10436000389E300D1124332E20620CC08E3221F481
:1043700026FD5FC1206406C08C3611F4206802C09F
:10438000883641F4F60193FD859193FF81916F0189
:104390008111C1CF982F9F7D9554933028F40C5FE5
:1043A0001F4FFFE3F9830DC0833631F0833771F07F
:1043B000833509F057C021C0F801808189830E5FE1
:1043C0001F4F44244394512C540114C03801F2E08F
:1043D0006F0E711CF801A080B18026FF03C0652D0F
:1043E00070E002C06FEF7FEFC5012C8749D12C012F
:1043F00083012C852F77222E16C03801F2E06F0E34
:10440000711CF801A080B18026FF03C0652D70E00B
:1044100002C06FEF7FEFC5012C8727D12C012C85BF
:104420002068222E830123FC19C0832D90E04816BA
:104430005906A0F4B70180E290E03DD13A94F5CF5F
:10444000F50127FC859127FE81915F01B70190E07E
:1044500032D131103A94F1E04F1A5108411451040D
:1044600079F7DEC0843611F0893631F5F80127FF7F
:1044700007C060817181828193810C5F1F4F08C0EA
:1044800060817181072E000C880B990B0E5F1F4F06
:104490002F76722E97FF09C0909580957095619543
:1044A0007F4F8F4F9F4F2068722E2AE030E0A4018B
:1044B0003AD1A82EA81843C0853729F42F7EB22EF2
:1044C0002AE030E025C0F22FF97FBF2E8F36C1F0F1
:1044D00018F4883579F0ADC0803719F0883721F0AD
:1044E000A8C02F2F2061B22EB4FE0DC08B2D84608A
:1044F000B82E09C024FF0AC09F2F9660B92E06C0AF
:1045000028E030E005C020E130E002C020E132E0E8
:10451000F801B7FE07C060817181828193810C5FD1
:104520001F4F06C06081718180E090E00E5F1F4FD9
:10453000A401F9D0A82EA818FB2DFF777F2E76FEB8
:104540000BC0372D3E7FA51450F474FE0AC072FCD8
:1045500008C0372D3E7E05C0BA2C372D03C0BA2CBB
:1045600001C0B52C34FF0DC0FE01EA0DF11D8081A4
:10457000803311F4397E09C032FF06C0B394B3947E
:1045800004C0832F867809F0B39433FD12C030FF46
:1045900006C05A2CB31418F4530C5B18B32CB31484
:1045A00060F4B70180E290E03C8785D0B3943C850D
:1045B000F6CFB31410F43B1801C0312C34FF11C0F6
:1045C000B70180E390E03C8776D03C8532FF16C08F
:1045D00031FD03C088E790E002C088E590E0B701B4
:1045E0000CC0832F867851F031FF02C08BE201C0EE
:1045F00080E237FD8DE2B70190E05DD0A51430F484
:10460000B70180E390E057D05A94F8CFAA94F40110
:10461000EA0DF11D8081B70190E04DD0A110F6CFD9
:10462000332009F45DCEB70180E290E044D03A94A3
:10463000F7CFF7018681978102C08FEF9FEF2C960D
:10464000CDBFDEBFDF91CF911F910F91FF90EF9013
:10465000DF90CF90BF90AF909F908F907F906F90A2
:104660005F904F903F902F900895FC01059061500E
:1046700070400110D8F7809590958E0F9F1F089578
:10468000FC016150704001900110D8F78095909521
:104690008E0F9F1F0895DC01FC01672F7191772316
:1046A000E1F7329704C07C916D9370836291AE17ED
:1046B000BF07C8F308950F931F93CF93DF93FB01B8
:1046C000238121FD03C08FEF9FEF28C022FF16C07A
:1046D00046815781248135814217530744F4A081D4
:1046E000B1819D012F5F3F4F208331838C932681C1
:1046F00037812F5F3F4F2683378310C0EB01092F8F
:10470000182F0084F185E02D1995892BE1F68E8113
:104710009F8101968E839F83812F902FDF91CF9170
:104720001F910F910895FA01AA27283051F12031E5
:1047300081F1E8946F936E7F6E5F7F4F8F4F9F4F35
:10474000AF4FB1E03ED0B4E03CD0670F781F891F77
:104750009A1FA11D680F791F8A1F911DA11D6A0F45
:10476000711D811D911DA11D20D009F468943F91F8
:104770002AE0269F11243019305D3193DEF6CF01F7
:104780000895462F4770405D4193B3E00FD0C9F7BD
:10479000F6CF462F4F70405D4A3318F0495D31FD2A
:1047A0004052419302D0A9F7EACFB4E0A69597957D
:1047B000879577956795BA95C9F700976105710553
:1047C00008959B01AC010A2E06945795479537959D
:1047D0002795BA95C9F7620F731F841F951FA01DF7
:0647E0000895F894FFCFDC
:1047E600010000E523200000FC010607207DFFFFF5
:1047F6000E0049444C45002533640020202020202B
:1048060020202020202020202020202020202000C2
:00000001FF
