S01500005465737450726174696B756D322E73726563F0
S113000046C2000065C2000063C2000061C2000075
S11300105FC200005DC200005BC2000059C2000064
S113002057C2000055C2000053C2000051C2000074
S11300304FC200000C94770F0C941B1549C20000AA
S113004047C2000045C2000043C2000041C2000094
S11300503FC200003DC200003BC2000039C20000A4
S113006037C2000035C2000033C2000031C20000B4
S11300702FC200002DC200002BC2000029C20000C4
S113008027C2000025C2000023C2000021C20000D4
S11300901FC200001DC200001BC200000C94270DEB
S11300A00C94590D0C948B0D0C94BD0D11C20000D1
S11300B00FC200000DC200000C949E0F09C2000084
S11300C007C2000005C2000003C2000001C2000014
S11300D0FFC10000FDC10000FBC10000F9C1000028
S11300E0F7C10000F5C10000F3C10000F1C1000038
S11300F0EFC10000EDC10000EBC10000E9C1000048
S1130100E7C10000E5C10000E3C10000E1C1000057
S1130110DFC10000DDC10000DBC100000C945F0CF6
S11301200C94910C0C94C30C0C94F50CD1C10000EC
S1130130CFC10000CDC10000CBC10000C9C1000087
S1130140C7C10000C5C10000C3C10000C1C1000097
S1130150BFC10000BDC10000BBC10000B9C10000A7
S1130160B7C10000B5C10000B3C10000B1C10000B7
S1130170AFC10000ADC10000ABC10000A9C10000C7
S1130180A7C10000A5C10000A3C10000A1C10000D7
S11301909FC100009DC100009BC1000099C10000E7
S11301A097C1000095C1000093C1000091C10000F7
S11301B08FC100008DC100008BC1000089C1000007
S11301C087C1000085C1000083C1000081C1000017
S11301D07FC100007DC100007BC1000079C1000027
S11301E077C1000075C1000073C1000071C1000037
S11301F06FC100006DC100006BC100000000000071
S1130200000000202020202000205050500000003A
S1130210005050F850F850502078A07028F020C0BA
S1130220C810204098186090A040A89068602040B2
S1130230000000001020404040201040201010100A
S11302402040005020F8205000002020F8202000FA
S113025000000000602040000000F80000000000E2
S1130260000000606000081020408000708898A89A
S1130270C8887020602020202070708808102040DA
S1130280F8F810201008887010305090F81010F80A
S113029080F008088870304080F0888870F8081072
S11302A020404040708888708888707088887808FA
S11302B010600060600060600000606000602040CA
S11302C0081020402010080000F800F800008040CA
S11302D02010204080708808102000207088086852
S11302E0A8A87070888888F88888F08888F088883A
S11302F0F070888080808870E09088888890E0F82A
S11303008080F08080F8F88080E080808070888031
S113031080988870888888F88888887020202020B1
S11303202070381010101090608890A0C0A09088A1
S1130330808080808080F888D8A888888888888889
S1130340C8A898888870888888888870F08888F019
S113035080808070888888A89068F08888F0A09051
S113036088788080700808F0F820202020202088D9
S113037088888888887088888888885020888888B1
S1130380A8A8D88888885020508888888850202039
S11303902020F80810204080F83820202020203821
S11303A000804020100800E02020202020E0205081
S11303B08800000000000000000000F84020100049
S11303C0000000000070087888788080B0C88888B1
S11303D0F000007080808870080868988888780029
S11303E0007088F88070304840E040404000007859
S11303F0887808308080B0C88888882000602020F1
S113040020701000301010906040404850605048F8
S1130410602020202020700000D0A8A88888000038
S1130420B0C8888888000070888888700000F088C8
S1130430F08080000068987808080000B0C88080C8
S113044080000070807008F04040E0404048300078
S11304500088888898680000888888502000008870
S113046088A8A85000008850205088000088887808
S113047008700000F8102040F810202040202010C0
S11304802020202020202040202010202040112443
S11304901FBECFEFCDBFDFE5DEBF00E00CBF10E233
S11304A0A0E0B0E2E4EEF0E400E00BBF02C007908D
S11304B00D92A835B107D9F723E2A8E5B0E201C04F
S11304C01D92A53FB207E1F70E94B11B0C94702066
S11304D097CD8093A2066093A2068093A5066093AD
S11304E0A6066093A10608953F936093A2068093A5
S11304F0A1068093A2066093A1063F918091A8066D
S1130500842308958093A6068093A1060895A1E00C
S1130510B0E0EDE8F2E00C945A1CE82F0FB7007835
S1130520198280915920813019F081E080935920FB
S1130530CE2EDD24F601E556FF4DB080F601E156DE
S1130540FF4DA080F894BB2009F4AAC08B2DDADFFC
S11305508B2D6A2DBEDF1B2DEE24FF2460E0812C41
S113056030E2932EF5FE07C090919C2080919B2051
S1130570982B19F535C08FB7802B8FBF0000F894E6
S11305808B2D6A2D412FB0DF682F0894E11CF11CDC
S1130590809100208F5F80930020823030F0823081
S11305A021F0833011F0109200206623D9F22091BB
S11305B09C2080919B20282B15C0412F80E040FF78
S11305C009C0E82FF0E0EE0FFF1FEC59FF4D8082C9
S11305D0918201C090FD8F5F96954695992379F796
S11305E010E020E08FB7802B8FBF10925A20222377
S11305F009F43FC0112309F43CC03091A02080913C
S11306009F20382B562F90E080E070E040E023C01C
S113061050FD17C019C030FF13C0981781F4E42FA0
S1130620F0E0EE0FFF1FEC59FF4DE082F182852FC1
S11306308E7F19F4892F71E008C0892F06C08F5F5F
S11306403695332341F701C020FD9F5F20FD4F5FA6
S11306505695269511F05523D9F640935A20609566
S11306601623713021F4112311F4EE24FF2460E0E9
S113067013C080919C2090919B20892B898390E0CA
S113068006C0898180FD9F5F8981869589838981E0
S11306908823B9F790935A20F894112309F062CF74
S11306A08BE990E2C80ED91EF60180812BDF1092EF
S11306B058208FB7082B0FBF2196ECE00C94731CC5
S11306C0FC0180E290E0808391831282138280E4B3
S11306D094E084839583089590919520A92FB0E0A8
S11306E0FD01EE0FFF1FEA0FFB1FEE0FFF1FE35884
S11306F0FF4D4383677085832370660F660F660F13
S1130700262B24839F5F9093952008951F93CF9366
S1130710DF93282FC82FD0E0FE01EE0FFF1FEC0F50
S1130720FD1FEE0FFF1FE358FF4D3581838190E0DD
S113073000905D2002C0959587950A94E2F7182FE2
S1130740843008F414E080919520281718F020E0F4
S113075030E02DC0832F1DD19C01412F50E0169510
S11307601695812F90E0841B950B8217930764F4F0
S1130770FE01EE0FFF1FEC0FFD1FEE0FFF1FE358EE
S1130780FF4D84818B7F848388279927841B950B55
S11307908217930764F0FE01EE0FFF1FEC0FFD1F9D
S11307A0EE0FFF1FE358FF4D848184608483C901E9
S11307B0DF91CF911F910895FF920F931F93CF93D1
S11307C0DF93109275201092762020917920309139
S11307D07A208093792090937A2040917B205091C5
S11307E07C20421B530B480F591FFF2403C0F39472
S11307F0485C5040483C5105D0F740937B205093CF
S11308007C2080919620882341F08F1518F4109253
S1130810962003C08F1980939620C3D3E09177204C
S1130820F0917820309709F0199510E000E005C0A8
S1130830812F6F2DC3D0082B1F5F60919520161751
S1130840B8F3002349F0809175209091762091604F
S1130850809375209093762010927420ADE7B0E2D7
S113086030E041E050E017C08C91887191F0E32FA3
S1130870E695E695E695F0E0EC59FF4D832F8770F9
S1130880EA0102C0CC0FDD1F8A95E2F720892C2BE8
S1130890208B3F5F1696361738F380917520909120
S11308A07620CDB7DEB7E5E00C947A1C1092952043
S11308B084E080935E2094E19093612085E08093AE
S11308C062201092602090935F2081E080935D20ED
S11308D083E08093632054D3109277201092782081
S11308E008951F9310E003C0812F27D01F5F8091CC
S11308F095201817C8F31F910895EF92FF921F9344
S1130900CF93DF93EC017B0110E003C0812F15D05E
S11309101F5F809195201817C8F3109279201092C8
S11309207A20C0935B20D0935C20C70124D3DF914D
S1130930CF911F91FF90EF90089590E0EDE7F0E2E2
S11309409C01220F331F280F391FD901AA0FBB1F87
S1130950AE0FBF1F15964C911597809175209091FD
S11309607620826080937520909376202F5F3F4F8E
S1130970220F331FE20FF31F1082E7E9F0E2E40FC6
S1130980F11D80E8808381E08C938FE011968C9335
S1130990089590E0FC013496A4E6B0E2EE0FFF1F48
S11309A0EA0FFB1F880F991FA80FB91F20813181FF
S11309B08D919C91281B390BC9010895A0E0B0E0EA
S11309C0E4EEF4E00C94581C782EF62E9FDE5C01C5
S11309D0072D10E0F801EE0FFF1FE00FF11FEE0FDF
S11309E0FF1FE358FF4D54814381242F30E0852FAE
S11309F0837090E0019602C0359527958A95E2F7B9
S1130A00822F223008F482E0242F30E0B901681BE1
S1130A107109F801EE0FFF1FE00FF11FEF01CC0F7A
S1130A20DD1FC358DF4D8881843009F4FBC0853055
S1130A3030F4813071F0823009F096C26EC080319A
S1130A4009F4A5C1803209F456C2883009F08CC279
S1130A5002C24091752050917620CA019260809321
S1130A607520909376208D816981A82FB0E06A303B
S1130A7060F0AA0FBB1FFD01EC59FF4D80819181ED
S1130A80A459BF4D8D939C9318C0AA0FBB1FFD01A1
S1130A90E459FF4D20813181AC59BF4D8D919C911A
S1130AA08217930718F42150304005C028173907DE
S1130AB050F42F5F3F4F208331834860526040934E
S1130AC0752050937620862F8150F801EE0FFF1F7A
S1130AD0E00FF11FEF01CC0FDD1FC358DF4D8983F9
S1130AE08823B1F4AD8182E0888380917520909150
S1130AF0762082608093752090937620EE0FFF1FFE
S1130B00E158FF4D1082B0E0A956BF4D80E88C93A8
S1130B1080915F208093962025C252FF08C0ED810A
S1130B20F0E0E956FF4D108280E288830CC2C501D3
S1130B30B7FE02C080E090E08217930780F0F801CE
S1130B40EE0FFF1FE00FF11FEE0FFF1FDF01A35891
S1130B50BF4D84E08C93E158FF4D1082FAC1FF2011
S1130B6009F402C280919620882309F0FDC1F8019E
S1130B70EE0FFF1FE00FF11FEE0FFF1FE358FF4DB5
S1130B80858190E0EC01CC0FDD1FC459DF4D288135
S1130B903981FC01EE0FFF1FEC59FF4D0190F081EC
S1130BA0E02D2E173F0788F4FC01E956FF4D908194
S1130BB09F0D9083809162208058981708F4D4C1C7
S1130BC080E880832F5F3F4F14C0DC01A956BF4DDE
S1130BD0E217F307D0F48C918F198C9340E890912D
S1130BE06120542F591B581708F4BEC14C9321504F
S1130BF030402883398380917520909176208860D5
S1130C008093752090937620AFC12C91213810F0F9
S1130C1021502C93FC01E956FF4D808187FDA4C12E
S1130C208F5F67C1C501B7FE02C080E090E0F801A4
S1130C30EE0FFF1F8217930708F48FC080915F2087
S1130C40809396209F01200F311F220F331FD9015B
S1130C50A158BF4D8C918F5F8C93F901E358FF4DE0
S1130C60848190E08873907023E0969587952A9507
S1130C70E1F7682E882309F43EC0CC24DD247F01EB
S1130C8083E090E0E80EF91E4D012FC0D71461F106
S1130C908D2D90E0EC01CC0FDD1FC80FD91FCC0FB8
S1130CA0DD1FC358DF4D8C8190E08873907073E032
S1130CB0969587957A95E1F76816B1F48D2D26DD22
S1130CC02B81821B9109F7012081A501421B510947
S1130CD0481759072CF08881803111F0883021F4AD
S1130CE0F4011082CC24C394D39480919520D81617
S1130CF068F2CC2079F480915E20882359F08091A9
S1130D00752090917620986080937520909376203A
S1130D1041E001C040E09801220F331F200F311F32
S1130D20F901EE0FFF1FE158FF4D908180915E2085
S1130D30981708F41AC180917520909176208360E9
S1130D408093752090937620F901EE0FFF1FE358EE
S1130D50FF4D80E18083118208C1E00FF11FEE0F87
S1130D60FF1FDF01A358BF4D15962C91159782E004
S1130D708C93809175209091762082608093752069
S1130D8090937620E158FF4D1082E22FAEC052FFBF
S1130D900EC0ED81F0E0E956FF4D80E8808380E2EB
S1130DA08883809175209091762090614AC0C50116
S1130DB0B7FE02C080E090E0F801EE0FFF1F409103
S1130DC07520509176208617970770F4E00FF11F75
S1130DD0EE0FFF1FE358FF4D88E08083546040937B
S1130DE075205093762031C0416040937520509314
S1130DF07620E00FF11FEE0FFF1FE158FF4D9081A9
S1130E0080915E20981710F49F5F908390916020EA
S1130E10992371F0F801EE0FFF1FE00FF11FEE0FA1
S1130E20FF1FE358FF4D8181891720F48F0D8183C3
S1130E3040E00CC0872D81DD809175209091762053
S1130E409260809375209093762041E080915F209A
S1130E50809396208AC080915F2080939620DF0142
S1130E60AA0FBB1FA158BF4D8C91882389F1C501DE
S1130E70B7FE02C080E090E040917520509176204A
S1130E806817790790F4F801EE0FFF1FE00FF11FC8
S1130E90EE0FFF1FE358FF4D80E1808341604093D4
S1130EA075205093762040E006C05460409375202E
S1130EB05093762041E0F801EE0FFF1FE00FF11F81
S1130EC0EE0FFF1FE158FF4D8081815080834DC09C
S1130ED0ED8182E0888380917520909176208260F4
S1130EE080937520909376201C92F0E0E956FF4D94
S1130EF080E8808339C08D81A82FB0E0A956BF4D0A
S1130F009C919F5F9C9352FD18C097FF03C080E1A2
S1130F1088832AC082E0888380917520909176200E
S1130F2082608093752090937620EE0FFF1FE15826
S1130F30FF4D108280E88C9317C08091632098172E
S1130F4040F0872DFADC8091752090917620906195
S1130F5005C08091752090917620946080937520CF
S1130F609093762041E001C040E0842FCDB7DEB7F6
S1130F70EEE00C94711CFC01009709F0199508959A
S1130F8010929B2010929C2010929F201092A020DF
S1130F9010929D2010929E201092A1201092A220C7
S1130FA0089580919D2090919B20892B41F0E091A0
S1130FB05B20F0915C20309711F080E019958091CE
S1130FC09E2090919C20892B41F0E0915B20F09130
S1130FD05C20309711F081E019950895613069F52E
S1130FE08091A4208F5F8093A420813039F44093B2
S1130FF0A5205093A6201092A9200CC08091A52072
S11310009091A620480F591F569547954093A520C7
S11310105093A6208091A420843031F41092A4200F
S113102081E08093A92008958FB7F894E0E0F2E07E
S11310309081946090838FBF0895623061F58091B0
S1131040A3208F5F8093A320813039F44093A7209D
S11310505093A8201092AA200CC08091A7209091B0
S1131060A820480F591F569547954093A7205093A1
S1131070A8208091A320843031F41092A32081E031
S11310808093AA2008958FB7F894E0E0F2E090816D
S1131090986090838FBF08958FB7F8949091A9209A
S11310A0992329F01092A9208FBF81E008958FBF62
S11310B080E008951F93CF93DF93CDB7DEB72B97CE
S11310C0CDBFDEBFBE016F5F7F4F80E092E0DCD515
S11310D0AE01485F5F4F61E080E092E031D68A81E3
S11310E09B819F7890619B8396E09D83817E806144
S11310F08A831C82BE016F5F7F4F80E092E06FD5D0
S11311006EEE77E080E092E06DD311E018871986E7
S11311108A85807F81608A87AE01485F5F4F61E086
S113112080E092E0D4D5188788E08987AE01485FD3
S11311305F4F62E080E092E0CAD580E092E0A8D3FD
S11311402B96CDBFDEBFDF91CF911F910895809183
S1131150A5209091A6200895BF92CF92DF92EF929E
S1131160FF920F931F93CF93DF931F92CDB7DEB7F8
S113117088E0E0E0F6E0868380E090E00196853345
S11311809105E1F788E0E0E0F6E0858380E090E017
S1131190019685339105E1F70F2EFBE2BF2EF02D6A
S11311A0B98280EA99E00E94D211C12CD12C760137
S11311B000E412E42FE030E043E0BE016F5F7F4FB4
S11311C080EA99E00E94011200E616E0FF24F394FD
S11311D0F801F682B982BE016F5F7F4F80EA99E021
S11311E00E941B12F801F682E0EAF9E0818185FF92
S11311F0FDCF80EA8093A009E0EAF9E0818186FFCF
S1131200FDCFE0EAF9E080E481838081BE016F5F75
S11312107F4F80EA99E00E9431128BE28983BE01FC
S11312206F5F7F4F80EA99E00E941B1281E0E0E645
S1131230F6E08683E0EAF9E0818185FFFDCF86EA66
S11312408093A009E0EAF9E0818186FFFDCFE0EA1E
S1131250F9E080E481838081BE016F5F7F4F80EA83
S113126099E00E9431128BE28983BE016F5F7F4F48
S113127080EA99E00E941B1281E0E0E6F6E08683B2
S1131280E0EAF9E0818185FFFDCF88EC8093A00935
S1131290E0EAF9E0818186FFFDCFE0EAF9E080E44D
S11312A081838081BE016F5F7F4F80EA99E00E9455
S11312B031128BE28983BE016F5F7F4F80EA99E030
S11312C00E941B1281E0E0E6F6E08683E0EAF9E0A2
S11312D0818185FFFDCF82EA8093A009E0EAF9E0ED
S11312E0818186FFFDCFE0EAF9E080E4818380819B
S11312F0BE016F5F7F4F80EA99E00E9431128BE25A
S11313008983BE016F5F7F4F80EA99E00E941B12C0
S113131081E0E0E6F6E08683E0EAF9E0818185FF9A
S1131320FDCF8FE28093A009E0EAF9E0818186FF96
S1131330FDCFE0EAF9E080E481838081BE016F5F44
S11313407F4F80EA99E00E9431128BE28983BE01CB
S11313506F5F7F4F80EA99E00E941B1281E0E0E614
S1131360F6E08683E0EAF9E0818185FFFDCF88EF2E
S11313708093A009E0EAF9E0818186FFFDCFE0EAED
S1131380F9E080E481838081BE016F5F7F4F80EA52
S113139099E00E9431128BE28983BE016F5F7F4F17
S11313A080EA99E00E941B1281E0E0E6F6E0868381
S11313B0E0EAF9E0818185FFFDCF1092A009E0EA1F
S11313C0F9E0818186FFFDCFE0EAF9E080E48183E2
S11313D08081BE016F5F7F4F80EA99E00E943112E5
S11313E08BE28983BE016F5F7F4F80EA99E00E94A0
S11313F01B1281E0E0E6F6E08683E0EAF9E0818111
S113140085FFFDCF81E28093A009E0EAF9E08181C4
S113141086FFFDCFE0EAF9E080E481838081BE01AC
S11314206F5F7F4F80EA99E00E9431128BE28983DB
S1131430BE016F5F7F4F80EA99E0FDD781E0E0E66F
S1131440F6E08683E0EAF9E0818185FFFDCF81E85B
S11314508093A009E0EAF9E0818186FFFDCFE0EA0C
S1131460F9E080E481838081BE016F5F7F4F80EA71
S113147099E0F7D78BE28983BE016F5F7F4F80EAE3
S113148099E0D9D781E0E0E6F6E08683E0EAF9E086
S1131490818185FFFDCF81E28093A009E0EAF9E034
S11314A0818186FFFDCFE0EAF9E080E481838081D9
S11314B0BE016F5F7F4F80EA99E0D3D78BE28983C7
S11314C0BE016F5F7F4F80EA99E0B5D781E0E0E627
S11314D0F6E08683E0EAF9E0818185FFFDCF8FEABB
S11314E08093A009E0EAF9E0818186FFFDCFE0EA7C
S11314F0F9E080E481838081BE016F5F7F4F80EAE1
S113150099E0AFD70F90DF91CF911F910F91FF908A
S1131510EF90DF90CF90BF900895FF920F931F93A9
S1131520CF93DF931F92CDB7DEB7F82E062F142F7B
S1131530B3D78F2D8F70806BF82E8BE28983BE0119
S11315406F5F7F4F80EA99E076D781E0E0E6F6E0CE
S11315508683E0EAF9E0918195FFFDCFF092A0093E
S1131560E0EAF9E0818186FFFDCFE0EAF9E080E47A
S113157081838081BE016F5F7F4F80EA99E071D7DC
S1131580802F8F7782958F708061F82E8BE289830C
S1131590BE016F5F7F4F80EA99E04DD781E0E0E6BE
S11315A0F6E08683E0EAF9E0818185FFFDCFF092E1
S11315B0A009E0EAF9E0818186FFFDCFE0EAF9E0E5
S11315C080E481838081BE016F5F7F4F80EA99E070
S11315D048D70F708BE28983BE016F5F7F4F80EA2B
S11315E099E029D781E0E0E6F6E08683E0EAF9E0D5
S11315F0818185FFFDCF0093A009E0EAF9E08181B4
S113160086FFFDCFE0EAF9E080E481838081BE01BA
S11316106F5F7F4F80EA99E024D78BE28983BE0114
S11316206F5F7F4F80EA99E006D781E0E0E6F6E05D
S11316308583E0EAF9E0818185FFFDCF1093A0095D
S1131640E0EAF9E0818186FFFDCFE0EAF9E080E499
S11316508183808181E0E0E6F6E08683BE016F5FEE
S11316607F4F80EA99E0FDD60F90DF91CF911F91D3
S11316700F91FF9008950F931F93CF93DF931F92C1
S1131680CDB7DEB78BEA90E202D766DD8BE28983C1
S1131690BE016F5F7F4F80EA99E0CDD681E0E0E63E
S11316A0F6E08683E0EAF9E0818185FFFDCF80E4FE
S11316B08093A009E0EAF9E0818186FFFDCFE0EAAA
S11316C0F9E080E481838081BE016F5F7F4F80EA0F
S11316D099E0C7D600E00AC040E0612F802F1DDFEB
S11316E01F5F1038C9F70F5F043011F010E0F4CF1A
S11316F00F90DF91CF911F910F910895FF920F9357
S11317001F93CF93DF93182F042F882374F1603233
S113171060F5F62EF694F694F6942F2D30E031957C
S113172021953109220F331F220F331F220F331F3C
S1131730260F311DE1E0F0E0EF0102C0CC0FDD1F08
S11317402A95E2F7682F8F2DB6D6013021F028F0C4
S1131750023031F006C08C2B04C0C0958C2301C02C
S11317608C27482F612F8F2DD8DEDF91CF911F91C9
S11317700F91FF9008959FC6089584E080935E20A2
S113178084E18093612095E0909362201092602020
S113179080935F2081E080935D2083E080936320C9
S11317A0109277201092782080E480939B201092EE
S11317B09C2010929D2010929E2080E880939F2070
S11317C01092A0201092A1201092A22023E04AE0BF
S11317D060E080E00E946C0360E070E087E892E0E3
S11317E08CC808954FB7F894282F392F211582E01B
S11317F0380729F46093EF237093F02307C0203453
S1131800324021F46093ED237093EE234FBF08958B
S1131810811522E0920769F48091AC2291E0980F3F
S11318209093AC22811114C062E081E00C94EB1817
S113183008958034924061F48091AB2291E0980F36
S11318409093AB22811104C062E082E00C94EB1807
S11318500895811522E0920761F48091AC228150B1
S11318608093AC22811113C062E081E00C94F718DC
S113187008958034924059F48091AB228150809332
S1131880AB22811104C062E082E00C94F718089541
S11318901F93CF93DF93EC011FB7F894B9DF8881CE
S11318A0816088831FBF8FB7F894E8EEF3E29081DC
S11318B09F5F90838FBFDF91CF911F9108951F92F7
S11318C00F920FB60F9211240BB60F922F933F93E2
S11318D04F935F936F937F938F939F93AF93BF9334
S11318E0EF93FF93E0E0F2E044A155A1E091EF23F0
S11318F0F091F02361E080E092E01995FF91EF917F
S1131900BF91AF919F918F917F916F915F914F9113
S11319103F912F910F900BBE0F900FBE0F901F9011
S113192018951F920F920FB60F9211240BB60F92B7
S11319302F933F934F935F936F937F938F939F93D3
S1131940AF93BF93EF93FF93E8E2F2E044815581B4
S1131950E091EF23F091F02362E080E092E01995AA
S1131960FF91EF91BF91AF919F918F917F916F9173
S11319705F914F913F912F910F900BBE0F900FBE2F
S11319800F901F9018951F920F920FB60F9211246B
S11319900BB60F922F933F934F935F936F937F9365
S11319A08F939F93AF93BF93EF93FF93E0E3F2E0A2
S11319B044815581E091EF23F091F02364E080E0CD
S11319C092E01995FF91EF91BF91AF919F918F9103
S11319D07F916F915F914F913F912F910F900BBE2B
S11319E00F900FBE0F901F9018951F920F920FB675
S11319F00F9211240BB60F922F933F934F935F9343
S1131A006F937F938F939F93AF93BF93EF93FF93C2
S1131A10E8E3F2E044815581E091EF23F091F02373
S1131A2068E080E092E01995FF91EF91BF91AF914A
S1131A309F918F917F916F915F914F913F912F91E2
S1131A400F900BBE0F900FBE0F901F9018951F9212
S1131A500F920FB60F9211240BB60F922F933F9350
S1131A604F935F936F937F938F939F93AF93BF93A2
S1131A70EF93FF93E0E4F2E044A155A1E091ED235C
S1131A80F091EE2361E080E492E01995FF91EF91EB
S1131A90BF91AF919F918F917F916F915F914F9182
S1131AA03F912F910F900BBE0F900FBE0F901F9080
S1131AB018951F920F920FB60F9211240BB60F9226
S1131AC02F933F934F935F936F937F938F939F9342
S1131AD0AF93BF93EF93FF93E8E6F2E0448155811F
S1131AE0E091ED23F091EE2362E080E492E0199519
S1131AF0FF91EF91BF91AF919F918F917F916F91E2
S1131B005F914F913F912F910F900BBE0F900FBE9D
S1131B100F901F9018951F920F920FB60F921124D9
S1131B200BB60F922F933F934F935F936F937F93D3
S1131B308F939F93AF93BF93EF93FF93E0E7F2E00C
S1131B4044815581E091ED23F091EE2364E080E43B
S1131B5092E01995FF91EF91BF91AF919F918F9171
S1131B607F916F915F914F913F912F910F900BBE99
S1131B700F900FBE0F901F9018951F920F920FB6E3
S1131B800F9211240BB60F922F933F934F935F93B1
S1131B906F937F938F939F93AF93BF93EF93FF9331
S1131BA0E8E7F2E044815581E091ED23F091EE23E2
S1131BB068E080E492E01995FF91EF91BF91AF91B5
S1131BC09F918F917F916F915F914F913F912F9151
S1131BD00F900BBE0F900FBE0F901F901895DF92C1
S1131BE0EF92FF920F931F93CF93DF93EC018B013E
S1131BF0C11522E0D20781F461E270E082E00E9424
S1131C005C19E82EF12C60E270E082E00E945C191D
S1131C10FE2CEE24E82A12C08034924069F565E275
S1131C2070E082E00E945C19E82EF12C64E270E01E
S1131C3082E00E945C19FE2CEE24E82ADFB6F894B8
S1131C40CE01E6DD288182E08883EC86FD86F801FA
S1131C5085819681888F998F82818A8384818C8300
S1131C6083818B8381818983822F81709081892BE9
S1131C708883CE01EEDDDFBEDF91CF911F910F91FE
S1131C80FF90EF90DF900895FF920F931F93CF93EF
S1131C90DF93EC018B01FFB6F894BADD8881807C78
S1131CA0F8018083888D998D858396838A818283C8
S1131CB08C8184838B81838389818183CE01C9DD77
S1131CC0FFBEDF91CF911F910F91FF900895CF92A6
S1131CD0DF92EF92FF920F931F93CF93DF937C01D8
S1131CE0D62E8A01862F837029F4962F9695969581
S1131CF082E002C0962F80E090FF8F5FE701A096FC
S1131D0098E0899FC00DD11D1124CFB6F894C70166
S1131D107FDDF8018081888382818A838181898340
S1131D20D0FE02C083818E83C70193DDCFBEDF91D5
S1131D30CF911F910F91FF90EF90DF90CF90089576
S1131D40CF92DF92EF92FF920F931F93CF93DF9383
S1131D507C01D62EEA01862F837029F4962F96955E
S1131D60969582E002C0962F80E090FF8F5F8701F6
S1131D70005E1F4F98E0899F000D111D1124CFB6FE
S1131D80F894C70145DDF8018081888382818A83C4
S1131D9081818983D0FE02C086818B83C70159DD8E
S1131DA0CFBEDF91CF911F910F91FF90EF90DF9005
S1131DB0CF900895CF93DF93E091AD22F091AE22BE
S1131DC0848183FF08C08860848383E0838386EFF3
S1131DD08093B72289C0982F947131F083E0838374
S1131DE08FEF8093B72280C086FF45C0A091AF22B9
S1131DF0B091B0228091B1229091B22214962D918B
S1131E003C911597821793076CF49C012F5F3F4F09
S1131E102093B1223093B222A80FB91F11968C914E
S1131E20878362C08091B3229091B42218962D9139
S1131E303C91199782179307C8F42091B522222365
S1131E4021F08681816086834FC016962D913C9146
S1131E501797AC014F5F5F4F4093B3225093B42266
S1131E60D901A80FB91F8C9187833EC083E0838377
S1131E701092B72239C08823A4F5A091AF22B09163
S1131E80B0228091B3229091B42218962D913C9166
S1131E90199782179307F8F416964D915C9117974A
S1131EA09C012F5F3F4F2093B3223093B42267816C
S1131EB0EA01C80FD91F688318968D919C911997D0
S1131EC02817390718F482E083830EC087E08383E0
S1131ED01092B72209C083E0838389EF8093B722ED
S1131EE003C08BEF8093B722DF91CF9108951F92A7
S1131EF00F920FB60F9211240BB60F922F933F93AC
S1131F004F935F936F937F938F939F93AF93BF93FD
S1131F10EF93FF934FDFFF91EF91BF91AF919F91AB
S1131F208F917F916F915F914F913F912F910F907E
S1131F300BBE0F900FBE0F901F9018951F920F921B
S1131F400FB60F9211240BB60F922F933F934F931A
S1131F505F936F937F938F939F93AF93BF93EF930D
S1131F60FF9328DFFF91EF91BF91AF919F918F91E4
S1131F707F916F915F914F913F912F910F900BBE85
S1131F800F900FBE0F901F901895CF92DF92EF9293
S1131F90FF920F931F93CF93DF93EC0168017901B4
S1131FA0F694E794D794C7944C155D056E057F05A8
S1131FB078F46A017B01CC0CDD1CEE1CFF1CC9010A
S1131FC0B801A70196010E94231C2150310902C0C7
S1131FD020E030E0832F8F708F832E83DF91CF91A9
S1131FE01F910F91FF90EF90DF90CF900895FF9293
S1131FF00F931F93CF93DF93EC018B01009709F4A8
S1132000B4C1803C910529F460E180E00E94EB18A2
S1132010ACC1803821E0920729F462E080E00E949C
S1132020EB18A3C1C11581E0D80729F461E080E071
S11320300E94EB189AC1C038E3E0DE0729F461E09E
S113204081E00E94EB1891C1C039F3E0DF0729F465
S113205061E082E00E94EB1888C1C11522E0D2073A
S113206029F462E081E00E94EB187FC1C03482E071
S1132070D80729F462E082E00E94EB1876C1C032EE
S1132080E3E0DE0729F464E082E00E94EB186DC10E
S1132090C115F8E0DF0729F461E083E00E94EB1842
S11320A064C1C11529E0D20729F461E084E00E94EB
S11320B0EB185BC1C1158AE0D80729F461E085E01B
S11320C00E94EB1852C1C115EBE0DE0729F461E070
S11320D086E00E94EB1849C1C034F8E0DF0729F418
S11320E062E083E00E94EB1840C1C03429E0D207CB
S11320F029F462E084E00E94EB1837C1C0348AE01E
S1132100D80729F462E085E00E94EB182EC1C0399B
S1132110E8E0DE0729F464E083E00E94EB1825C1BF
S1132120C039F9E0DF0729F464E084E00E94EB1889
S11321301CC1C0392AE0D20729F464E085E00E947A
S1132140EB1813C1C0398BE0D80729F464E086E0AA
S11321500E94EB180AC1C03CE8E0DE0729F468E0FD
S113216083E00E94EB1801C1C03CF9E0DF0729F4C9
S113217068E084E00E94EB18F8C0C03A28E0D20777
S113218079F460E183E00E94EB18E0EAF8E08481EE
S11321908F7E8483F8013481325080EA98E046C00F
S11321A0C03AF9E0DF0729F460E184E00E94EB180B
S11321B0DCC0C03A2AE0D20729F460E185E00E943D
S11321C0EB18D3C0C03A8BE0D80729F460E186E06D
S11321D00E94EB18CAC0C03BE8E0DE0721F460E2CD
S11321E083E0F9D7C2C0C03BF9E0DF0721F460E225
S11321F084E0F1D7BAC0C03824E0D20721F460E407
S113220083E0E9D7B2C0C03A84E0D80721F460E49F
S113221085E0E1D7AAC08C818F7E8C83FB01348159
S11322203250CE01C03AF8E0DF0751F4E0E4F6E0C2
S1132230268524FDA2C00F2EF1E1FF2EF02D04C04F
S1132240803B28E0920799F0803AE9E09E0751F438
S1132250E0E6F6E0268524FD95C00F2EF9E1FF2E79
S1132260F02D17C0803BF9E09F0701F104C00F2E49
S1132270F5E1FF2EF02D803A2AE0920751F4E0E8D0
S1132280F6E0868584FD83C00F2EF1E2FF2EF02D4B
S113229016C0803A9B4099F4E0EAF6E0868584FF14
S11322A00AC00F2EFDE2FF2EF02D09C00F2EFDE116
S11322B0FF2EF02D04C00F2EF9E2FF2EF02DAF2DCE
S11322C0A695A695A695F0E2AF9FD0011124BA5F1A
S11322D02F2D277081E090E0022E02C0880F991FF5
S11322E00A94E2F711968C931197323010F430E48B
S11322F001C030E0FD017096E20FF11D9FB7F89424
S11323002081277020832081232B20839FBF159653
S11323108C938D81806C8D83F80184818D7F8130D5
S113232021F48D8182608D8303C08D818D7F8D83A7
S1132330F8018581882321F08D8184608D8303C019
S11323408D818B7F8D83F8014081518162817381FE
S113235000E018E428EE31E0CE0117DE8C818860BD
S11323608C838C8180618C8317C08C818F7E8C835D
S1132370F80134813250CE0163CF0F2EF5E1FF2EE8
S1132380F02D62CF0F2EFDE1FF2EF02D82CF0F2E08
S1132390F5E2FF2EF02D93CFDF91CF911F910F9196
S11323A0FF900895803A28E0920721F460E183E0E9
S11323B012C70895803B28E0920721F460E283E08D
S11323C00AC70895803A29E0920721F460E184E085
S11323D002C70895803B29E0920721F460E284E07B
S11323E0FAC60895803A2AE0920721F460E185E074
S11323F0F2C60895803A9B4019F460E186E0EBC68A
S113240008950F931F93CF93DF9300D000D0CDB7DF
S1132410DEB709831A832B833C834D831E82BE015E
S11324206F5F7F4FE4DD2696CDBFDEBFDF91CF9196
S11324301F910F910895FB018081E82FE695E695A1
S1132440E69540E2E49FF0011124FA5F877021E0F1
S113245030E0A90102C0440F551F8A95E2F7468374
S11324600895FB018081E82FE695E695E69540E224
S1132470E49FF0011124FA5F877021E030E0A901A4
S113248002C0440F551F8A95E2F74583089580934F
S1132490B8229093B922089520E8829FC0011124A4
S11324A0FC01E60FF11D8091B8229091B922E80F4A
S11324B0F91F4083089520E8829FC0011124FC0184
S11324C0E60FF11D8091B8229091B922E80FF91F0F
S11324D080810895FF920F931F93CF93DF93E42F8E
S11324E0F0E0E80FF11DE138F10514F040E8481B75
S11324F0442309F45CC0C62FC695C695C695EC2F37
S1132500F0E0F195E195F109EE0FFF1FEE0FFF1FCB
S1132510EE0FFF1FDF01A60FB11DBD01E1E0F0E0EA
S1132520DF0102C0AA0FBB1F6A95E2F70A2F213010
S113253049F068F0223009F03AC0D42FFF24FA940D
S1132540F80E28C0D42FFF24FA94F80E07C0D42F15
S1132550FF24FA94F80E0A2F00950EC01F2D1D0FAC
S1132560612F8C2F08D9482F402B612F8C2F0E946C
S11325708D0AD15099F71BC01F2D1D0F612F8C2F71
S1132580FAD8482F4023612F8C2F0E948D0AD150F6
S113259099F70DC01F2D1D0F612F8C2FECD8482FDC
S11325A04027612F8C2F0E948D0AD15099F7DF911B
S11325B0CF911F910F91FF900895FF920F931F9356
S11325C0CF93DF93D82F142F222361F0C22FFF243F
S11325D0FA94F60E6F2D6C0F202F412F8D2F7ADF7A
S11325E0C150C1F7DF91CF911F910F91FF900895D2
S11325F0AF92BF92CF92DF92EF92FF920F931F930D
S1132600CF93DF93C82FD62EA42E790100E0F901D1
S1132610248143816A2D8D2DD0DFF70190819111A2
S113262039C08381A82FA695A695A695877009F031
S1132630AF5FF701C480AC9DD0011124EC2FF0E012
S1132640E7018D81E81BF109AE9F9001AF9F300D2A
S1132650BE9F300D11240980DA81C02DC20FD31F13
S1132660F701B380BB2099F000E010E0812F8D0DBD
S1132670912F977019F4FE010491219600231CF404
S113268041E06A2D3BD8000F1F5F1B11EFCFA394CD
S1132690CA9431F7DF91CF911F910F91FF90EF9082
S11326A0DF90CF90BF90AF900895DF92EF92FF92AA
S11326B00F931F93CF93DF93E42E8901EC01F62E41
S11326C0D62E89918A3031F4F80184818F5FE80E27
S11326D0FD2C09C08D3039F098014E2D6F2D88DF07
S11326E0F8018381F80E88818111EBCFDF91CF91BE
S11326F01F910F91FF90EF90DF900895FC010396D6
S1132700818392832FEF3FEF2383348385839683E2
S11327108783908710820895FC011086118608959E
S1132720CF93DF939C01FB01DC011196CD91DC91E9
S11327301297C283D3838C819D81848395838C81FA
S11327409D81DC0112966D937C9313976C837D833A
S113275020873187F90180818F5F8083DF91CF915A
S11327600895CF93DF93EB01488159814F3F2FEFB9
S1132770520721F4FC01A781B0850DC0DC0113963A
S11327801296ED91FC9113972081318142175307E2
S113279010F0DF01F5CF1296ED91FC911397EA83C7
S11327A0FB83C483D583AC83BD831296CD93DC9322
S11327B0139788879987FC0120812F5F2083DF91FD
S11327C0CF910895CF93DF93FC01A085B185C28199
S11327D0D381848195818C839D83C481D5818281B9
S11327E093818A839B831196CD91DC911297CE17A6
S11327F0DF0731F48C819D8111968D939C93129700
S1132800108611868C9181508C93DF91CF9108951D
S11328100F931F938B0171E1FC017083319762E286
S11328206083319723E32083222717FD2095322FDD
S11328303197008331971083319720833197108229
S1132840319720E8208331971082319722E020834A
S1132850319723E02083319724E02083319725E0CA
S11328602083319726E02083319727E02083319716
S113287028E02083319729E02083319720E12083C9
S113288031977083319722E12083319723E12083AC
S1132890319724E12083319725E12083319726E184
S11328A02083319727E12083319728E120833197D2
S11328B029E12083319720E22083319721E220838C
S11328C031976083319723E2208331974083319796
S11328D05083319726E22083319727E22083319772
S11328E028E22083319729E22083319720E3208353
S11328F0319721E3208387971F910F910895F894CE
S1132900E0E7F0E083818A7F8383E0E0F8E080E021
S11329109AEF86A397A381E08683A0EAB0E012969B
S11329209C911297916012969C9380837894A091C5
S11329301023B09111230D900DBE0D900EBEFF918A
S1132940EF91DF91CF91BF91AF919F918F917F9143
S11329506F915F914F913F912F911F910F91FF9034
S1132960EF90DF90CF90BF90AF909F908F907F902B
S11329706F905F904F903F902F901F900F900FBEDD
S11329800F90089508950F920FB6F8940F921F9226
S113299011242F923F924F925F926F927F928F9267
S11329A09F92AF92BF92CF92DF92EF92FF920F93DA
S11329B01F932F933F934F935F936F937F938F93C3
S11329C09F93AF93BF93CF93DF93EF93FF93A09124
S11329D01023B09111230DB60D920EB60D9276D33D
S11329E0A0911023B09111230D900DBE0D900EBE39
S11329F0FF91EF91DF91CF91BF91AF919F918F9113
S1132A007F916F915F914F913F912F911F910F9102
S1132A10FF90EF90DF90CF90BF90AF909F908F90FA
S1132A207F906F905F904F903F902F901F900F90EA
S1132A300FBE0F9008950F920FB6F8940F921F9245
S1132A4011242F923F924F925F926F927F928F92B6
S1132A509F92AF92BF92CF92DF92EF92FF920F9329
S1132A601F932F933F934F935F936F937F938F9312
S1132A709F93AF93BF93CF93DF93EF93FF93A09173
S1132A801023B09111230DB60D920EB60D92B0D154
S1132A9081111CD3A0911023B09111230D900DBE70
S1132AA00D900EBEFF91EF91DF91CF91BF91AF9149
S1132AB09F918F917F916F915F914F913F912F9152
S1132AC01F910F91FF90EF90DF90CF90BF90AF9048
S1132AD09F908F907F906F905F904F903F902F903A
S1132AE01F900F900FBE0F901895CF93DF93EC01BA
S1132AF079D1CE010AD7EC0150D2CE01DF91CF912A
S1132B000895CF93DF93EC01009721F06BD1CE01B0
S1132B1094D743D2DF91CF910895C3EED2E2888156
S1132B20823008F4FFCF2FDFFACFCF93DF93EC018D
S1132B30E0911023F0911123828393838091C12229
S1132B409091C222C817D90760F460911023709144
S1132B5011238091CD229091CE226E5F7F4F01DEB2
S1132B6016C060911023709111238091CF2290910F
S1132B70D0226E5F7F4FF5DD80910E2090910F2063
S1132B80C817D90720F4C0930E20D0930F20DF91EB
S1132B90CF9108954F925F926F927F928F929F92FE
S1132BA0AF92BF92CF92DF92EF92FF920F931F9357
S1132BB0CF93DF934C015B012A01390181E290E05C
S1132BC094DFEC01009709F4D2C0C114D10409F0D8
S1132BD0B7C0C2018ADF8F8B988F892B09F0B2C0EE
S1132BE0CE018FDFC4C0CF013191DA013D93AD0135
S1132BF0DC018C91882311F02150A9F718A2102F21
S1132C00053008F014E01E8B5E01B2E0AB0EB11C7F
S1132C10C50182DDCE010C967FDDC887D98785E0AA
S1132C2090E0811B91098C879D87CA8BDB8BA30164
S1132C30B401C601EDDD88839983E114F10419F030
S1132C40F701C083D1830FB6F8940F928091C32209
S1132C508F5F8093C3228091102390911123892B3D
S1132C6091F5C0931023D09311238091C322813016
S1132C70C9F50F2EF3EEEF2EF2E2FF2EF02D0F2EFC
S1132C80F0E1CF2EF3E2DF2EF02DC70137DDF9E0BE
S1132C90EF0EF11CEC14FD04C1F78AED92E22EDD77
S1132CA081ED92E22BDD84EC92E228DD8AED92E262
S1132CB08093CF229093D02281ED92E28093CD2213
S1132CC09093CE220FC08091BF2281110BC0E0915E
S1132CD01023F09111238689081720F0C093102344
S1132CE0D09311238091BB228F5F8093BB228E8966
S1132CF09091C022981710F48093C02290E09C0118
S1132D00220F331F220F331F220F331F820F931FF3
S1132D10B5018D519D4D04DD0F900FBE8091BF22F2
S1132D20882351F0E0911023F091112386898017B4
S1132D3028F429DE81E01CC081E01AC081E018C0BB
S1132D40CF8AD88E81E0481A5108CF88D88CC40C19
S1132D50D51CD5018C91898F8C91882309F44ECF91
S1132D60AE01465E5F4FF501319627E03CCF8FEF11
S1132D70DF91CF911F910F91FF90EF90DF90CF9053
S1132D80BF90AF909F908F907F906F905F904F9087
S1132D900895AF92BF92CF92DF92EF92FF920F937A
S1132DA0A12CB12CC12CD12CE12CF12C00E020E081
S1132DB030E045E550E060E170E28DE895E1EADE5F
S1132DC0813041F4F8948093BF221092C122109272
S1132DD0C22295DD0F91FF90EF90DF90CF90BF90CE
S1132DE0AF9008958091BA228F5F8093BA2208959C
S1132DF0DF92EF92FF920F931F93CF93DF93809113
S1132E00BA228111B2C08091C1229091C22201964E
S1132E108093C1229093C222E090C122F090C222FA
S1132E20E114F10499F58091CF229091D022209160
S1132E30CD223091CE222093CF223093D022809382
S1132E40CD229093CE228091BC228F5F8093BC22AE
S1132E50E091CF22F091D0228081811107C08FEFC1
S1132E609FEF80930E2090930F2010C0E091CF220B
S1132E70F091D0220580F681E02D0680F781E02DC7
S1132E808281938180930E2090930F2080910E2055
S1132E9090910F20E816F90608F450C0D12C02C016
S1132EA0DD24D394E091CF22F091D022808181114E
S1132EB007C08FEF9FEF80930E2090930F203FC0A9
S1132EC0E091CF22F091D0220580F681E02DC681D9
S1132ED0D7812A813B81E216F30628F420930E2041
S1132EE030930F202CC08E010E5F1F4FC8016ADC87
S1132EF08C899D89892B19F0CE010C9663DC2E896F
S1132F008091C022821710F42093C02230E0C901BE
S1132F10880F991F880F991F880F991F820F931F7D
S1132F20B8018D519D4DFCDBE0911023F0911123EC
S1132F309E898689981708F0B3CFB4CFD12CE0913D
S1132F401023F0911123868990E0FC01EE0FFF1FFE
S1132F50EE0FFF1FEE0FFF1F8E0F9F1FFC01ED51A1
S1132F60FD4D8081823040F409C08091BE228F5F84
S1132F708093BE22D12C02C0DD24D3948091BD2243
S1132F80882311F0DD24D3948D2DDF91CF911F91EF
S1132F900F91FF90EF90DF900895DF92EF92FF92F0
S1132FA00F931F93CF93DF930FB6F8940F928091F2
S1132FB0BA2281508093BA228091BA2281115CC0D6
S1132FC08091C322882309F459C00F2EF4ECEF2E0C
S1132FD0F2E2FF2EF02DDD24D3942DC0E091C9221E
S1132FE0F091CA22C681D781CE010C96EBDB8E010B
S1132FF00E5F1F4FC801E6DB8E899091C02298179F
S113300010F48093C02290E09C01220F331F220F02
S1133010331F220F331F820F931FB8018D519D4D13
S11330207FDBE0911023F09111239E898689981704
S113303010F0D092BD22F70180818111CFCF809111
S1133040BE22882391F08091BE22882371F0C1E0D2
S1133050CFDE8111C093BD228091BE228150809326
S1133060BE228091BE228111F3CF8091BD22813096
S113307039F489DC81E005C080E003C080E001C050
S113308080E00F900FBEDF91CF911F910F91FF90C1
S1133090EF90DF900895CF93DF93EC01009791F0C8
S11330A0A1DE8091C1229091C222C80FD91F8091C4
S11330B0102390911123029685DBCE0136DD6DDF5E
S11330C0811101C060DCDF91CF9108958091BA2213
S11330D0882321F081E08093BD2208951092BD22BF
S11330E08091C02290E0FC01EE0FFF1FEE0FFF1F46
S11330F0EE0FFF1F8E0F9F1FFC01ED51FD4D8081D0
S1133100811117C08091C02281508093C022809188
S1133110C02290E0FC01EE0FFF1FEE0FFF1FEE0F29
S1133120FF1F8E0F9F1FFC01ED51FD4D80818823F1
S113313049F3E091C022F0E0CF01880F991F880F76
S1133140991F880F991FE80FF91FED51FD4DA181BB
S1133150B28112960D90BC91A02DA183B283CF01B0
S11331600396A817B90731F412968D919C91139781
S1133170818392830180F281E02D868197818093FF
S113318010239093112308958FEF80937000809300
S11331907100809372008093730080937400809315
S11331A07500809376008FB7F894E0E5F0E09081A5
S11331B0926090838FBF818181FFFDCF61E080E4C5
S11331C090E084D08FB7F894E0E5F0E090819E7FA2
S11331D090838FBF08959FB7F894E82FF0E0E059EB
S11331E0FF4F60958081682360839FBF08959FB7D8
S11331F0F894E82FF0E0E059FF4F8081682B60835A
S11332009FBF0895E0ECF1E027852223ECF3ECEC7A
S1133210F1E0208128602083DC01B05F8C919081F3
S1133220977F90830895E0ECF1E087858823ECF3A1
S1133230E0ECF1E0878581FF06C086E3828761E0E8
S11332408BEC91E043C00895E0ECF1E0978599237D
S1133250ECF3ECECF1E0908198609083A82FB0E05F
S1133260B05F6C938081877F80830895FF920F9372
S11332701F93CF93DF93182FF92EC62FE0ECF1E0C4
S11332800285D1DFE0ECF1E027852223ECF36C2FFB
S1133290812FDADFC0ECD1E01A82F982188385E34A
S11332A08A8761E08BEC91E011D00A87DF91CF919E
S11332B01F910F91FF9008954091CA01E62FF72FB7
S11332C08093CA0184914093CA0108951BBEFC01F6
S11332D028ED24BF60830895CF93DF93FC0170969B
S11332E020E030E0C62FD0E0DE01022E02C0B5950A
S11332F0A7950A94E2F7A0FD50832F5F3F4F3196C4
S11333002830310589F740FF0AC041FF03C0FC01A2
S1133310658302C0FC016683FC01618302C0FC0179
S11333206283DF91CF91089543E050E061E080EE45
S113333097E0D2DF43E050E062E080EE97E0CCDF3C
S113334043E050E060E180E696E0C6DF41E050E40F
S113335060E280E696E0C0DF40E05BE160E280E8A6
S113336096E0BADF40E05BE162E080EA96E0B4DF39
S113337040E05BE164E080EA96E0AEDF43E050E0E9
S113338062E080E696E0A8DF43E050E068E080E693
S113339096E0A2DF43E050E068E080EA96E09CDF3C
S11333A043E050E061E080E696E096DF43E050E0E1
S11333B068E080E096E090DF41E050E060E180E882
S11333C096E08ACF0895C0E6D6E010E180911C23F0
S11333D090911D23009711F41D8303C0019709F4F4
S11333E01E8381E090E057DEF1CF02E113E2C6E1F3
S11333F0D3E280911C2390911D23019779F4F80165
S113340060818881680F81E090E030DF81E090E0A6
S1133410F9DE90E0809316239093172385E090E0E3
S11334203ADEE7CF27E030E240E160E085E190E278
S11334303CD927E030E248E160E080E290E235D90F
S113344027E030E248E060E08BE290E22ED927E00A
S113345030E240E060E086E390E227D980E1E0E8F2
S1133460F6E0858303E510E20F2EF9ECFF2EF02D34
S1133470CEE1D3E280911C2390911D23019739F46E
S113348027E030E248E06CE381E490E20ED98091D9
S11334901C2390911D23892B39F427E030E248E066
S11334A06CE38AE490E201D980911B238F9380918D
S11334B01A238F931F930F931F92FF92DF93CF933F
S11334C04BD327E030E240E16CE3CE01EED88091AB
S11334D013238F93809112238F931F930F931F9223
S11334E0FF92DF93CF9338D327E030E248E16CE3D7
S11334F0CE01DBD8809117238F93809116238F936D
S11335001F930F931F92FF92DF93CF9325D327E04E
S113351030E240E06CE3CE01C8D8809119238F9348
S1133520809118238F931F930F931F92FF92DF9321
S1133530CF9312D38DB79EB780968DBF9EBF27E0E1
S113354030E240E16CE3CE01B0D881E090E0A3DD4D
S113355091CFC0E0D2E08FB7F894988194609883BB
S11335608FBF0E944C08882331F00E94A7088093E3
S11335701823909319238AE090E08DDDECCFC0E00E
S1133580D2E011E0CE010E94480C8FB7F8949881E4
S1133590946098838FBF8E8180FFFDCF1E832CA102
S11335A03DA1369527953695279536952795A5EC13
S11335B0B0E26BD1929582958F7089279F7089278D
S11335C0809312239093132385E090E064DDDACF97
S11335D0CF93DF93C82FD92F682F82E090E046DE87
S11335E0C0931423D0931523DF91CF910895CF93E3
S11335F0DF93CDB7DEB72B97CDBFDEBFBE016F5FC4
S11336007F4F80E092E00E94440EAE01485F5F4F1E
S113361061E080E092E00E94A00E8A819B819F7805
S113362090619B83817E8A831C8286E08D8381E006
S113363088871986BE016F5F7F4F80E092E00E9409
S1133640EF0DAE01485F5F4F61E080E092E00E94C1
S1133650670E2B96CDBFDEBFDF91CF910895E0E4D6
S1133660F6E0808181608083E0E0F8E085E080839B
S113367086E1818380E49FE186A397A387E791E0B5
S113368080A791A70895E0E4F6E0808181608083BB
S1133690E0E0F8E085E0808386E1818380E49FE1D7
S11336A086A397A387E791E080A791A70895E0E414
S11336B0F6E0808181608083E0E0F8E085E080834B
S11336C086E1818380E49FE186A397A381E090E073
S11336D080A791A70895C0E8D6E001E010E08885AE
S11336E085FD11C080911C2390911D23892B31F4F9
S11336F0DEDF00931C2310931D2305C0C4DF10924A
S11337001C2310921D238AE090E0C5DCE8CF81E001
S11337108093800680938406089581E080938006D8
S1133720109284060895C0E8D6E010E11D8320912C
S11337301623309117238091142390911523821717
S113374093075CF480911C2390911D23019729F425
S1133750DEDF82E390E09FDCE0DF8AE090E09BDC48
S1133760E5CFAF92BF92CF92DF92EF92FF920F9389
S1133770DBDD0ADD0E945A080E943B0B0E94BD0B50
S1133780789487E0E0EAF0E0828369DF30DF81E06B
S113379090E038DD90E0809316239093172388EC13
S11337A090E016DFA12CB12CC12CD12CE12CF12CF2
S11337B001E020E030E048EC50E060E470E28BE6A9
S11337C09BE1E8D920E030E048EC50E060E470E2AE
S11337D08FEB9AE1DFD920E030E040E951E060E48A
S11337E070E285EF99E1D6D920E030E040E951E07C
S11337F060E470E283E99BE1CDD920E030E048EC5D
S113380050E060E470E289EA9AE1C4D920E030E053
S113381048E552E060E470E282E19AE1BBD920E03D
S113382030E048EC50E060E470E283EE99E1B2D914
S1133830B0DA80E090E00F91FF90EF90DF90CF90AE
S1133840BF90AF900895A1E21A2EAA1BBB1BFD01E5
S11338500DC0AA1FBB1FEE1FFF1FA217B307E4076B
S1133860F50720F0A21BB30BE40BF50B661F771FC3
S1133870881F991F1A9469F76095709580959095A3
S11338809B01AC01BD01CF010895A29FB001B39F7C
S1133890C001A39F700D811D1124911DB29F700D55
S11338A0811D1124911D08952F923F924F925F9292
S11338B06F927F928F929F92AF92BF92CF92DF923C
S11338C0EF92FF920F931F93CF93DF93CDB7DEB7A1
S11338D0CA1BDB0BCDBFDEBF19942A883988488800
S11338E05F846E847D848C849B84AA84B984C88418
S11338F0DF80EE80FD800C811B81AA81B981CE0F0F
S1133900D11DCDBFDEBFED010895CF93DF9382308B
S1133910910510F482E090E0E091F323F091F42318
S113392020E030E0A0E0B0E0309739F140815181EF
S113393048175907B8F04817590771F482819381E1
S1133940109729F012968D939C9313972CC0809313
S1133950F3239093F42327C02115310531F0421746
S1133960530718F0A901DB0101C0EF019A01BD0161
S1133970DF010280F381E02DD7CF21153105F9F065
S1133980281B390B2430310580F48A819B81611511
S1133990710521F0FB018283938304C08093F32398
S11339A09093F423FE01329644C0FE01E20FF31F0C
S11339B08193919322503109288339833AC020910D
S11339C0F1233091F223232B41F4209103203091F1
S11339D004202093F1233093F2232091012030918D
S11339E002202115310541F42DB73EB74091052041
S11339F050910620241B350BE091F123F091F22322
S1133A00E217F307A0F42E1B3F0B2817390778F0B1
S1133A10AC014E5F5F4F2417350748F04E0F5F1F10
S1133A204093F1235093F2238193919302C0E0E0F9
S1133A30F0E0CF01DF91CF910895CF93DF9300970A
S1133A4009F487C0FC01329712821382C091F323D8
S1133A50D091F423209781F420813181280F391FDC
S1133A608091F1239091F2238217930779F5E093E3
S1133A70F123F093F2236DC0DE0120E030E0AE17B5
S1133A80BF0750F412964D915C9113979D01411517
S1133A90510509F1DA01F3CFA283B3834081518147
S1133AA0840F951F8A179B0771F48D919C91119730
S1133AB0840F951F02968083918312968D919C9119
S1133AC01397828393832115310529F4E093F3231B
S1133AD0F093F4233EC0D9011296ED93FC9313970F
S1133AE04D915D91A40FB51FEA17FB0779F480810E
S1133AF09181840F951F0296D9018D939C93119700
S1133B008281938112968D939C931397E0E0F0E069
S1133B108A819B81009719F0FE01EC01F9CFCE0157
S1133B20029628813981820F931F2091F1233091CD
S1133B30F2232817390769F4309729F41092F323F4
S1133B401092F42302C012821382C093F123D09303
S1133B50F223DF91CF9108950F931F93CF93DF93B7
S1133B60CDB7DEB72E97CDBFDEBF0E891F89888DF6
S1133B70998D26E02C8309831A8397FF02C080E085
S1133B8090E801978D839E83AE01445E5F4F6A8DFA
S1133B907B8DCE01019616D04D815E8157FD0AC002
S1133BA02F813885421753070CF49A01F801E20F6C
S1133BB0F31F10822E96CDBFDEBFDF91CF911F91F0
S1133BC00F9108952F923F924F925F926F927F923E
S1133BD08F929F92AF92BF92CF92DF92EF92FF9219
S1133BE00F931F93CF93DF93CDB7DEB72C97CDBF41
S1133BF0DEBF7C016B018A01FC011682178283817E
S1133C0081FFB0C1CE0101964C01F7019381F60109
S1133C1093FD859193FF81916F01882309F49EC1DF
S1133C20853239F493FD859193FF81916F0185323B
S1133C3021F4B70190E0C4D1E8CF512C312C20E01D
S1133C402032A0F48B3269F030F4803259F08332A0
S1133C5069F420612CC08D3239F0803339F421604D
S1133C6026C02260246023C0286021C027FD27C00D
S1133C7030ED380F3A3078F426FF06C0FAE05F9E44
S1133C80300D1124532E13C08AE0389E300D1124B8
S1133C90332E20620CC08E3221F426FD5FC12064D5
S1133CA006C08C3611F4206802C0883641F4F6014F
S1133CB093FD859193FF81916F018111C1CF982F5D
S1133CC09F7D9554933028F40C5F1F4FFFE3F983D5
S1133CD00DC0833631F0833771F0833509F057C056
S1133CE021C0F801808189830E5F1F4F44244394CF
S1133CF0512C540114C03801F2E06F0E711CF8010C
S1133D00A080B18026FF03C0652D70E002C06FEF74
S1133D107FEFC5012C8749D12C0183012C852F7796
S1133D20222E16C03801F2E06F0E711CF801A0803B
S1133D30B18026FF03C0652D70E002C06FEF7FEFF6
S1133D40C5012C8727D12C012C852068222E8301C4
S1133D5023FC19C0832D90E048165906A0F4B7013E
S1133D6080E290E02DD13A94F5CFF50127FC8591BE
S1133D7027FE81915F01B70190E022D131103A947E
S1133D80F1E04F1A51084114510479F7DEC084362A
S1133D9011F0893631F5F80127FF07C06081718180
S1133DA0828193810C5F1F4F08C0608171818827D5
S1133DB077FD8095982F0E5F1F4F2F76B22E97FFB9
S1133DC009C090958095709561957F4F8F4F9F4F57
S1133DD02068B22E2AE030E0A40124D1A82EA8182D
S1133DE043C0853729F42F7EB22E2AE030E025C067
S1133DF0F22FF97FBF2E8F36C1F018F4883579F091
S1133E00ADC0803719F0883721F0A8C02F2F20616A
S1133E10B22EB4FE0DC08B2D8460B82E09C024FFD1
S1133E200AC09F2F9660B92E06C028E030E005C076
S1133E3020E130E002C020E132E0F801B7FE07C023
S1133E4060817181828193810C5F1F4F06C0608104
S1133E50718180E090E00E5F1F4FA401E3D0A82E93
S1133E60A818FB2DFF77BF2EB6FE0BC02B2D2E7F7F
S1133E70A51450F4B4FE0AC0B2FC08C02B2D2E7E4B
S1133E8005C07A2C2B2D03C07A2C01C0752C24FF7D
S1133E900DC0FE01EA0DF11D8081803311F4297EED
S1133EA009C022FF06C07394739404C0822F8678DD
S1133EB009F0739423FD12C020FF06C05A2C73141A
S1133EC018F4530C5718732C731460F4B70180E280
S1133ED090E02C8775D073942C85F6CF731410F46E
S1133EE0371801C0312C24FF11C0B70180E390E0E2
S1133EF02C8766D02C8522FF16C021FF03C088E5DD
S1133F0090E002C088E790E0B7010CC0822F867869
S1133F1051F021FD02C080E201C08BE227FD8DE259
S1133F20B70190E04DD0A51430F4B70180E390E0E0
S1133F3047D05A94F8CFAA94F401EA0DF11D808178
S1133F40B70190E03DD0A110F6CF332009F45DCE47
S1133F50B70180E290E034D03A94F7CFF70186813C
S1133F60978102C08FEF9FEF2C96CDBFDEBFDF910C
S1133F70CF911F910F91FF90EF90DF90CF90BF9062
S1133F80AF909F908F907F906F905F904F903F90F5
S1133F902F900895FC010590615070400110D8F7EE
S1133FA0809590958E0F9F1F0895FC01615070407D
S1133FB001900110D8F7809590958E0F9F1F08955A
S1133FC00F931F93CF93DF93182F092FEB018B814E
S1133FD081FD03C08FEF9FEF20C082FF10C04E8190
S1133FE05F812C813D81421753077CF4E881F9817C
S1133FF09F012F5F3F4F28833983108306C0E885D4
S1134000F985812F1995892B29F72E813F812F5FFF
S11340103F4F2E833F83812F902FDF91CF911F91AC
S11340200F910895FA01AA27283051F1203181F126
S1134030E8946F936E7F6E5F7F4F8F4F9F4FAF4FAC
S1134040B1E03ED0B4E03CD0670F781F891F9A1FBF
S1134050A11D680F791F8A1F911DA11D6A0F711D73
S1134060811D911DA11D20D009F468943F912AE07F
S1134070269F11243019305D3193DEF6CF01089567
S1134080462F4770405D4193B3E00FD0C9F7F6CF98
S1134090462F4F70405D4A3318F0495D31FD405260
S11340A0419302D0A9F7EACFB4E0A69597958795F6
S11340B077956795BA95C9F70097610571050895D5
S11340C09B01AC010A2E0694579547953795279581
S11340D0BA95C9F7620F731F841F951FA01D089519
S10740E0F894FFCF7E
S11340E4010000F523200000FC010607207DFFFFEA
S11340F449444C450057617465722020203A2000DD
S113410444656269742020203A20004B6572616E14
S11341142020203A200055736167652020203A202E
S11341240054657262756B61200054657274757411
S10B41347570002533640000DE
S9030000FC
