:1000000046C2000065C2000063C2000061C2000079
:100010005FC200005DC200005BC2000059C2000068
:1000200057C2000055C2000053C2000051C2000078
:100030004FC200000C943C0F0C94A91449C200005C
:1000400047C2000045C2000043C2000041C2000098
:100050003FC200003DC200003BC2000039C20000A8
:1000600037C2000035C2000033C2000031C20000B8
:100070002FC200002DC200002BC2000029C20000C8
:1000800027C2000025C2000023C2000021C20000D8
:100090001FC200001DC200001BC200000C94F40C23
:1000A0000C94260D0C94580D0C948A0D11C200006E
:1000B0000FC200000DC200000C94630F09C20000C3
:1000C00007C2000005C2000003C2000001C2000018
:1000D000FFC10000FDC10000FBC10000F9C100002C
:1000E000F7C10000F5C10000F3C10000F1C100003C
:1000F000EFC10000EDC10000EBC10000E9C100004C
:10010000E7C10000E5C10000E3C10000E1C100005B
:10011000DFC10000DDC10000DBC100000C942C0C2D
:100120000C945E0C0C94900C0C94C20CD1C1000089
:10013000CFC10000CDC10000CBC10000C9C100008B
:10014000C7C10000C5C10000C3C10000C1C100009B
:10015000BFC10000BDC10000BBC10000B9C10000AB
:10016000B7C10000B5C10000B3C10000B1C10000BB
:10017000AFC10000ADC10000ABC10000A9C10000CB
:10018000A7C10000A5C10000A3C10000A1C10000DB
:100190009FC100009DC100009BC1000099C10000EB
:1001A00097C1000095C1000093C1000091C10000FB
:1001B0008FC100008DC100008BC1000089C100000B
:1001C00087C1000085C1000083C1000081C100001B
:1001D0007FC100007DC100007BC1000079C100002B
:1001E00077C1000075C1000073C1000071C100003B
:1001F0006FC100006DC100006BC100000000000075
:10020000000000202020202000205050500000003E
:10021000005050F850F850502078A07028F020C0BE
:10022000C810204098186090A040A89068602040B6
:10023000000000001020404040201040201010100E
:100240002040005020F8205000002020F8202000FE
:1002500000000000602040000000F80000000000E6
:10026000000000606000081020408000708898A89E
:10027000C8887020602020202070708808102040DE
:10028000F8F810201008887010305090F81010F80E
:1002900080F008088870304080F0888870F8081076
:1002A00020404040708888708888707088887808FE
:1002B00010600060600060600000606000602040CE
:1002C000081020402010080000F800F800008040CE
:1002D0002010204080708808102000207088086856
:1002E000A8A87070888888F88888F08888F088883E
:1002F000F070888080808870E09088888890E0F82E
:100300008080F08080F8F88080E080808070888035
:1003100080988870888888F88888887020202020B5
:100320002070381010101090608890A0C0A09088A5
:10033000808080808080F888D8A88888888888888D
:10034000C8A898888870888888888870F08888F01D
:1003500080808070888888A89068F08888F0A09055
:1003600088788080700808F0F820202020202088DD
:1003700088888888887088888888885020888888B5
:10038000A8A8D8888888502050888888885020203D
:100390002020F80810204080F83820202020203825
:1003A00000804020100800E02020202020E0205085
:1003B0008800000000000000000000F8402010004D
:1003C000000000000070087888788080B0C88888B5
:1003D000F00000708080887008086898888878002D
:1003E000007088F88070304840E04040400000785D
:1003F000887808308080B0C88888882000602020F5
:1004000020701000301010906040404850605048FC
:10041000602020202020700000D0A8A8888800003C
:10042000B0C8888888000070888888700000F088CC
:10043000F08080000068987808080000B0C88080CC
:1004400080000070807008F04040E040404830007C
:100450000088888898680000888888502000008874
:1004600088A8A8500000885020508800008888780C
:1004700008700000F8102040F810202040202010C4
:100480002020202020202040202010202040112447
:100490001FBECFEFCDBFDFE5DEBF00E00CBF11E236
:1004A000A0E0B0E2E2EEF8E300E00BBF02C007908C
:1004B0000D92AC31B107D9F723E2ACE1B1E201C052
:1004C0001D92A23FB207E1F70E94AD1A0C946F1C77
:1004D00097CD8093A2066093A2068093A5066093B1
:1004E000A6066093A10608953F936093A2068093A9
:1004F000A1068093A2066093A1063F918091A80671
:10050000842308958093A6068093A1060895A1E010
:10051000B0E0EDE8F2E00C94171BE82F0FB700787D
:10052000198280911D21813019F081E080931D2175
:10053000CE2EDD24F601E15AFE4DB080F601ED59D4
:10054000FE4DA080F894BB2009F4AAC08B2DDADF01
:100550008B2D6A2DBEDF1B2DEE24FF2460E0812C45
:1005600030E2932EF5FE07C09091602180915F21CB
:10057000982B19F535C08FB7802B8FBF0000F894EA
:100580008B2D6A2D412FB0DF682F0894E11CF11CE0
:10059000809100208F5F80930020823030F0823085
:1005A00021F0833011F0109200206623D9F22091BF
:1005B000602180915F21282B15C0412F80E040FFF2
:1005C00009C0E82FF0E0EE0FFF1FE85DFE4D8082CE
:1005D000918201C090FD8F5F96954695992379F79A
:1005E00010E020E08FB7802B8FBF10921E212223B6
:1005F00009F43FC0112309F43CC03091642180917B
:100600006321382B562F90E080E070E040E023C05B
:1006100050FD17C019C030FF13C0981781F4E42FA4
:10062000F0E0EE0FFF1FE85DFE4DE082F182852FC6
:100630008E7F19F4892F71E008C0892F06C08F5F63
:100640003695332341F701C020FD9F5F20FD4F5FAA
:100650005695269511F05523D9F640931E216095A5
:100660001623713021F4112311F4EE24FF2460E0ED
:1006700013C08091602190915F21892B898390E044
:1006800006C0898180FD9F5F8981869589838981E4
:100690008823B9F790931E21F894112309F062CFB3
:1006A0008FE591E2C80ED91EF60180812BDF1092F2
:1006B0001C218FB7082B0FBF2196ECE00C94301B48
:1006C000FC0180E290E0808391831282138280E4B7
:1006D00094E084839583089590915921A92FB0E0E7
:1006E000FD01EE0FFF1FEA0FFB1FEE0FFF1FEF5B79
:1006F000FE4D4383677085832370660F660F660F18
:10070000262B24839F5F9093592108951F93CF93A5
:10071000DF93282FC82FD0E0FE01EE0FFF1FEC0F54
:10072000FD1FEE0FFF1FEF5BFE4D3581838190E0D3
:100730000090212102C0959587950A94E2F7182F21
:10074000843008F414E080915921281718F020E033
:1007500030E02DC0832F1DD19C01412F50E0169514
:100760001695812F90E0841B950B8217930764F4F4
:10077000FE01EE0FFF1FEC0FFD1FEE0FFF1FEF5BE3
:10078000FE4D84818B7F848388279927841B950B5A
:100790008217930764F0FE01EE0FFF1FEC0FFD1FA1
:1007A000EE0FFF1FEF5BFE4D848184608483C901DF
:1007B000DF91CF911F910895FF920F931F93CF93D5
:1007C000DF931092392110923A2120913D213091EE
:1007D0003E2180933D2190933E2140913F215091B5
:1007E0004021421B530B480F591FFF2403C0F394B1
:1007F000485C5040483C5105D0F740933F2150930E
:10080000402180915A21882341F08F1518F41092CD
:100810005A2103C08F1980935A21C3D3E0913B2101
:10082000F0913C21309709F0199510E000E005C0E7
:10083000812F6F2DC3D0082B1F5F60915921161790
:10084000B8F3002349F08091392190913A219160C9
:100850008093392190933A2110923821A1E4B1E29A
:1008600030E041E050E017C08C91887191F0E32FA7
:10087000E695E695E695F0E0E85DFE4D832F8770FE
:10088000EA0102C0CC0FDD1F8A95E2F720892C2BEC
:10089000208B3F5F1696361738F38091392190915F
:1008A0003A21CDB7DEB7E5E00C94371B1092592101
:1008B00084E08093222194E19093252185E0809328
:1008C0002621109224219093232181E080932121DD
:1008D00083E08093272154D310923B2110923C2136
:1008E00008951F9310E003C0812F27D01F5F8091D0
:1008F00059211817C8F31F910895EF92FF921F9383
:10090000CF93DF93EC017B0110E003C0812F15D062
:100910001F5F809159211817C8F310923D21109242
:100920003E21C0931F21D0932021C70124D3DF9102
:10093000CF911F91FF90EF90089590E0E1E4F1E2F4
:100940009C01220F331F280F391FD901AA0FBB1F8B
:10095000AE0FBF1F15964C9115978091392190913C
:100960003A2182608093392190933A212F5F3F4F43
:10097000220F331FE20FF31F1082EBE5F1E2E40FC9
:10098000F11D80E8808381E08C938FE011968C9339
:10099000089590E0FC013496A8E2B1E2EE0FFF1F4B
:1009A000EA0FFB1F880F991FA80FB91F2081318103
:1009B0008D919C91281B390BC9010895A0E0B0E0EE
:1009C000E4EEF4E00C94151B782EF62E9FDE5C010D
:1009D000072D10E0F801EE0FFF1FE00FF11FEE0FE3
:1009E000FF1FEF5BFE4D54814381242F30E0852FA4
:1009F000837090E0019602C0359527958A95E2F7BD
:100A0000822F223008F482E0242F30E0B901681BE5
:100A10007109F801EE0FFF1FE00FF11FEF01CC0F7E
:100A2000DD1FCF5BDE4D8881843009F4FBC085304B
:100A300030F4813071F0823009F096C26EC080319E
:100A400009F4A5C1803209F456C2883009F08CC27D
:100A500002C24091392150913A21CA01926080939B
:100A6000392190933A218D816981A82FB0E06A30B5
:100A700060F0AA0FBB1FFD01E85DFE4D80819181F2
:100A8000A05DBE4D8D939C9318C0AA0FBB1FFD01A6
:100A9000E05DFE4D20813181A85DBE4D8D919C9120
:100AA0008217930718F42150304005C028173907E2
:100AB00050F42F5F3F4F2083318348605260409352
:100AC000392150933A21862F8150F801EE0FFF1FF4
:100AD000E00FF11FEF01CC0FDD1FCF5BDE4D8983EF
:100AE0008823B1F4AD8182E088838091392190918F
:100AF0003A2182608093392190933A21EE0FFF1FB3
:100B0000ED5BFE4D1082B0E0A55ABE4D80E88C939F
:100B10008091232180935A2125C252FF08C0ED8184
:100B2000F0E0E55AFE4D108280E288830CC2C501D8
:100B3000B7FE02C080E090E08217930780F0F801D2
:100B4000EE0FFF1FE00FF11FEE0FFF1FDF01AF5B86
:100B5000BE4D84E08C93ED5BFE4D1082FAC1FF2008
:100B600009F402C280915A21882309F0FDC1F801DD
:100B7000EE0FFF1FE00FF11FEE0FFF1FEF5BFE4DAB
:100B8000858190E0EC01CC0FDD1FC05DDE4D28813A
:100B90003981FC01EE0FFF1FE85DFE4D0190F081F1
:100BA000E02D2E173F0788F4FC01E55AFE4D908199
:100BB0009F0D9083809126218058981708F4D4C106
:100BC00080E880832F5F3F4F14C0DC01A55ABE4DE3
:100BD000E217F307D0F48C918F198C9340E8909131
:100BE0002521542F591B581708F4BEC14C9321508E
:100BF0003040288339838091392190913A2188604F
:100C00008093392190933A21AFC12C91213810F073
:100C100021502C93FC01E55AFE4D808187FDA4C133
:100C20008F5F67C1C501B7FE02C080E090E0F801A8
:100C3000EE0FFF1F8217930708F48FC080912321C6
:100C400080935A219F01200F311F220F331FD9019A
:100C5000AD5BBE4D8C918F5F8C93F901EF5BFE4DC8
:100C6000848190E08873907023E0969587952A950B
:100C7000E1F7682E882309F43EC0CC24DD247F01EF
:100C800083E090E0E80EF91E4D012FC0D71461F10A
:100C90008D2D90E0EC01CC0FDD1FC80FD91FCC0FBC
:100CA000DD1FCF5BDE4D8C8190E08873907073E028
:100CB000969587957A95E1F76816B1F48D2D26DD26
:100CC0002B81821B9109F7012081A501421B51094B
:100CD000481759072CF08881803111F0883021F4B1
:100CE000F4011082CC24C394D39480915921D81656
:100CF00068F2CC2079F480912221882359F08091E8
:100D0000392190913A2198608093392190933A212A
:100D100041E001C040E09801220F331F200F311F36
:100D2000F901EE0FFF1FED5BFE4D908180912221B6
:100D3000981708F41AC18091392190913A21836063
:100D40008093392190933A21F901EE0FFF1FEF5B59
:100D5000FE4D80E18083118208C1E00FF11FEE0F8C
:100D6000FF1FDF01AF5BBE4D15962C91159782E0FA
:100D70008C938091392190913A218260809339211E
:100D800090933A21ED5BFE4D1082E22FAEC052FFF0
:100D90000EC0ED81F0E0E55AFE4D80E8808380E2F0
:100DA00088838091392190913A2190614AC0C50190
:100DB000B7FE02C080E090E0F801EE0FFF1F409107
:100DC000392150913A218617970770F4E00FF11FEF
:100DD000EE0FFF1FEF5BFE4D88E080835460409371
:100DE000392150933A2131C04160409339215093C9
:100DF0003A21E00FF11FEE0FFF1FED5BFE4D9081DA
:100E000080912221981710F49F5F90839091242164
:100E1000992371F0F801EE0FFF1FE00FF11FEE0FA5
:100E2000FF1FEF5BFE4D8181891720F48F0D8183B9
:100E300040E00CC0872D81DD8091392190913A21CD
:100E400092608093392190933A2141E0809123214F
:100E500080935A218AC08091232180935A21DF01F7
:100E6000AA0FBB1FAD5BBE4D8C91882389F1C501D4
:100E7000B7FE02C080E090E04091392150913A21C4
:100E80006817790790F4F801EE0FFF1FE00FF11FCC
:100E9000EE0FFF1FEF5BFE4D80E1808341604093CA
:100EA000392150933A2140E006C0546040933921E3
:100EB00050933A2141E0F801EE0FFF1FE00FF11FC0
:100EC000EE0FFF1FED5BFE4D8081815080834DC092
:100ED000ED8182E088838091392190913A2182606E
:100EE0008093392190933A211C92F0E0E55AFE4D0F
:100EF00080E8808339C08D81A82FB0E0A55ABE4D0F
:100F00009C919F5F9C9352FD18C097FF03C080E1A6
:100F100088832AC082E088838091392190913A2188
:100F200082608093392190933A21EE0FFF1FED5B91
:100F3000FE4D108280E88C9317C08091272198176E
:100F400040F0872DFADC8091392190913A2190610F
:100F500005C08091392190913A2194608093392184
:100F600090933A2141E001C040E0842FCDB7DEB735
:100F7000EEE00C942E1BFC01009709F019950895E2
:100F800010925F21109260211092632110926421CF
:100F900010926121109262211092652110926621B7
:100FA00008958091612190915F21892B41F0E0911A
:100FB0001F21F0912021309711F080E01995809148
:100FC000622190916021892B41F0E0911F21F091E5
:100FD0002021309711F081E019950895613069F56D
:100FE000809168218F5F80936821813039F440932C
:100FF000692150936A2110926D210CC08091692162
:1010000090916A21480F591F569547954093692141
:1010100050936A2180916821843031F410926821C4
:1010200081E080936D2108959FB7F894E0E0F2E0AD
:101030008081846080839FBF0895623061F58091D4
:1010400067218F5F80936721813039F440936B2152
:1010500050936C2110926E210CC080916B21909165
:101060006C21480F591F5695479540936B2150931B
:101070006C2180916721843031F41092672181E0E6
:1010800080936E2108959FB7F894E0E0F2E08081AC
:10109000886080839FBF08951F93CF93DF93CDB760
:1010A000DEB72B97CDBFDEBFBE016F5F7F4F80E005
:1010B00092E0B6D5AE01485F5F4F61E080E092E01C
:1010C0000BD68A819B819F7890619B8396E09D835C
:1010D000817E80618A831C82BE016F5F7F4F80E0CA
:1010E00092E04AD56EEE77E080E092E048D311E0DE
:1010F000188719868A85807F81608A87AE01485F5C
:101100005F4F61E080E092E0AED5188788E0898784
:10111000AE01485F5F4F62E080E092E0A4D580E0DE
:1011200092E083D32B96CDBFDEBFDF91CF911F918D
:101130000895BF92CF92DF92EF92FF920F931F9389
:10114000CF93DF931F92CDB7DEB788E0809306067A
:1011500080E090E0019685339105E1F788E0809387
:10116000050680E090E0019685339105E1F70F2EAA
:10117000FBE2BF2EF02DB98280EA99E00E946A114D
:10118000C12CD12C760100E412E42FE030E043E0E2
:10119000BE016F5F7F4F80EA99E00E94991100E6DF
:1011A00016E0FF24F394F801F682B982BE016F5F66
:1011B0007F4F80EA99E00E94B311F801F682E0EADD
:1011C000F9E0818185FFFDCF80EA8093A009E0EA04
:1011D000F9E0818186FFFDCFE0EAF9E080E48183D8
:1011E0008081BE016F5F7F4F80EA99E00E94C91144
:1011F0008BE28983BE016F5F7F4F80EA99E00E9496
:10120000B31181E080936606E0EAF9E0818185FF11
:10121000FDCF86EA8093A009E0EAF9E0818186FFAC
:10122000FDCFE0EAF9E080E481838081BE016F5F59
:101230007F4F80EA99E00E94C9118BE28983BE0149
:101240006F5F7F4F80EA99E00E94B31181E0809345
:101250006606E0EAF9E0818185FFFDCF88EC8093A6
:10126000A009E0EAF9E0818186FFFDCFE0EAF9E03C
:1012700080E481838081BE016F5F7F4F80EA99E0C7
:101280000E94C9118BE28983BE016F5F7F4F80EAA4
:1012900099E00E94B31181E080936606E0EAF9E0EC
:1012A000818185FFFDCF82EA8093A009E0EAF9E021
:1012B000818186FFFDCFE0EAF9E080E481838081CF
:1012C000BE016F5F7F4F80EA99E00E94C9118BE2F7
:1012D0008983BE016F5F7F4F80EA99E00E94B3115E
:1012E00081E080936606E0EAF9E0818185FFFDCF29
:1012F0008FE28093A009E0EAF9E0818186FFFDCFCB
:10130000E0EAF9E080E481838081BE016F5F7F4F76
:1013100080EA99E00E94C9118BE28983BE016F5F68
:101320007F4F80EA99E00E94B31181E080936606C6
:10133000E0EAF9E0818185FFFDCF88EF8093A00985
:10134000E0EAF9E0818186FFFDCFE0EAF9E080E4A0
:1013500081838081BE016F5F7F4F80EA99E00E94A8
:10136000C9118BE28983BE016F5F7F4F80EA99E0EC
:10137000FAD781E080936606E0EAF9E0818185FF93
:10138000FDCF1092A009E0EAF9E0818186FFFDCF50
:10139000E0EAF9E080E481838081BE016F5F7F4FE6
:1013A00080EA99E0F6D78BE28983BE016F5F7F4FB9
:1013B00080EA99E0D8D781E080936606E0EAF9E018
:1013C000818185FFFDCF81E28093A009E0EAF9E009
:1013D000818186FFFDCFE0EAF9E080E481838081AE
:1013E000BE016F5F7F4F80EA99E0D3D78BE289839C
:1013F000BE016F5F7F4F80EA99E0B5D781E08093AF
:101400006606E0EAF9E0818185FFFDCF81E88093FF
:10141000A009E0EAF9E0818186FFFDCFE0EAF9E08A
:1014200080E481838081BE016F5F7F4F80EA99E015
:10143000B0D78BE28983BE016F5F7F4F80EA99E06E
:1014400092D781E080936606E0EAF9E0818185FF2A
:10145000FDCF81E28093A009E0EAF9E0818186FF77
:10146000FDCFE0EAF9E080E481838081BE016F5F17
:101470007F4F80EA99E08DD78BE28983BE016F5F51
:101480007F4F80EA99E06FD781E080936606E0EABB
:10149000F9E0818185FFFDCF8FEA8093A009E0EA22
:1014A000F9E0818186FFFDCFE0EAF9E080E4818305
:1014B0008081BE016F5F7F4F80EA99E06AD70F900D
:1014C000DF91CF911F910F91FF90EF90DF90CF9020
:1014D000BF900895FF920F931F93CF93DF931F92B6
:1014E000CDB7DEB7082FF62E142F6ED70F70006B16
:1014F0008BE28983BE016F5F7F4F80EA99E033D72B
:1015000081E080936606E0EAF9E0918195FFFDCFE6
:101510000093A009E0EAF9E0818186FFFDCFE0EACF
:10152000F9E080E481838081BE016F5F7F4F80EAB4
:1015300099E02FD70F2D0F7702950F7000618BE286
:101540008983BE016F5F7F4F80EA99E00CD781E00D
:1015500080936606E0EAF9E0818185FFFDCF009384
:10156000A009E0EAF9E0818186FFFDCFE0EAF9E039
:1015700080E481838081BE016F5F7F4F80EA99E0C4
:1015800008D70F2D0F708BE28983BE016F5F7F4FED
:1015900080EA99E0E8D681E080936606E0EAF9E027
:1015A000818185FFFDCF0093A009E0EAF9E0818108
:1015B00086FFFDCFE0EAF9E080E481838081BE010F
:1015C0006F5F7F4F80EA99E0E4D68BE28983BE01AA
:1015D0006F5F7F4F80EA99E0C6D681E08093650611
:1015E000E0EAF9E0818185FFFDCF1093A009E0EAF0
:1015F000F9E0818186FFFDCFE0EAF9E080E48183B4
:10160000808181E080936606BE016F5F7F4F80EA34
:1016100099E0BFD60F90DF91CF911F910F91FF906E
:1016200008950F931F93CF93DF931F92CDB7DEB72B
:101630008FE691E2C4D67DDD8BE28983BE016F5FC8
:101640007F4F80EA99E08FD681E080936606E0EADA
:10165000F9E0818185FFFDCF80E48093A009E0EA75
:10166000F9E0818186FFFDCFE0EAF9E080E4818343
:101670008081BE016F5F7F4F80EA99E08AD600E0EB
:101680000AC040E0612F802F25DF1F5F1038C9F7A7
:101690000F5F043011F010E0F4CF0F90DF91CF9185
:1016A0001F910F910895FF920F931F93CF93DF9394
:1016B00088238CF1603278F5D42FC82FF62EF6945B
:1016C000F694F6942F2D30E0319521953109220FB3
:1016D000331F220F331F220F331F260F311D61E0EE
:1016E00070E08B0102C0000F111F2A95E2F7682FEE
:1016F0008F2D78D6D13021F028F0D23039F007C0C4
:10170000802B05C0602F6095862301C08027482F5D
:101710006C2F8F2DDFDEDF91CF911F910F91FF9006
:10172000089560C60895E1E2F1E284E0818384E1F6
:10173000848395E095831382828381E0808383E0B4
:10174000868310923B2110923C21EFE5F1E280E488
:101750008083118212821382E3E6F1E280E88083C3
:1017600011821282138223E04AE060E080E00E944E
:101770006C0360E070E087E892E0BFC808954FB75F
:10178000F894282F392F211582E0380729F4609327
:10179000EC237093ED2307C02034324021F4609392
:1017A000EA237093EB234FBF0895811522E092073F
:1017B00069F48091702391E0980F909370238111C8
:1017C00014C062E081E00C945F1808958034924068
:1017D00061F480916F2391E0980F90936F238111B2
:1017E00004C062E082E00C945F180895811522E045
:1017F000920761F48091702381508093702381114E
:1018000013C062E081E00C946B180895803492401C
:1018100059F480916F23815080936F23811104C00C
:1018200062E082E00C946B1808951F93CF93DF93CE
:10183000EC011FB7F894B9DF8881816088831FBFEE
:101840009FB7F894E4EEF3E281818F5F81839FBFBD
:10185000DF91CF911F9108951F920F920FB60F92B3
:1018600011240BB60F922F933F934F935F936F9377
:101870007F938F939F93AF93BF93EF93FF93409189
:10188000240250912502E091EC23F091ED2361E0D8
:1018900080E092E01995FF91EF91BF91AF919F91F8
:1018A0008F917F916F915F914F913F912F910F9009
:1018B0000BBE0F900FBE0F901F9018951F920F92A6
:1018C0000FB60F9211240BB60F922F933F934F93A5
:1018D0005F936F937F938F939F93AF93BF93EF9398
:1018E000FF9340912C0250912D02E091EC23F09156
:1018F000ED2362E080E092E01995FF91EF91BF91B6
:10190000AF919F918F917F916F915F914F913F9197
:101910002F910F900BBE0F900FBE0F901F90189538
:101920001F920F920FB60F9211240BB60F922F93A6
:101930003F934F935F936F937F938F939F93AF9357
:10194000BF93EF93FF934091340250913502E091A1
:10195000EC23F091ED2364E080E092E01995FF9193
:10196000EF91BF91AF919F918F917F916F915F9117
:101970004F913F912F910F900BBE0F900FBE0F9084
:101980001F9018951F920F920FB60F9211240BB64D
:101990000F922F933F934F935F936F937F938F9308
:1019A0009F93AF93BF93EF93FF9340913C0250916D
:1019B0003D02E091EC23F091ED2368E080E092E0BD
:1019C0001995FF91EF91BF91AF919F918F917F9169
:1019D0006F915F914F913F912F910F900BBE0F90A0
:1019E0000FBE0F901F9018951F920F920FB60F9277
:1019F00011240BB60F922F933F934F935F936F93E6
:101A00007F938F939F93AF93BF93EF93FF934091F7
:101A1000640250916502E091EA23F091EB2361E0CA
:101A200080E492E01995FF91EF91BF91AF919F9162
:101A30008F917F916F915F914F913F912F910F9077
:101A40000BBE0F900FBE0F901F9018951F920F9214
:101A50000FB60F9211240BB60F922F933F934F9313
:101A60005F936F937F938F939F93AF93BF93EF9306
:101A7000FF9340916C0250916D02E091EA23F09146
:101A8000EB2362E080E492E01995FF91EF91BF9122
:101A9000AF919F918F917F916F915F914F913F9106
:101AA0002F910F900BBE0F900FBE0F901F901895A7
:101AB0001F920F920FB60F9211240BB60F922F9315
:101AC0003F934F935F936F937F938F939F93AF93C6
:101AD000BF93EF93FF934091740250917502E09190
:101AE000EA23F091EB2364E080E492E01995FF9102
:101AF000EF91BF91AF919F918F917F916F915F9186
:101B00004F913F912F910F900BBE0F900FBE0F90F2
:101B10001F9018951F920F920FB60F9211240BB6BB
:101B20000F922F933F934F935F936F937F938F9376
:101B30009F93AF93BF93EF93FF9340917C0250919B
:101B40007D02E091EA23F091EB2368E080E492E0EB
:101B50001995FF91EF91BF91AF919F918F917F91D7
:101B60006F915F914F913F912F910F900BBE0F900E
:101B70000FBE0F901F901895DF92EF92FF920F9378
:101B80001F93CF93DF93EC018B01C11522E0D207A5
:101B900081F461E270E082E00E947618E82EF12C78
:101BA00060E270E082E00E947618FE2CEE24E82AC3
:101BB00012C08034924061F565E270E082E00E94DC
:101BC0007618E82EF12C64E270E082E00E9476182C
:101BD000FE2CEE24E82ADFB6F894CE01E6DD8881FB
:101BE00092E09883EC86FD86F80125813681288F66
:101BF000398F92819A8394819C8393819B83918175
:101C0000998381709081892B8883CE01EFDDDFBEBF
:101C1000DF91CF911F910F91FF90EF90DF9008958A
:101C2000FF920F931F93CF93DF93EC018B01FFB6CD
:101C3000F894BBDD8881807CF8018083888D998D44
:101C4000858396838A8182838C8184838B8183833D
:101C500089818183CE01CADDFFBEDF91CF911F91C3
:101C60000F91FF900895CF92DF92EF92FF920F9322
:101C70001F93CF93DF937C01D62E8A01862F83702A
:101C800029F4962F9695969582E002C0962F80E0D3
:101C900090FF8F5FE701A09698E0899FC00DD11D4E
:101CA0001124CFB6F894C70180DDF80180818883C4
:101CB00082818A8381818983D0FE02C083818E8361
:101CC000C70194DDCFBEDF91CF911F910F91FF909F
:101CD000EF90DF90CF900895CF92DF92EF92FF9236
:101CE0000F931F93CF93DF937C01D62E8A01862F0B
:101CF000837029F4962F9695969582E002C0962FD0
:101D000080E090FF8F5FE701A09698E0899FC00D6B
:101D1000D11D1124CFB6F894C70147DD8881F801A1
:101D200080838A81828389818183D0FE02C08E81F3
:101D30008383C7015BDDCFBEDF91CF911F910F91F0
:101D4000FF90EF90DF90CF900895CF93DF93E091D5
:101D50007123F0917223848183FF08C0886084839B
:101D600083E0838386EF80937B2383C0982F9471D5
:101D700031F083E083838FEF80937B237AC086FFEB
:101D800043C0C1E7D3E2AA81BB818C819D811496B7
:101D90002D913C911597821793076CF49C012F5F4E
:101DA0003F4F2093752330937623A80FB91F1196C8
:101DB0008C9187835EC080917723909178231896C9
:101DC0002D913C91199782179307C8F4209179239C
:101DD000222321F08681816086834BC016962D9147
:101DE0003C911797AC014F5F5F4F4093772350931F
:101DF0007823D901A80FB91F8C9187833AC083E05B
:101E0000838310927B2335C0882384F5A1E7B3E256
:101E10001296CD91DC91139716968D919C91179700
:101E20002885398582179307D8F46E817F819C01BC
:101E30002F5F3F4F20937723309378234781DB0137
:101E4000A80FB91F4C93888599852817390718F46E
:101E500082E083830EC087E0838310927B2309C0D6
:101E600083E0838389EF80937B2303C08BEF809390
:101E70007B23DF91CF9108951F920F920FB60F929F
:101E800011240BB60F922F933F934F935F936F9351
:101E90007F938F939F93AF93BF93EF93FF9355DF00
:101EA000FF91EF91BF91AF919F918F917F916F9132
:101EB0005F914F913F912F910F900BBE0F900FBEEE
:101EC0000F901F9018951F920F920FB60F9211242A
:101ED0000BB60F922F933F934F935F936F937F9324
:101EE0008F939F93AF93BF93EF93FF932EDFFF9159
:101EF000EF91BF91AF919F918F917F916F915F9182
:101F00004F913F912F910F900BBE0F900FBE0F90EE
:101F10001F901895CF92DF92EF92FF920F931F932D
:101F2000CF93DF93EC01D901C801B695A79597959A
:101F30008795481759076A077B0778F46A017B0180
:101F4000CC0CDD1CEE1CFF1CC901B801A7019601D9
:101F50000E94EF1A2150310902C020E030E0832FA7
:101F60008F708F832E83DF91CF911F910F91FF9000
:101F7000EF90DF90CF900895EF92FF920F931F9311
:101F8000CF93DF93EC017B01009709F48CC1803C77
:101F9000910529F460E180E00E945F1884C18038D7
:101FA000914029F462E080E00E945F187CC1C11575
:101FB00081E0D80729F461E080E00E945F1873C1D6
:101FC000C038E3E0DE0729F461E081E00E945F1899
:101FD0006AC1C039F3E0DF0729F461E082E00E94C2
:101FE0005F1861C1C11532E0D30729F462E081E0D6
:101FF0000E945F1858C1C03482E0D80729F462E01B
:1020000082E00E945F184FC1C032E3E0DE0729F48E
:1020100064E082E00E945F1846C1C115F8E0DF0766
:1020200029F461E083E00E945F183DC1C11539E0E9
:10203000D30729F461E084E00E945F1834C1C11520
:102040008AE0D80729F461E085E00E945F182BC17F
:10205000C115EBE0DE0729F461E086E00E945F181D
:1020600022C1C034F8E0DF0729F462E083E00E9477
:102070005F1819C1C03439E0D30729F462E084E065
:102080000E945F1810C1C0348AE0D80729F462E0CA
:1020900085E00E945F1807C1C039E8E0DE0729F437
:1020A00064E083E00E945F18FEC0C039F9E0DF07FA
:1020B00029F464E084E00E945F18F5C0C0393AE07A
:1020C000D30721F464E085E0FAD7EDC0C0398BE096
:1020D000D80721F464E086E0F2D7E5C0C03CE8E030
:1020E000DE0721F468E083E0EAD7DDC0C03CF9E018
:1020F000DF0721F468E084E0E2D7D5C0C03A38E0D9
:10210000D30761F460E183E0DAD7E0EAF8E08481A4
:102110008F7E8483F7012481225043C0C03AF9E0C6
:10212000DF0721F460E184E0CAD7BDC0C03A3AE0DD
:10213000D30721F460E185E0C2D7B5C0C03A8BE097
:10214000D80721F460E186E0BAD7ADC0C03BE8E033
:10215000DE0721F460E283E0B2D7A5C0C03BF9E01E
:10216000DF0721F460E284E0AAD79DC0C03834E0E4
:10217000D30721F460E483E0A2D795C0C03A84E09D
:10218000D80721F460E485E09AD78DC08C818F7EDA
:102190008C83FB0124812250CE01C03AF8E0DF0796
:1021A00031F480914E0684FD86C011E185C0803BEC
:1021B00038E0930779F0803AE9E09E0731F43091F6
:1021C0006E0634FD7CC019E110C0803BF9E09F072A
:1021D000A9F001C015E1803A3AE0930731F480910B
:1021E0008E0684FD6EC011E20CC0803A9B4049F41B
:1021F0008091AE0684FD04C019E203C01DE101C058
:102200001DE2E12FE695E695E69530E2E39FF001C9
:102210001124FA5F177081E090E0012E02C0880F50
:10222000991F0A94E2F78183223010F040E001C048
:1022300040E4DF015096A10FB11D3FB7F8942C91F7
:1022400027702C939C91942B9C933FBF85838D8109
:10225000806C8D83F70184818D7F813021F48D81A5
:1022600082608D8303C08D818D7F8D83F701858191
:10227000882321F08D8184608D8303C08D818B7FC5
:102280008D83F701408151816281738100E018E400
:1022900028EE31E0CE013EDE8C8188608C838C811B
:1022A00080618C8310C08C818F7E8C83F7012481A8
:1022B0002250CE017CCF15E180EA98E086CF1DE167
:1022C00094CF15E29ECFDF91CF911F910F91FF9098
:1022D000EF900895803A28E0920721F460E183E0CE
:1022E000EEC60895803B28E0920721F460E283E087
:1022F000E6C60895803A29E0920721F460E184E07F
:10230000DEC60895803B29E0920721F460E284E074
:10231000D6C60895803A2AE0920721F460E185E06C
:10232000CEC60895803A9B4019F460E186E0C7C6A6
:1023300008950F931F93CF93DF9300D000D0CDB7B4
:10234000DEB709831A832B833C834D831E82BE0133
:102350006F5F7F4F11DE2696CDBFDEBFDF91CF913D
:102360001F910F910895FB018081E82FE695E69576
:10237000E69540E2E49FF0011124FA5F877021E0C6
:1023800030E0A90102C0440F551F8A95E2F7468349
:102390000895FB018081E82FE695E695E69540E2F9
:1023A000E49FF0011124FA5F877021E030E0A90179
:1023B00002C0440F551F8A95E2F745830895809324
:1023C0007C2390937D23089520E8829FC0011124EF
:1023D000860F911DE0917C23F0917D23E80FF91F7A
:1023E0004083089520E8829FC0011124860F911D2B
:1023F000E0917C23F0917D23E80FF91F80810895FF
:10240000FF920F931F93CF93DF93E42FF0E0E80F39
:10241000F11DE138F1051CF0C0E84C2F481B4423A6
:1024200009F453C0D62FD695D695D695ED2FF0E06A
:10243000F195E195F109EE0FFF1FEE0FFF1FEE0F73
:10244000FF1FDF01A60FB11DBD01E1E0F0E0DF01DC
:1024500002C0AA0FBB1F6A95E2F7FA2E213021F0C5
:1024600098F0223019F131C0C42F1FEF180F012F3F
:102470000C0F602F8D2F55D9482F4F29602F8D2F8E
:1024800029D8C150A1F721C0C42F1FEF180FFA2E71
:10249000F094012F0C0F602F8D2F43D9482F4F211F
:1024A000602F8D2F17D8C150A1F70FC0C42F1FEF79
:1024B000180F012F0C0F602F8D2F33D9482F4F2568
:1024C000602F8D2F07D8C150A1F7DF91CF911F91B9
:1024D0000F91FF900895FF920F931F93CF93DF9377
:1024E000222369F0C22FF42E182FDFEFD60F6D2FA5
:1024F0006C0F202F4F2D812F83DFC150C1F7DF914B
:10250000CF911F910F91FF900895AF92BF92CF92FC
:10251000DF92EF92FF920F931F93CF93DF93C82F19
:10252000E62EB42E690100E0F901248143816B2D70
:102530008E2DD1DFF6018081811139C08381282F52
:10254000269526952695877009F02F5FF601A480C1
:102550002A9D900111248C2F90E04581841B9109C4
:10256000289FA001299F500D389F500D11240181F3
:102570001281040F151FF601F380FF20A1F0D0E0B7
:10258000C0E08C2F8E0D9C2F977021F4F801D49110
:102590000F5F1F4FDD231CF441E06B2D84D8DD0F4E
:1025A000CF5FCF11EECFB394AA94A110E4CFDF9107
:1025B000CF911F910F91FF90EF90DF90CF90BF9040
:1025C000AF900895DF92EF92FF920F931F93CF93F6
:1025D000DF93042F7901EC01162FD62E89918A30D2
:1025E00031F4F70184818F5F080F1D2D09C08D30F4
:1025F00039F09701402F612F88DFF7018381180F91
:1026000088818111EBCFDF91CF911F910F91FF90C6
:10261000EF90DF900895FC010396818392832FEF62
:102620003FEF23833483858396838783908710824B
:102630000895FC01108611860895CF93DF939C01C5
:10264000FB01DC011196CD91DC911297C283D383FB
:102650008C819D81848395838C819D81DC01129680
:102660006D937C9313976C837D8320873187F90169
:1026700080818F5F8083DF91CF910895CF93DF9327
:10268000EB01488159814F3F2FEF520721F4FC01A4
:10269000A781B0850DC0DC01139601C0DF01129641
:1026A000ED91FC9113972081318142175307B0F7C8
:1026B0001296ED91FC911397EA83FB83C483D58333
:1026C000AC83BD831296CD93DC931397888799874B
:1026D000FC0120812F5F2083DF91CF910895CF935C
:1026E000DF93FC01A085B185C281D381848195816E
:1026F0008C839D83C481D581828193818A839B83CE
:102700001196CD91DC911297CE17DF0731F48C81B1
:102710009D8111968D939C931297108611868C91B2
:1027200081508C93DF91CF9108950F931F938B016C
:1027300071E1FC017083319762E26083319723E39A
:102740002083012E000C220B330B3197008331972D
:1027500010833197208331971082319720E82083AE
:1027600031971082319722E02083319723E0208334
:10277000319724E02083319725E02083319726E0AC
:102780002083319727E02083319728E020833197F9
:1027900029E02083319720E120833197708331979E
:1027A00022E12083319723E12083319724E12083A4
:1027B000319725E12083319726E12083319727E166
:1027C0002083319728E12083319729E120833197B5
:1027D00020E22083319721E2208331976083319773
:1027E00023E220833197408331975083319726E24B
:1027F0002083319727E22083319728E22083319785
:1028000029E22083319720E32083319721E320833D
:1028100087971F910F910895F894E0E7F0E0838186
:102820008A7F8383E0E0F8E080EA9FE086A397A3B5
:1028300091E09683A0EAB0E012968C9112978160A5
:1028400012968C9390837894A091D423B091D52341
:102850000D900DBE0D900EBEFF91EF91DF91CF91C7
:10286000BF91AF919F918F917F916F915F914F91A8
:102870003F912F911F910F91FF90EF90DF90CF909C
:10288000BF90AF909F908F907F906F905F904F9090
:102890003F902F901F900F900FBE0F90089581E0F2
:1028A00008950F920FB6F8940F921F9211242F9251
:1028B0003F924F925F926F927F928F929F92AF92D0
:1028C000BF92CF92DF92EF92FF920F931F932F93BD
:1028D0003F934F935F936F937F938F939F93AF93A8
:1028E000BF93CF93DF93EF93FF93A091D423B09145
:1028F000D5230DB60D920EB60D9274D3A091D423AC
:10290000B091D5230D900DBE0D900EBEFF91EF91AD
:10291000DF91CF91BF91AF919F918F917F916F91F7
:102920005F914F913F912F911F910F91FF90EF90E9
:10293000DF90CF90BF90AF909F908F907F906F90DF
:102940005F904F903F902F901F900F900FBE0F9071
:1029500008950F920FB6F8940F921F9211242F92A0
:102960003F924F925F926F927F928F929F92AF921F
:10297000BF92CF92DF92EF92FF920F931F932F930C
:102980003F934F935F936F937F938F939F93AF93F7
:10299000BF93CF93DF93EF93FF93A091D423B09194
:1029A000D5230DB60D920EB60D92B1D181111AD369
:1029B000A091D423B091D5230D900DBE0D900EBEE5
:1029C000FF91EF91DF91CF91BF91AF919F918F9147
:1029D0007F916F915F914F913F912F911F910F9137
:1029E000FF90EF90DF90CF90BF90AF909F908F902F
:1029F0007F906F905F904F903F902F901F900F901F
:102A00000FBE0F901895CF93DF93EC017AD1CE01D2
:102A100039D6EC014FD2CE01DF91CF910895CF93FB
:102A2000DF93009729F0EC016CD1CE01C0D642D2E1
:102A3000DF91CF910895C7EAD3E288818230F0F325
:102A400030DFFBCFCF93DF93EC01E091D423F09103
:102A5000D523828393838091852390918623C81701
:102A6000D90760F46091D4237091D523809191238C
:102A7000909192236E5F7F4F01DE16C06091D42348
:102A80007091D52380919323909194236E5F7F4F13
:102A9000F5DD80910E2090910F20C817D90720F402
:102AA000C0930E20D0930F20DF91CF9108954F92C5
:102AB0005F926F927F928F929F92AF92BF92CF92CE
:102AC000DF92EF92FF920F931F93CF93DF934C010E
:102AD000EB015A01290181E290E095DF3C0100976A
:102AE00009F4D4C0C114D10409F0CCC0C5018BDFF6
:102AF000F301878B908F892B19F4C30190DFC6C037
:102B0000F1E0AF1AB108F3018789908DA80EB91EC4
:102B10008881818F8881882381F0D3015A96FE01B4
:102B200031969E01285F3F4FEF0181918D938881FF
:102B3000882319F0E217F307B9F7F30110A2102F59
:102B4000053008F014E0F301168BE3012296CE0164
:102B500070DDC3010C966DDDF3016086718685E042
:102B600090E0811B910984879587628A738AA2010C
:102B7000B401C501DADDF30180839183E114F1042E
:102B800019F0F701608271820FB6F8940F9280916C
:102B900087238F5F809387238091D4239091D523BF
:102BA000892B91F56092D4237092D523809187234D
:102BB0008130C9F50F2EF7EAEF2EF3E2FF2EF02D4C
:102BC0000F2EF4EDCF2EF3E2DF2EF02DC70123DD23
:102BD000F9E0EF0EF11CEC14FD04C1F78EE993E26D
:102BE0001ADD85E993E217DD88E893E214DD8EE9CA
:102BF00093E2809393239093942385E993E28093C7
:102C00009123909392230FC08091832381110BC055
:102C1000E091D423F091D5238689081720F06092A3
:102C2000D4237092D52380917F238F5F80937F235D
:102C3000F301868990918423981710F4809384235C
:102C400090E09C01220F331F220F331F220F331FEE
:102C5000820F931FBE0189559C4DEFDC0F900FBE74
:102C600080918323882351F0E091D423F091D523E0
:102C70008689801728F415DE81E009C081E007C04D
:102C800081E005C0FC01C78AD08E3ACF8FEFDF917B
:102C9000CF911F910F91FF90EF90DF90CF90BF9059
:102CA000AF909F908F907F906F905F904F9008951E
:102CB000AF92BF92CF92DF92EF92FF920F93A12C2F
:102CC000B12CC12CD12CE12CF12C00E020E030E023
:102CD00045E550E060E170E28BE195E1E8DE8130AE
:102CE00041F4F894809383231092852310928623D5
:102CF00093DD0F91FF90EF90DF90CF90BF90AF905A
:102D0000089580917E238F5F80937E230895DF92C4
:102D1000EF92FF920F931F93CF93DF9380917E23C7
:102D20008111B3C080918523909186230196809371
:102D3000852390938623E0908523F0908623E114E9
:102D4000F10499F5809193239091942320919123FC
:102D50003091922320939323309394238093912353
:102D600090939223809180238F5F80938023E091C2
:102D70009323F09194238081811107C08FEF9FEFFF
:102D800080930E2090930F2010C0E0919323F09138
:102D900094230580F681E02D0680F781E02D828165
:102DA000938180930E2090930F2080910E2090911C
:102DB0000F20E816F90610F4D12C4FC0D12CE09169
:102DC0009323F09194239081911107C08FEF9FEF8F
:102DD00080930E2090930F2040C0E0919323F091B8
:102DE00094230580F681E02DC681D7812A813B811D
:102DF000E216F30628F420930E2030930F202DC006
:102E00008E010E5F1F4FC8016ADC8C899D89892B5A
:102E100019F0CE010C9663DC2E89809184238217F1
:102E200010F42093842330E0C901880F991F880F84
:102E3000991F880F991F820F931FB80189559C4DC8
:102E4000FCDBE091D423F091D5239E8986899817E5
:102E500008F4B5CFDD24D394B2CFE091D423F09120
:102E6000D523868990E0FC01EE0FFF1FEE0FFF1FB8
:102E7000EE0FFF1F8E0F9F1FFC01E955FC4D808157
:102E8000823048F0DD24D39406C0809182238F5F86
:102E900080938223D12C80918123882311F0DD241B
:102EA000D3948D2DDF91CF911F910F91FF90EF90D3
:102EB000DF900895DF92EF92FF920F931F93CF93CD
:102EC000DF930FB6F8940F9280917E238150809308
:102ED0007E2380917E2381115DC0809187238111A3
:102EE00030C05BC0D7011596ED91FC911697C68155
:102EF000D781CE010C96F3DB8E010E5F1F4FC80108
:102F0000EEDB2E8980918423821710F42093842392
:102F100030E0C901880F991F880F991F880F991FEA
:102F2000820F931FB80189559C4D87DBE091D42314
:102F3000F091D5239E898689981758F0D0928123E5
:102F400008C00F2EF8E8EF2EF3E2FF2EF02DDD245F
:102F5000D394F70180818111C5CF8091822388238A
:102F600091F080918223882371F0C1E0D0DE81113D
:102F7000C09381238091822381508093822380910A
:102F800082238111F3CF80918123813029F489DC60
:102F900081E003C080E001C080E00F900FBEDF91B0
:102FA000CF911F910F91FF90EF90DF900895CF93F5
:102FB000DF93EC01892B91F0A4DE80918523909121
:102FC0008623C80FD91F8091D4239091D5230296D0
:102FD00086DBCE0137DD6EDF811101C062DCDF915F
:102FE000CF91089580917E23882321F081E0809302
:102FF00081230895109281238091842390E0FC0125
:10300000EE0FFF1FEE0FFF1FEE0FFF1F8E0F9F1F14
:10301000FC01E955FC4D8081811117C0809184230A
:103020008150809384238091842390E0FC01EE0FF3
:10303000FF1FEE0FFF1FEE0FFF1F8E0F9F1FFC01E4
:10304000E955FC4D8081882349F38091842390E0E9
:103050009C01220F331F220F331F220F331F280F13
:10306000391FD901A955BC4D1196ED91FC911297CC
:103070000280F381E02D1196ED93FC931297265573
:103080003C4DE217F30729F422813381FD012183AE
:103090003283FC01EE0FFF1FEE0FFF1FEE0FFF1F2D
:1030A0008E0F9F1FFC01E955FC4D0180F281E02D40
:1030B000868197818093D4239093D52308959FB7D9
:1030C000F894E82FF0E0E059FF4F60958081682385
:1030D00060839FBF08959FB7F894E82FF0E0E05910
:1030E000FF4F8081682B60839FBF08954091CA0184
:1030F000E62FF72F8093CA0184914093CA01089567
:10310000CF93DF93FC01709620E030E0C62FD0E033
:10311000DE01022E02C0B595A7950A94E2F7A0FD44
:1031200050832F5F3F4F31962830310589F740FF9C
:103130000AC041FF03C0FC01658302C0FC01668335
:10314000FC01618302C0FC016283DF91CF9108958D
:1031500043E050E061E080EE97E0D2DF43E050E0F2
:1031600062E080EE97E0CCDF43E050E060E180E693
:1031700096E0C6DF41E050E460E280E696E0C0DF22
:1031800040E05BE160E280E896E0BADF40E05BE1CE
:1031900062E080EA96E0B4DF40E05BE164E080EA70
:1031A00096E0AEDF43E050E062E080E696E0A8DF24
:1031B00043E050E068E080E696E0A2DF43E050E0C4
:1031C00068E080EA96E09CDF43E050E061E080E662
:1031D00096E096DF43E050E068E080E096E090DF24
:1031E00041E050E060E180E896E08ACF08951092D7
:1031F000A7088CE08093A6081092A30883E0809330
:10320000A50888E18093A4080895E1EAF8E0908198
:1032100095FFFDCF8093A0080895E1EAF8E0808152
:103220008823ECF78091A0080895CF93DF93CDB762
:10323000DEB72B97CDBFDEBFBE016F5F7F4F80E053
:1032400092E00E94100EAE01485F5F4F61E080E0A7
:1032500092E00E946C0E9A818B818F7880618B83C3
:10326000892F817E8A831C8286E08D8381E0888716
:103270001986BE016F5F7F4F80E092E00E94BC0D17
:10328000AE01485F5F4F61E080E092E00E94330E44
:103290002B96CDBFDEBFDF91CF910895E0E4F6E03D
:1032A000808181608083E0E0F8E085E0808386E1D2
:1032B000818380E49FE186A397A387E791E080A7BD
:1032C00091A70895E0E4F6E0808181608083E0E0EA
:1032D000F8E085E0808386E1818380E49FE186A336
:1032E00097A387E791E080A791A7089527E030E2B0
:1032F00040E060E085E190E265C9089580E1809357
:10330000850600EE17E0DD24D3946894CC24C1F840
:10331000C1E0D0E00F2EF0E6EF2EF6E0FF2EF02D0C
:103320006894AA24A5F86894BB24B4F876DF8136A3
:10333000F9F48091E2239091E323892B81F4D6DF85
:1033400027E030E240E060E08AE290E23BD9BADF79
:10335000C093E223D093E323F801D682FBC0C6DFFB
:1033600027E030E240E060E085E390E22BD9F2C054
:103370008133F1F48091E2239091E323019779F472
:1033800027E030E240E060E086E490E21BD986DF8F
:103390001092E2231092E323F801D582DBC0A6DF6E
:1033A00027E030E240E060E082E590E20BD9D2C055
:1033B000823679F427E030E240E060E083E690E294
:1033C00001D980DFC093E023D093E123F801C682C6
:1033D000C1C0823379F427E030E240E060E08EE65D
:1033E00090E2F0D85BDF1092E0231092E123F80125
:1033F000C582B0C0833679F427E030E240E060E077
:103400008AE790E2DFD85EDFC093DE23D093DF232C
:10341000F701B6829FC0833379F427E030E240E0C1
:1034200060E085E890E2CED839DF1092DE2310927A
:10343000DF23F701B5828EC0843679F427E030E2CD
:1034400040E060E081E990E2BDD83CDFC093DC233E
:10345000D093DD23F701A6827DC0843379F427E081
:1034600030E240E060E08CE990E2ACD817DF1092E7
:10347000DE231092DF23F701A5826CC0853641F46C
:1034800027E030E240E060E088EA90E29BD862C04A
:10349000853341F427E030E240E060E088EA90E2E2
:1034A00091D858C0863661F427E030E240E060E011
:1034B00088EB90E287D81092D6231092D7234AC087
:1034C000863361F427E030E240E060E088EC90E28F
:1034D00079D8C093D623D093D7233CC08736F1F454
:1034E00027E030E240E060E086ED90E26BD880912A
:1034F000D6239091D723892B49F4E4DEC093DA23B5
:10350000D093DB23F801D682C68224C027E030E2C4
:1035100040E060E088EE90E255D81CC0873381F42B
:1035200027E030E240E060E08EEF90E24BD8B6DE7C
:103530001092DA231092DB23F801D582C5820AC0EB
:10354000803741F462DE27E030E240E060E081E174
:1035500091E238D8CE012BDDE9CEAF92BF92CF9267
:10356000DF92EF92FF920F93F3DD0E944C080E94CE
:10357000110B0E94930B789487E08093A20055DE94
:1035800080E18093850688E080934506809341061C
:1035900084E0809346068093420629DE88EC90E022
:1035A0008093D8239093D923A12CB12CC12CD12C5A
:1035B000E12CF12C01E020E030E048EC50E069E241
:1035C00070E28EE799E173DA73DB80E090E00F91AF
:1035D000FF90EF90DF90CF90BF90AF900895A1E261
:1035E0001A2EAA1BBB1BFD010DC0AA1FBB1FEE1F7D
:1035F000FF1FA217B307E407F50720F0A21BB30BC8
:10360000E40BF50B661F771F881F991F1A9469F743
:1036100060957095809590959B01AC01BD01CF019F
:1036200008952F923F924F925F926F927F928F9266
:103630009F92AF92BF92CF92DF92EF92FF920F9341
:103640001F93CF93DF93CDB7DEB7CA1BDB0BCDBF84
:10365000DEBF19942A88398848885F846E847D8407
:103660008C849B84AA84B984C884DF80EE80FD802A
:103670000C811B81AA81B981CE0FD11DCDBFDEBFC8
:10368000ED010895CF93DF938230910510F482E02D
:1036900090E0E091F023F091F12320E030E0C0E0F1
:1036A000D0E0309711F14081518148175907C0F09F
:1036B0004817590761F482819381209719F08A8312
:1036C0009B832BC08093F0239093F12326C0211578
:1036D000310519F04217530718F49A01BE01DF01B2
:1036E000EF010280F381E02DDCCF2115310509F1D6
:1036F000281B390B2430310590F412968D919C9142
:1037000013976115710521F0FB018283938304C037
:103710008093F0239093F123FD01329644C0FD0184
:10372000E20FF31F81939193225031092D933C9323
:103730003AC02091EE233091EF23232B41F42091C6
:103740000320309104202093EE233093EF23209127
:103750000120309102202115310541F42DB73EB7EB
:103760004091052050910620241B350BE091EE235B
:10377000F091EF23E217F307A0F42E1B3F0B28175D
:10378000390778F0AC014E5F5F4F2417350748F0DA
:103790004E0F5F1F4093EE235093EF23819391933D
:1037A00002C0E0E0F0E0CF01DF91CF9108950F93E8
:1037B0001F93CF93DF93009709F48CC0FC013297DD
:1037C000128213820091F0231091F123011511054B
:1037D00081F420813181820F931F2091EE2330915B
:1037E000EF232817390779F5E093EE23F093EF23C1
:1037F00071C0D80140E050E0AE17BF0750F41296F8
:103800002D913C911397AD012115310509F1D90195
:10381000F3CF9D01DA012283338360817181860FAA
:10382000971F8217930769F4EC0128813981260FCD
:10383000371F2E5F3F4F208331838A819B81828394
:103840009383452B29F4E093F023F093F12342C0B6
:103850001296ED93FC931397ED01499159919E01B6
:10386000240F351FE217F30771F480819181840FD3
:10387000951F02968D939C93119782819381129646
:103880008D939C931397E0E0F0E0D80112968D9110
:103890009C911397009719F0F8018C01F6CF8D9148
:1038A0009C9198012E5F3F4F820F931F2091EE2332
:1038B0003091EF232817390769F4309729F41092D3
:1038C000F0231092F12302C0128213820093EE23A0
:1038D0001093EF23DF91CF911F910F910895F894EA
:0238E000FFCF18
:1038E200010000F223200000FC010607207DFFFFFB
:1038F20049444C4500202020202020202020202048
:10390200202020202020202020004F70656E20548F
:103912006170203100546170203120686164206F31
:1039220070656E656400436C6F736520546170202E
:10393200310054617020312068616420636C6F73C0
:103942006564004F70656E20546170203200436CD4
:103952006F7365205461702032004F70656E205481
:103962006170203300436C6F7365205461702033A3
:10397200004F70656E20546170203400436C6F7389
:103982006520546170203400576174657220446967
:1039920073636861726765004D616E75616C205773
:1039A20061746572696E67004175746F2057617446
:1039B2006572696E67004F70656E2057617465723B
:1039C200696E6720546170004175746F205761748D
:1039D2006572696E67204D6F6465204F4E00436CBF
:1039E2006F7365205761746572696E6720546170E8
:0C39F2000053656E642050494E470000F1
:00000001FF
